S00B00006D6D702E73726563CF
S31500000000000A0020FD14000015130000F91400007A
S31500000010F9140000F9140000F9140000F9140000A6
S31500000020000000000000000000000000F9140000BD
S31500000030F914000000000000F9140000F914000093
S315000000404510000000000000000000000000000055
S31500000050000000000000000000000000000000009A
S31500000060000000000000000000000000000000008A
S31500000070000000000000000000000000000000007A
S31500000080000000000000000000000000000000006A
S31500000400FFFFFFFFDFCEFFFFFCFF0F00FFFF0F0028
S31500000410FCFF0F00FFFF0F00FCFF0F00FFFF0F00A8
S31500000420FCFF0F20FFFF0F20FCFF7F40FFFF7F40F8
S31500000430FCFF0D40FFFF0D40FFFFFFFF40F21000E5
S3150000044040F21003C2F20000C2F2000310B583426C
S3150000045005D040F20003C0F2000303B1984710BD77
S3150000046040F2100040F21003C2F20000C2F2000394
S315000004701B1A9A10D90F8918491010B529B140F2E4
S315000004800003C0F2000303B1984710BD10B540F257
S315000004902804C2F20004237873B9FFF7CFFF40F2B5
S315000004A00003C0F200032BB141F6A410C0F2000015
S315000004B000E000BF0123237010BDC04640F20003D8
S315000004C0C0F2000310B54BB140F22C0141F6A41066
S315000004D0C2F20001C0F2000000E000BFFFF7C0FF5B
S315000004E010BDC046F0B5C64600B5C36887689846D5
S315000004F0040040680D00FE1AC0189044964208D9C0
S3150000050001F0DCF8BFF35F8F4346E36080BCB8467A
S31500000510F0BD320001F0D2F84346DB1B1A006068DA
S31500000520A919984601F0CAF8BFF35F8FECE7C046F9
S31500000530F8B54746CE4680B588460700160040F215
S315000005400009C56884681CE0013B5B1B641BB44260
S3150000055000D934009C4200D91C007868220041462C
S31500000560401901F0ABF82D19A144A044361BBC6814
S31500000570631B5A1E93415B421D40BFF35F8FFD60B4
S3150000058036B13B699D42DFD3013B1B195B1BDDE79F
S315000005904846C0BCB946B046F8BDC04610B540F2A4
S315000005A05444C2F20004A8220021200001F07EF883
S315000005B0032341F238722361636140F25403C0F2AF
S315000005C00002C2F20003A261E36140F2004323622B
S315000005D00023A3626362E362226640F24402C2F22F
S315000005E0000262661022A2662367E3666367BFF3B2
S315000005F05F8F054A00215156013AE1540133102B11
S31500000600F8D1BFF35F8F10BDAB170000431C70B568
S3150000061004005800C01840F25443C2F200039C463E
S3150000062063001B19DB006344DC6AC00015006044EC
S31500000630012C14D0022C0DD0FCB99A6A5E6AB24223
S3150000064022D9013A961BB54207D82A00FFF74AFF7E
S315000006502C0002E0FFF76CFF0400200070BD9A6AD0
S315000006605C6AA2420BD9013A121B2C00954200D9B2
S3150000067014002200FFF736FFEFE70024EDE71B6AC0
S31500000680D218013A121BF0E71B6AD218013A961BE0
S31500000690D9E7C046F8B540F25443C2F200031B78CE
S315000006A004000D001600532B01D0FFF777FFEFF380
S315000006B01087012181F31088320029002000FFF7FE
S315000006C0A5FF87F31088F8BD10B5FFF767FF10BDCB
S315000006D010B5040082686368501C984207D82368E6
S315000006E099540200E368A0600133E36063689A42AC
S315000006F000D010BD21682069FFF7CCFFA36898429F
S3150000070003D001235B42E360F3E70023A360F0E735
S31500000710F8B54E4645465746DE46E0B51E000A9BEE
S315000007200F008046150099460B99974200D271E05A
S315000007303B000122B3FBF5F301329D42FAD9B246E2
S31500000740964200D2924601231A000A4093460B4273
S3150000075002D14B46002B42D14346DB680124002BD5
S3150000076002DA27E06C43013E012EFBD8B7FBF4F317
S315000007709D4204D86C43B7FBF4F39D42FAD941F687
S315000007803406C0F2000606E0B4FBF5F3AC420DD326
S315000007901C00B7FBF3F322005A43F1564046BF1A3A
S315000007A0FFF796FF4346DB68002BEDDA5B460BB19D
S315000007B04B468BB9F0BCBB46B246A946A046F8BD2F
S315000007C001235B429C4620214046E144FFF780FF1F
S315000007D04346DB68002BEDDBD145F1D8EAE7202460
S315000007E0890714D57442744124012034D145B3D904
S315000007F001235B429C4621004046E144FFF768FF27
S315000008004346DB68002BD5DB4A46002AA6D0D145F5
S31500000810EED8A1E7012292E7F0B5DE4657464E46EE
S315000008204546E0B59DB00CAB9A4607934023089326
S3150000083000230C00914640F2010B804609930A936F
S31500000840B24B0B900293002161560134002967D008
S31500000850252907D007A8FFF73BFF0A9B002BF2DAF2
S315000008601F0066E00023E356002702250820042225
S31500000870611C2D2B0CD02D2B0EDC232B11D02B2BFA
S315000008803CD10C0017430023E356611C2D2BF2D1FB
S315000008905B460C001F43F6E7302B05D10C002F43B7
S315000008A0F1E70C000743EEE71A00303AD2B2002611
S315000008B0092A0DD8B20096197600F6180023CB56F1
S315000008C00C001A00303AD2B2303E0131092AF1D971
S315000008D02E2B00D1B6E000230025E3560C0004229F
S315000008E01900914368290BD0252B13D0583BDBB256
S315000008F0202BB2D8029A9B00D3589F460026EAE7DF
S3150000090004210023E35601341A008A43682AF8D0EA
S31500000910252BEBD1252107A8FFF7DAFE0A9B9DE7D9
S315000009200A9F4546002F04DD099C002C00D0A3E059
S315000009303F1938001DB0F0BCBB46B246A946A046DA
S31500000940F0BD4B4649461B6807A81A1D0A60196880
S3150000095010222B0001970096FFF7DAFE0A9B7DE72F
S315000009604B4649461B6807A81A1D0A6019680A22E1
S315000009702B0001970096FFF7CBFE0A9B6EE74B46CE
S3150000098049461B681A1D0A601D683DB9A6E007A8FE
S31500000990FFF79EFE0A9B002B00DA61E700216956ED
S315000009A001350029F3D158E74B4649461B6807A88D
S315000009B01A1D0A6019680023019308330093102258
S315000009C0FFF7A6FE0A9B49E74B4649461B681A1DD8
S315000009D00A601B68DA1703939B1853400122092B00
S315000009E006DD0A201900013293FBF0F36329F9DCD6
S315000009F00495954263D3002E44D100260A9B002B12
S31500000A0000DA2DE7039B002B6DDB7B0776D40323EF
S31500000A103B40022B00D17BE02B000A220399019771
S31500000A20009607A8FFF774FE0A9B17E74B46494650
S31500000A301B6807A81A1D0A6000215956FFF748FED1
S31500000A400A9B0BE70123E3561A00303AD2B2092A71
S31500000A5059D800250C002A009500AD186D00EA183B
S31500000A6000230134E356303A19003039C9B2092956
S31500000A70F2D91500611C31E7220051462800FFF724
S31500000A8009FE55E70223039A3B40002A1BDB7A073F
S31500000A9019D4002B55D0FDB1FB071DD40597049F33
S31500000AA0BE4218D9202107A8FFF712FE0A9B013E75
S31500000AB0002B00DAD4E6002EF2D1059F9FE70492C0
S31500000AC0002EDFD199E7013E03B12DB1FB0703D418
S31500000AD0002EE3D191E7059F0A9B90E741F244750A
S31500000AE0C0F200055AE75B422D2107A80393FFF7E2
S31500000AF0EFFD0A9B002B8ADA1F001AE72B2107A8B5
S31500000B00FFF7E6FDF5E700250131E7E6B01700003F
S31500000B10002D00D080E7002E00D17DE7049BB34274
S31500000B2017D2302107A8FFF7D3FD0A9B013E002B01
S31500000B3000DA95E6002EF1D1002B00DB6CE71F00F2
S31500000B40F7E6FB07AAD50A9B002B00DB64E71F002C
S31500000B50EFE60A9BF0E7C0460EB400B582B003ABE1
S31500000B6002CB01AA0193FFF757FE02B008BC03B0FF
S31500000B701847C04610B503C800F018F9040008B9B4
S31500000B80200010BD41F24C710020C0F20001FFF7B9
S31500000B90E3FFF5E710B503C800F016F9040008B93D
S31500000BA0200010BD41F260710020C0F20001FFF785
S31500000BB0D3FFF5E710B5006800F00CF9040008B99A
S31500000BC0200010BD41F260710020C0F20001FFF765
S31500000BD0C3FFF5E710B5006800F094F8040008B903
S31500000BE0200010BD41F274710020C0F20001FFF731
S31500000BF0B3FFF5E710B500F03BF810BD10B538B9F6
S31500000C004CF2000390220121C4F27E03995410BDD8
S31500000C100228FCD141F6C00140F20450C0F20001A6
S31500000C20C2F2000000F09CF9F1E7C04670B540F250
S31500000C3000060378C2F200069B00040040F2FC4561
S31500000C409859FFF797FFC2F20005286023789B00AA
S31500000C509859FFF79FFF286023789B009859FFF764
S31500000C60A9FF0123286022781340237070BDC04677
S31500000C7070B5FFF729FD41F288710020C0F200012E
S31500000C80FFF76AFF41F64403C0F200031D68596886
S31500000C90280040F2FC4400F073F9C2F20004206020
S31500000CA0280000F0A9F9206044F240210320C0F298
S31500000CB00F0100F001FB40F20050C2F20000FFF706
S31500000CC0B5FFF1E710B540F2005440F20003C2F25E
S31500000CD000042278C2F200039200D058FFF77AFF90
S31500000CE040F2FC43C2F200031860237801332370FC
S31500000CF010BDC04610B5FFF77DFF002010BDC046F1
S31500000D0006207047002303600020704770B5050079
S31500000D10012000F0CBFB4EF20001A0201022C4F20D
S31500000D20010114000B5C1C401A42FAD14EF200027B
S31500000D30AA21C4F20102535CDB06FCD42978002008
S31500000D4061B1032916D046F2000340F2A012A96849
S31500000D50C4F20003995048F2000021004EF200034D
S31500000D609222C4F2010398810120995400F074FB89
S31500000D70002070BD69692B69983013500B435942A6
S31500000D804B4146F20001EC7E6930C4F20001FF30AF
S31500000D9064001C430B5AAE7E5B0A5B0233430B5264
S31500000DA09423297EE4B2D154CDE7C04610B50400A1
S31500000DB008006160FFF7AAFF20B945F24D03C5F2AE
S31500000DC04C23236010BDC04610B541600800FFF7F4
S31500000DD09DFF10BD4EF2000270B510210500A02047
S31500000DE0C4F20102135C1942FCD14EF20004AA229D
S31500000DF0C4F20104A35CDB06FCD4012000F056FB20
S31500000E00A389DB0B012B20D06B681B78032B0AD13F
S31500000E104EF2000392228021C4F20103985C4942FB
S31500000E20014399549B5CBFF34F8F30BF4EF20003D2
S31500000E3092217F220024C4F20103585C02405A54D6
S31500000E40012000F009FB200070BD92222533E35CEF
S31500000E50A25CDBB2D2070ED58BB94EF23803C4F2D0
S31500000E6001031B78012B0AD14EF23203C4F20103AF
S31500000E701B78012B03D1002000F018FBC4E70524E2
S31500000E80DEE7C046F0B5DE4657464E464546E0B577
S31500000E90EFF31082012383F3108840F26C5BC2F2F9
S31500000EA0000B5B461B6833B940F60051C4F20401DF
S31500000EB0CB704033CB705B4659461B6801330B60E1
S31500000EC082F31088038800224BB380235B02994685
S31500000ED0224B40F6000440F2FF0C9846C4F204048C
S31500000EE04368D1005B1861469F881E683B0A0F4025
S31500000EF049461B010E420AD0D91989008A46454641
S31500000F000959294055462951414631402951DB1995
S31500000F109B001E510132018893B29942E0D8EFF34B
S31500000F201082012383F310885B461B6823B15B465E
S31500000F3059461B68013B0B605B461B6833B940F69C
S31500000F400051C4F20401CB708033CB7082F3108859
S31500000F50F0BCBB46B246A946A046F0BDFFFFFEFF69
S31500000F6045F2542310B5C5F24F0303600800FFF79E
S31500000F7089FF002010BDC0468160C2600020704716
S31500000F80022346F2000270B5C4F20002CB56944624
S31500000F9003710400002540F200309B0063441A5898
S31500000FA01D5046F200008B68C4F20000A360CB68B7
S31500000FB0E3600B786371C5540B79CD781B012B4325
S31500000FC04D79DBB2ED012B436579DBB24355042342
S31500000FD0E356C0339B001A5004202056002803DB3A
S31500000FE02200497800F0CAF944F25533C0F24903A9
S31500000FF00020236070BDC04610B5007940B200F0F5
S31500001000E3F9002010BDC04610B5007940B200F0EB
S31500001010FDF9002010BDC04610B50400042020567E
S3150000102000280ADB00F0F2F9042240F27053002196
S31500001030A256C2F200039200D15000230020236082
S3150000104010BDC04630B583B0EFF3038440F2705351
S31500001050103C64B2C2F20003A200D55846F2000367
S315000010606A79C4F200039B5C9B079B0F032B0BD191
S31500001070AB6823B10192EA6868460092984720005F
S3150000108000F06EF903B030BD200000F069F9AB68DE
S31500001090002BF7D06A7968460192EA680092984771
S315000010A0F0E7C0464EF20003262240F21001C4F2D9
S315000010B00103985C1B6A8000C2F2000141585B0183
S315000010C05B0F40F2F852D940C2F20002116070473D
S315000010D07047C0464EF2000340F2FE325C49C4F24D
S315000010E0010370B599524CF2000240F20011002043
S315000010F0C4F20102505240F2100446F60042C2F217
S315000011000004C0F2DC22226041F20022C0F27A0220
S31500001110626048F2000241F60031A2602261262296
S31500001120C0F2B701E160995C1A6A89006158520100
S31500001130520F40F2F855D140C2F20005296040F244
S31500001140134200219954A2220921995440F2804267
S315000011509A5C32B940F281429B5C9B07002B00D11E
S3150000116071E04EF2000640F28043C4F20106F25CE2
S31500001170002A5CD04EF20003002240F28141C4F204
S3150000118001035A5401395A544EF20002A023C4F204
S315000011900102D35CCBB13623D35C1BB93C21535C33
S315000011A0DB07FCD54EF20002A021C4F20102535C1B
S315000011B0DB06D80F002BFADB50544EF20002A021BA
S315000011C0C4F20102535CDB06FCD44EF2000200219D
S315000011D03623C4F20102D1543C31535CDB07FCD503
S315000011E001203123D054CF33C1F200031362002112
S315000011F02623D154D15C136A890061585B015B0FC9
S31500001200D94040F2FE3329601249D1524CF2000215
S3150000121040F2041340F20411C4F20102D052535AB0
S31500001220002BFCD101210133FF33D15270BD0132B5
S31500001230F2540121C82000F03FF840F28042B35C2E
S31500001240012BFCD196E740F2E830FFF741FF9BE720
S3150000125003A5FFFF00A5FFFF70B544F20004282395
S315000012600025C4F20404E5540121C82000F024F846
S3150000127024232422E554A35C002BFCD10221A35C89
S3150000128024200B43A35444F20002C4F20402135C6C
S315000012909B07D90F002BFADB2223D15444F200021C
S315000012A02221C4F20402535C002BFCD170BDC0465F
S315000012B001380028FCD1704740F2F8524CF6002362
S315000012C070B54143C2F200021468C3F69A330D00AA
S315000012D0B3FBF4F4080040F2E8320023002100F0EA
S315000012E0B7F931B9B0FBF4F0800808B1FFF7E0FFB9
S315000012F070BDA000B5FBF0F040F2E83200230021FB
S3150000130000F0A6F90029F0D001204042FFF7D0FFF7
S31500001310EEE7C046F8B546F2000340F2201240F26E
S315000013202C5500240127C4F200039E5A20329B5AF2
S31500001330C2F200051E403300E3401F4203D02B6873
S315000013400BB1E0B2984701340435102CF3D146F2C4
S31500001350000340F23012C4F200039E52F8BDC046AC
S3150000136046F20003C0308000C4F20003C2580249AE
S315000013700A40C250C3587047FFFFFEFFF0B5C6468D
S3150000138090464EF20012FF240325CEF20002944648
S31500001390220040F200370540ED008901AA400C40CA
S315000013A0AC4083089B0000B56344DE598000964339
S315000013B02643DE5140F270534246C2F200031A50F1
S315000013C080BCB846F0BDC046030046F2000210B528
S315000013D0C033C4F200029B0099580B4C214099502F
S315000013E09B58BFF35F8F1F220123024093404EF2AA
S315000013F00012CEF20002944640F2801240098000AC
S3150000140060448350036010BDFFFFFEFF1F210122D1
S3150000141001408A404EF2001143092033CEF200010A
S315000014209B005A50BFF34F8FBFF36F8F7047C04674
S3150000143046F200000023C4F2000041F65412C0F246
S3150000144000029A1812781AB11900C03189000A50A0
S315000014500133202BF1D1704730B5EFF31081012312
S3150000146083F3108840F2F0534000C2F200031A5A88
S315000014701AB11A5A013A92B21A521B5A83B94EF24B
S31500001480000241F69C1340F2FE34C4F20102C0F29F
S315000014900003155B185A044B2B4383439BB213532B
S315000014A081F3108830BDC04600A5FFFF70B5EFF38D
S315000014B01081012383F3108840F2F0524000C2F2FB
S315000014C00002135A83B94EF2000441F69C1540F20D
S315000014D0FE36C4F20104C0F20005A35B2D5A2B436D
S315000014E04AF200552B43A353135A01339BB21352AE
S315000014F081F3108870BDC04600BE704710B500F07D
S3150000150003F8FFF7F7FBFEE7F0B54EF6005340F29F
S315000015100005CEF20003C0F2000583B09D600020F6
S31500001520FFF76CFBFFF7D6FD6B460027DC1D277027
S3150000153001202378FFF7BAFFEFF31081012686F327
S31500001540108846F6FC73C4F204039A683C480240CD
S315000015509A609A6881F3108840F60001C4F204018B
S315000015600A68D207D20F22700A68D207D20F2270F9
S315000015700A68D207D20F2270EFF3108186F3108823
S3150000158080229868520502439A609B6881F310880E
S315000015900120FFF761FF0120FFF730FB40F6005303
S315000015A0284AC4F200039F801A802A68264941F21D
S315000015B0000051189960DA6046F2000240F22011EC
S315000015C0C4F20002505240F2FC5240F22800C2F22D
S315000015D00002C2F200009E800021121A00F066F896
S315000015E040F2000040F2100241F6A811C2F20000DB
S315000015F0C2F20002121AC0F2000100F05FF840F2D7
S31500001600080540F20C03C2F20005C2F200035B1BA0
S315000016109E10002B05DD002408CD01349847A64214
S31500001620FADCFFF73FFDFFF717FE0220FFF7E6FAA9
S31500001630FFF7FEFE002000F009F803B0F0BDC0463B
S31500001640FFFFFFEF00A5FFFF00FCFFFF7047C0464E
S31500001650F0B54FF6FF750400CE462C4047461540C0
S315000016600E002900994680B5130C0700000C614353
S315000016704543584363430C0C5B19E4188C46A5425A
S3150000168003D980235B0298464044230C61461B180D
S315000016904FF6FF700840494656437943240489199A
S315000016A02018C918C0BCB946B046F0BD0300821860
S315000016B0934200D1704719700133F9E7002310B542
S315000016C09A4200D110BDCC5CC4540133F8E7FFFF49
S315000016D04275696C7420776974682052656E65730B
S315000016E0617320416476616E63656420466C65783B
S315000016F069626C6520536F6674776172652050610C
S31500001700636B6167652076657273696F6E20352E2F
S31500001710322E3000352E322E300000000000020539
S31500001720F8B5C046F8BC08BC9E467047F8B5C0463A
S31500001730F8BC08BC9E4670475465726D696E616C54
S3150000174000000000284E554C4C2900004C504D20FE
S315000017504F70656E206661696C65640A0000000062
S315000017604C504D20456E746572206661696C6564E7
S31500001770200A00004C504D20436C6F736520666153
S31500001780696C65640A0000004C504D20656E7472E9
S315000017907920656E74657265640A00FF00000000BA
S315000017A000005454522052454747455300FFFFFF5F
S315000017B0420900005A0800005A0800005A080000B2
S315000017C05A0800005A0800005A0800005A0800008B
S315000017D05A0800005A0800005A0800002C0A0000A7
S315000017E0C80900005A0800005A0800005A080000FC
S315000017F05A0800005A0800005A0800005A0800005B
S315000018005A0800005A0800005A0800005A0800004A
S31500001810A80900005A0800005A0800007E090000C6
S315000018205A080000600900005A0800005A08000023
S3150000183042090000303132333435363738394142C7
S31500001840434445460C050020501800008819000046
S315000018500600000103000000C50C000000000000A7
S31500001860000000001C05002070180000741900001C
S315000018700000000000000000000000000000000062
S315000018800000000000000000000000000000000052
S3150000189024050020A018000074190000FFFFFFFFB8
S315000018A002000000000000004000000000000000F0
S315000018B00000000000000000000000000000000022
S315000018C011000000CC180000000000000000010C10
S315000018D0010000000080000003000000000001007D
S315000018E008010000000001060B01000000000106CF
S315000018F00C010000000000000102000000000104CD
S315000019000402000004000000050200000040000080
S3150000191006020000000001000003000000000106AE
S315000019200303000000000106040300000000011389
S31500001930070400000000010C090400000000010477
S315000019400B040000000001130E0900000000011343
S315000019500F09000007000000000000000000000062
S315000019600000000000000000000000000000000071
S3150000197000000000AD0D0000050D0000C90D0000BF
S31500001980D50D0000010D0000810F0000F90F0000C9
S3150000199009100000790F0000191000000100020074
S30D000019A0080010000000000021
S315000019A86418000090180000BD0400008D040000B3
S31501010018FFFFFFFFFFFFFFFFFFFFFFFFFFFFFFFFE0
S31101010028FFFFFFFFFFFFFFFFFFFFFFFFD0
S705000014FDE9
