:10000000287E002085270000212500008127000090
:100010008127000081270000812700008127000040
:100020000000000000000000000000008127000028
:1000300081270000000000008127000081270000C8
:100040004521000051210000FD170000FD170000B0
:1000500000000000000000000000000000000000A0
:100060000000000000000000000000000000000090
:100070000000000000000000000000000000000080
:100080000000000000000000000000000000000070
:10040000FFFFFFFFDFCEFFFFFCFF0F00FFFF0F002E
:10041000FCFF0F00FFFF0F00FCFF0F00FFFF0F00AE
:10042000FCFF0F20FFFF0F20FCFF7F40FFFF7F40FE
:10043000FCFF0D40FFFF0D40FFFFFFFF40F2DC100F
:1004400040F2DC13C2F20000C2F2000310B5834296
:1004500005D040F20003C0F2000303B1984710BD7D
:1004600040F2DC1040F2DC13C2F20000C2F20003E2
:100470001B1A9A10D90F8918491010B529B140F2EA
:100480000003C0F2000303B1984710BD10B540F25D
:10049000F014C2F20004237873B9FFF7CFFF40F2E3
:1004A0000003C0F200032BB147F2C450C0F20000B9
:1004B00000E000BF0123237010BDC04640F20003DE
:1004C000C0F2000310B54BB140F2F41147F2C45032
:1004D000C2F20001C0F2000000E000BFFFF7C0FF61
:1004E00010BDC046C368F0B5C6469846876804008C
:1004F00040680D0000B5FE1AC0189044964208D915
:1005000002F0E1FEBFF35F8F4346E36080BCB84674
:10051000F0BD320002F0D7FE4346DB1B1A006068D4
:10052000A919984602F0CFFEBFF35F8FECE7C046F3
:10053000F8B54746CE46884680B51600070040F21B
:100540000009C56884681CE0013B5B1B641BB44266
:1005500000D934009C4200D91C0078682200414632
:10056000401902F0B0FE2D19A144A044361BBC680E
:10057000631B5A1E93415B421D40BFF35F8FFD60BA
:1005800036B13B699D42DFD3013B1B195B1BDDE7A5
:100590004846C0BCB946B046F8BDC04610B540F2AA
:1005A0001C64C2F20004A8220021200002F030FEE8
:1005B000032346F6C4622361636140F21C23C0F248
:1005C0000002C2F20003A261E36140F20043236231
:1005D0000023A3626362E362226640F20C22C2F24D
:1005E000000262661022A2662367E3666367BFF3B8
:1005F0005F8F054A00215156013AE1540133102B17
:10060000F8D1BFF35F8F10BDAF6F0000431C70B512
:1006100004005800C01840F21C63C2F200039C465C
:1006200063001B19DB006344DC6AC00015006044F2
:10063000012C14D0022C0DD0FCB99A6A5E6AB24229
:1006400022D9013A961BB54207D82A00FFF74AFF84
:100650002C0002E0FFF76CFF0400200070BD9A6AD6
:100660005C6AA2420BD9013A121B2C00954200D9B8
:1006700014002200FFF736FFEFE70024EDE71B6AC6
:10068000D218013A121BF0E71B6AD218013A961BE6
:10069000D9E7C046F8B540F21C63C2F200031B78EC
:1006A00004000D001600532B01D0FFF777FFEFF386
:1006B0001087012181F31088320029002000FFF704
:1006C000A5FF87F31088F8BD10B5FFF767FF10BDD1
:1006D00010B5040082686368501C984207D82368EC
:1006E00099540200E368A0600133E36063689A42B2
:1006F00000D010BD21682069FFF7CCFFA3689842A5
:1007000003D001235B42E360F3E70023A360F0E73B
:10071000F8B54E4645465746DE46E0B51E000A9BF4
:100720000F008046150099460B99974200D271E060
:100730003B000122B3FBF5F301329D42FAD9B246E8
:10074000964200D2924601231A000A4093460B4279
:1007500002D14B46002B42D14346DB680124002BDB
:1007600002DA27E06C43013E012EFBD8B7FBF4F31D
:100770009D4204D86C43B7FBF4F39D42FAD947F28B
:100780003806C0F2000606E0B4FBF5F3AC420DD328
:100790001C00B7FBF3F322005A43F1564046BF1A40
:1007A000FFF796FF4346DB68002BEDDA5B460BB1A3
:1007B0004B468BB9F0BCBB46B246A946A046F8BD35
:1007C00001235B429C4620214046E144FFF780FF25
:1007D0004346DB68002BEDDBD145F1D8EAE7202466
:1007E000890714D57442744124012034D145B3D90A
:1007F00001235B429C4621004046E144FFF768FF2D
:100800004346DB68002BD5DB4A46002AA6D0D145FB
:10081000EED8A1E7012292E7F0B5DE4657464E46F4
:100820004546E0B59DB00CAB9A460793402308932C
:1008300000230C00914640F2010B804609930A9375
:10084000B24B0B900293002161560134002967D00E
:10085000252907D007A8FFF73BFF0A9B002BF2DAF8
:100860001F0066E00023E35600270225082004222B
:10087000611C2D2B0CD02D2B0EDC232B11D02B2B00
:100880003CD10C0017430023E356611C2D2BF2D101
:100890005B460C001F43F6E7302B05D10C002F43BD
:1008A000F1E70C000743EEE71A00303AD2B2002617
:1008B000092A0DD8B20096197600F6180023CB56F7
:1008C0000C001A00303AD2B2303E0131092AF1D977
:1008D0002E2B00D1B6E000230025E3560C000422A5
:1008E0001900914368290BD0252B13D0583BDBB25C
:1008F000202BB2D8029A9B00D3589F460026EAE7E5
:1009000004210023E35601341A008A43682AF8D0F0
:10091000252BEBD1252107A8FFF7DAFE0A9B9DE7DF
:100920000A9F4546002F04DD099C002C00D0A3E05F
:100930003F1938001DB0F0BCBB46B246A946A046E0
:10094000F0BD4B4649461B6807A81A1D0A60196886
:1009500010222B0001970096FFF7DAFE0A9B7DE735
:100960004B4649461B6807A81A1D0A6019680A22E7
:100970002B0001970096FFF7CBFE0A9B6EE74B46D4
:1009800049461B681A1D0A601D683DB9A6E007A804
:10099000FFF79EFE0A9B002B00DA61E700216956F3
:1009A00001350029F3D158E74B4649461B6807A893
:1009B0001A1D0A601968002301930833009310225E
:1009C000FFF7A6FE0A9B49E74B4649461B681A1DDE
:1009D0001B680A60DA1703939B1853400122092B06
:1009E00006DD0A201900013293FBF0F36329F9DCDC
:1009F0000495954263D3002E44D100260A9B002B18
:100A000000DA2DE7039B002B6DDB7B0776D40323F5
:100A10003B40022B00D17BE02B000A220399019777
:100A2000009607A8FFF774FE0A9B17E74B46494656
:100A30001B6807A81A1D0A6000215956FFF748FED7
:100A40000A9B0BE70123E3561A00303AD2B2092A77
:100A500059D800250C002A009500AD186D00EA1841
:100A600000230134E356303A19003039C9B209295C
:100A7000F2D91500611C31E7220051462800FFF72A
:100A800009FE55E70223039A3B40002A1BDB7A0745
:100A900019D4002B55D0FDB1FB071DD40597049F39
:100AA000BE4218D9202107A8FFF712FE0A9B013E7B
:100AB000002B00DAD4E6002EF2D1059F9FE70492C6
:100AC000002EDFD199E7013E03B12DB1FB0703D41E
:100AD000002EE3D191E7059F0A9B90E746F6D0658B
:100AE000C0F200055AE75B422D2107A80393FFF7E8
:100AF000EFFD0A9B002B8ADA1F001AE72B2107A8BB
:100B0000FFF7E6FDF5E700250131E7E6B46F0000E9
:100B1000002D00D080E7002E00D17DE7049BB3427A
:100B200017D2302107A8FFF7D3FD0A9B013E002B07
:100B300000DA95E6002EF1D1002B00DB6CE71F00F8
:100B4000F7E6FB07AAD50A9B002B00DB64E71F0032
:100B5000EFE60A9BF0E7C0460EB400B582B003ABE7
:100B600002CB01AA0193FFF757FE02B008BC03B005
:100B70001847C04610B503C800F0BAFC040008B915
:100B8000200010BD46F6D8610020C0F20001FFF73A
:100B9000E3FFF5E710B5006800F014FB040008B9A6
:100BA000200010BD46F6EC610020C0F20001FFF706
:100BB000D3FFF5E710B5006800F090FA040008B91B
:100BC000200010BD46F6EC610020C0F20001FFF7E6
:100BD000C3FFF5E710B5006800F0DEFA040008B9BD
:100BE000200010BD46F6D8610020C0F20001FFF7DA
:100BF000B3FFF5E710B5006800F094FA040008B9F7
:100C0000200010BD46F6D8610020C0F20001FFF7B9
:100C1000A3FFF5E740F2DC6147F2A40010B5C2F291
:100C20000001C0F20000FFF7D5FF40F2C463C2F23A
:100C30000003186040F2E463C2F200031A68013254
:100C40001A6010BD40F2D06147F2001070B5C2F2D8
:100C5000000140F2C464C0F20000FFF7BBFFC2F223
:100C60000004206040F2DC6147F2A400C2F20001FF
:100C7000C0F20000FFF7AEFF42F2E862206040F2EF
:100C8000D860C2F200021388C2F20000016801338A
:100C90009BB2013113800160C90722D440F2C861C0
:100CA000FF20C2F200010C8843F6FE752040210AA5
:100CB00040F6000409010918C4F204048900085927
:100CC000CFF6FE75284040F20005C2F200052D78EF
:100CD000284304252843085140F6FF710B40138038
:100CE00070BD40F2C861FF20C2F200010C8843F6DB
:100CF000FE752040210A40F6000409010918C4F2DB
:100D0000040489000859CFF6FE75284040F2CC65EE
:100D1000C2F20005DBE7C04610B583780B2B00D08C
:100D200010BDEFF30380103840B201F04BFCF7E741
:100D300047F24803C0F2000370B51D6859682800E7
:100D400040F2C46400F0CEFE47F25801C2F2000443
:100D50002060C0F20001280000F0CAFF4CF200033E
:100D6000F42120601E20C4F205035A5C02435A5449
:100D700070BDC04647F24803C0F2000370B51E685C
:100D80000021300040F2C46400F046FE42F2EC65FF
:100D9000C2F200042060C2F2000501E02B789BB192
:100DA00042F2EC613000C2F2000100F0E9FD206087
:100DB0000028F3D046F600710020C0F20001FFF7D2
:100DC000CBFE2B78002BEBD146F614710020C0F23D
:100DD0000001FFF7C1FE70BD10B582B0FFF774FCD3
:100DE000002301A8019301F05DFB46F63871019ADA
:100DF000C0F200010020FFF7AFFE40F2C86240F2EF
:100E00000523C2F200021360EFF31084012383F381
:100E1000108842F29C73C2F20003196831B940F69F
:100E20000050C4F20400C1704031C1701968013132
:100E3000196084F310881188FF220B0A0A4040F6DB
:100E4000000143F6FE701B019B189B00C4F20401D5
:100E50005A58CFF6FE70024040F2CC60C2F2000059
:100E6000007840F2C4640243042002435A5046F61C
:100E700050710020C0F20001FFF76EFE47F2A4009F
:100E8000C0F20000FFF776FEC2F20004206047F2D5
:100E9000A400C0F20000FFF77DFE40F6154120607F
:100EA00047F2A40000230022C0F20001C0F20000BB
:100EB000FFF7A0FE206047F2A400C0F20000FFF799
:100EC00079FE206047F20010C0F20000FFF752FEEA
:100ED000206047F20010C0F20000FFF75BFE40F612
:100EE0004541206047F200100022C0F200010023BB
:100EF000C0F20000FFF77EFE2060FFF719FFFFF74A
:100F000039FF47F24803C0F20003186800F000FD03
:100F10002060002001F056FB47F20010C0F20000F4
:100F2000FFF748FE46F664712060C0F20001002021
:100F300042F2E864FFF710FEC2F2000440F2E862F9
:100F4000C2F20002944646F678712388C0F200018E
:100F50005B0063441A880020FFF7FEFDEEE7C04601
:100F600010B505F023FFFFF737FF10BD10B538B9F6
:100F70004CF2000390220121C4F27E03995410BD6B
:100F80000228FCD147F25C1142F2F060C0F200018D
:100F9000C2F2000000F076F8F1E7C04610B5FFF7A6
:100FA000DFFF002010BDC046F0B5DE4657464E4676
:100FB0004546E0B583B0EFF31082012383F3108838
:100FC00042F29C73C2F2000301931B6833B940F6EE
:100FD0000051C4F20401CB704033CB7001990B680F
:100FE00001330B6082F31088038800934BB3802396
:100FF0005B029846224B40F60005002140F2FF09B3
:101000009C464068C4F204054F4682880468130A6F
:101010003A4047461B013C420AD09F18BF00BA46DF
:1010200066467F5937405646775167462740775185
:101030009B189B005C510131009B89B208308B42A8
:10104000E2D1EFF31082012383F31088019B1B6828
:101050001BB101990B68013B0B60019B1B6833B905
:1010600040F60051C4F20401CB708033CB7082F3A0
:10107000108803B0F0BCBB46B246A946A046F0BDFE
:10108000FFFFFEFF10B590B189B14B6863B145F227
:1010900054230268C5F24F039A420AD00360080045
:1010A000FFF782FF002010BD0B88002BEFD001203E
:1010B000F9E70E20F7E7C04668B145F2540302682D
:1010C000C0F247039A4204D18368C26800209A6044
:1010D00070470720FCE70120FAE7C04668B145F2F7
:1010E00054030268C0F247039A4204D18368C2687D
:1010F00000205A6070470720FCE70120FAE7C0464D
:1011000068B145F254030268C0F247039A4204D121
:101110008368C2680020DA6070470720FCE701207E
:10112000FAE7C04630B570B169B145F254040568BC
:10113000C0F24704A54204D14161C261836100202D
:1011400030BD0720FCE70120FAE7C046F0B5C646EF
:1011500000B50500806984B08C46904601AC98B11A
:101160002300060086CE86C3634603714346836030
:10117000EB6903606B699847AB690BB123CC23C360
:1011800004B080BCB846F0BD2000EDE710B50028E3
:1011900001DB01F029FA10BD90B189B145F2540389
:1011A0000268C0F247039A4208D182680020D36ADD
:1011B000DB07DB0F0B71936C0B6070470720FCE7BC
:1011C0000120FAE730B5E0B145F254030268C0F2FD
:1011D00047039A4213D14368DA69802354689568BB
:1011E000D1681B0619431C431D43836800205D61C1
:1011F0009961116952691C6159629A6230BD072078
:10120000FCE70120FAE7C04610B5F0B145F25403FF
:101210000268C0F247039A4215D142688368127887
:101220004C1E9C661AB94908013959659965DA6AF4
:10123000D20701D5002010BDAA22D2035C661A6431
:10124000C268DA60F6E70720F5E70120F3E7C04659
:1012500098B145F254030268C0F247039A420AD19A
:101260008022836812061A615A619A610022002066
:101270005A629A6270470720FCE70120FAE7C046ED
:10128000030030B538B331B345F254020468C0F2FC
:1012900047020720944200D030BD9A68536E013354
:1012A0008B60D36A4EF20002C4F20102146A42F665
:1012B0002C02C2F200021268250E0540AA4004402A
:1012C000E2405B015B0F5B00DBB2DA4001230020F0
:1012D0004A600B70E0E70120DEE7C04670B555427A
:1012E00055418C6E013425B9A24202D2013A1A60EE
:1012F00070BD049D496BED070CD50078C902C90E7D
:1013000003280CD901200909884382B180B903223E
:101310005A60EDE70078C906C90E0328F2D80C2000
:101320000140043948424141C8B2002AEED110B907
:1013300002225A60DCE7002CFAD0E8E7F0B5CE468E
:101340004746032580B50E00140085B015400028DF
:101350004CD0032D4AD00C2313404268904612789B
:10136000062A3FD00BB1032A3ED145F2540302684E
:10137000C0F247039A4252D187687B6E0133B34271
:101380004FD30122002352420292039339003200CC
:1013900002AB40460094FFF7A1FF3B6B039A9946CE
:1013A0005AB902202307DB17034002990233204277
:1013B00039D09B00FB18D964196563061CD58023BE
:1013C000396CDB030B433B64012D21D049461F4B95
:1013D00019400B00110419438946CDB94B46002032
:1013E0003B6304E0002BC0D1052000E0012005B0E4
:1013F000C0BCB946B046F0BD012D24D04946134BC0
:1014000019400B00110419438946022CE5D182B919
:1014100049460F4B120619400A439146DEE7072062
:10142000E5E70320E3E75B1912339B00FB185960E3
:10143000C3E70123320000933900404602ABFFF7B7
:101440004DFF039AE4E7022CE2D1E0E7FFFFFCFF47
:10145000FFFFFFFC70B50400002847D045F254039D
:101460000268C0F247039A423ED1122543685D5795
:10147000DE69002D29DA2423F556002D16DA2523FE
:10148000F556002D07DA00220020A368E1682260EB
:1014900099605A6370BD280001F094F842F2A0737D
:1014A0000022C2F20003AD00EA50ECE7280001F090
:1014B00089F842F2A0730022C2F20003AD00EA50A4
:1014C0002523F556002DDEDBE5E7280001F07AF84C
:1014D00042F2A0730022C2F20003AD00EA502423BE
:1014E000F556002DCBDBE1E70720D3E70120D1E75C
:1014F000F0B55746DE464E464546E0B50C000700BF
:1015000085B0002900D1CFE0CE69002E00D1CBE01C
:10151000002800D1C8E001230A7A134200D0C3E0BA
:101520000A2A00D9C0E00978032900D9C4E045F2AD
:1015300054020068C0F24702904200D131E1227C9F
:101540009340FB605B0600D128E16369002B00D16A
:10155000F1E0A17C7F2900D946E11100481E8141BC
:10156000397440F28071C0F240018C46002162441F
:101570007B61A36912027C60BA60FB61B961EFF321
:10158000108040F2010888F3108846F6FC72C4F21D
:101590000402D3689C46237C5D1EAB411F255B4241
:1015A000AB436546213B2B40D360D36880F3108862
:1015B0004AF20053BD6860682B60E962E963A96480
:1015C000237A421E5B081B069C4623789A46032B0F
:1015D00000D1B4E06346EB6280231B062B616B6194
:1015E000AB61B3696962A962EB61F3692B62F36A6B
:1015F000AA666A6601229946002352420292039328
:101600005346002B00D0CEE04008013868650290B8
:10161000A86540F2010B03214A46002A4ED13278D8
:10162000E2B1727820788446900181464B461001E1
:1016300018436346022B00D1D8E0032B00D1D9E038
:1016400013005A425A4140F2020C634652429A43F6
:101650000932024340F2001002439146B278002A58
:101660005BD02378F2789C461001930118436346BF
:10167000022B00D1BCE0032B00D1BDE013005A4285
:101680005A4140F2020C634652429A4309324B4699
:101690000243802012041A43400410438146002272
:1016A0008820AA632A503BE0012005B0F0BCBB466D
:1016B000B246A946A046F0BD0520F6E700228820E4
:1016C000AA632A50AA22D2032A645246012A02D1CE
:1016D0000022EA642A65FA685B46EA604A461220FC
:1016E0006A6329632B633A00617C2056FFF74EFD45
:1016F0002223F15C0233F0563A00FFF747FD232323
:10170000F15C0233F0563A00FFF740FD45F2540316
:10171000C0F2470300203B60C7E78820AA632A5035
:1017200020222120B25C305C52034007024348462D
:1017300010438146C6E7012900D00EE709E7802063
:10174000634640020343EB6280231B062B616B61FF
:10175000AB61B3696962A962EB61F36978682B6276
:10176000F36AAA666A6601229946002352420292EF
:10177000039302ABE268009129009B46FFF7AEFDA0
:10178000029B6B65AB655B465A6803211304120626
:1017900013430122194313439B463DE740F27A501D
:1017A00083E70E2081E7012B03D1023B6B65AB651C
:1017B0002FE7E26802AB7868009129009B46FFF7AB
:1017C0008DFD5246029B6B65AB65032ADBD9EB6549
:1017D0002B665B465A6803211304120613434246E4
:1017E000194313439B4617E70B205EE7092230E7B6
:1017F00009224CE703222CE7032248E770B5EFF3F8
:101800000384103C64B2200000F0B0FE42F2A073EA
:10181000A200C2F20003D5586B681B78012B07D0D9
:101820006B6923B1002200212800FFF78FFC70BDF7
:10183000EA68AB6820009A6000229A64DA641A654C
:1018400000F0A2FEECE7C04630B570B169B144F2D9
:1018500043448568C5F24124A54204D181610262F6
:10186000C361002030BD0720FCE70120FAE7C04635
:10187000062070470620704770B5C56904000E0049
:1018800088B0A5B120222900684601F01CFD202265
:101890003100280001F017FD2800A3699847E0698E
:1018A00018B12022694601F00EFD08B070BD0D0090
:1018B000F2E7C04630B5040089B0EFF3038342F28B
:1018C000A072103B5BB2C2F200029B009D58EFF386
:1018D0000380103840B200F049FE6B469C707D23B7
:1018E0002A68D15C21B10321684681700021D1545E
:1018F0006A466B681B881380002313722B6A01935E
:10190000AB691BB169462800FFF7B6FF09B030BDCF
:10191000D8B144F243438268C5F241239A4210D1C0
:10192000C36893420FD180220368995A48F201029A
:10193000914202D01A88D20B4AB9828A00201A80BA
:1019400070470720FCE72120FAE70120F8E708208C
:10195000F6E7C04690B144F243438268C5F24123A2
:101960009A4207D1C368934206D10022036800203F
:101970001A8070470720FCE72120FAE70120F8E7EA
:1019800078B171B144F243438268C5F241239A426F
:1019900005D1036800201B88DB0B0B707047072004
:1019A000FCE70120FAE7C046030010B518B312B3F4
:1019B00044F243409C68C5F24120844219D1D86862
:1019C000A04226D1C8B21F2817D8012040F2FF1428
:1019D0008840C0F2FF0420420DD058684069407929
:1019E000012808D01B6810314900CB5A0020138011
:1019F00000E0072010BD0120FCE7C41CE4B2012C6C
:101A0000EBD90C1DE9D0323804000120012CF1D8AB
:101A1000E3E72120EEE7C046B8B144F243438268D1
:101A2000C5F241239A420CD10368094A1988114230
:101A300009D17D2203210020995475327D319954BA
:101A400070470720FCE71B20FAE70120F8E7C046B3
:101A50000082FFFF70B506000D0000283DD0002970
:101A60003BD044F243438268C5F241239A4232D1CB
:101A70000069A8B11D230124D841012164420B0053
:101A800022000134A3401842F9D033680E325200CC
:101A90009B182B6000F020FF1F23181A001B013039
:101AA00001232B721B33AB7273684CF200021B884C
:101AB00040F2282104335B006B7240F229236860F6
:101AC000C4F27E02D35C525C1B021343EB60044BF6
:101AD00000202B8200E0072070BD0120FCE7C046FB
:101AE000BEF1FFFFF0B54546DE4657464E46E0B52F
:101AF0000C00050083B0002800D1C5E0002900D10A
:101B0000C2E00988002900D0C0E04EF20003C4F210
:101B100001031E6A42F62C030722C2F200031B686F
:101B2000300E104083403240D34044F23F22C0F296
:101B30000F02934200D8BCE066690120337801931C
:101B40000023F356002B06DD03B0F0BCBB46B246C3
:101B5000A946A046F0BDA378012B00D199E0F27808
:101B600012B16279022AEFD1E2780120042AEBD186
:101B700044F24342A868C5F24122904200D1B5E048
:101B8000E2681AB1A0797F2800D994E0AA6122699D
:101B90006C602A620022EA614CF20002C4F2050283
:101BA0002A6062795B0310020343F078002879D041
:101BB00040F2C02C67463B439BB2AB82022A05D160
:101BC00047F24C228000C0F20002115A44F2000099
:101BD0007278520102439446EFF31089012282F396
:101BE000108846F6FC72C4F20402D76840F2100A6C
:101BF000B8462788BB46574658463F1A3800012743
:101C00008740380047468743D760D26889F31088F9
:101C100047F6FF502A680340138063469BB2118247
:101C2000D38180230021019F9F4370331773D152CA
:101C30003379002B49D106202056002803DB2A00E7
:101C4000617A00F0D1FC07202056002803DB2A002F
:101C5000A17A00F0C9FC06203056002803DB2A00D8
:101C6000317A00F0C1FC07203056002803DB2A003F
:101C7000717A00F0B9FC00232B6144F24343C5F2B2
:101C800041230020AB605FE701205DE740F27A501E
:101C90005AE76279022A00D056E7B278022A00D0C9
:101CA00052E761E7EAB948F2400213439BB2AB82C4
:101CB0008CE71B2048E7B0797F2800D866E7F079E9
:101CC0007F2800D862E70B203EE7F42716310B404F
:101CD000D3559620153900F0F5FB2B683279DA558B
:101CE000A9E740F2400C67463B4365E70E202BE72F
:101CF000F0B5DE4657464E464546E0B5040083B093
:101D0000002800D125E1002900D122E144F243431B
:101D10008268C5F241239A4200D023E10A6800920A
:101D2000002A00D115E14FF600631700C9F60073D1
:101D30001F401A4200D00CE140684A688578012DA6
:101D400000D105E1002A00D003E1C023009EDB059D
:101D50001E40B446009E1E4200D00EE1436901932E
:101D60008B689946019B1B78002B00D119E14846EE
:101D7000009B13439843002800D0EAE04B46002B19
:101D800000D1E6E08B7C002B00D0E2E0CB689C46E3
:101D9000B3B11B89A3B140F6002005001D40854268
:101DA00000D105E15B040BD5634658899B899842B5
:101DB00000D9CEE06346D8891B8A984200D9C8E092
:101DC000834B00984D461840804610004646184008
:101DD0002B402568B6B2AE8086B2AE829EB22E810E
:101DE0004646000C360C1B0CEE80E8826B814EF2EE
:101DF0000003C4F201031B6A9B465846000E82464C
:101E000042F62C0307205646C2F200031B68064028
:101E1000B3405E463040C34040F2E830B3FBF0F0E0
:101E200041F28833434344F24020C0F20F00B3FB39
:101E3000F0F30133072B00D20723009802439246A8
:101E4000802056468005024006420AD040F2DE0B52
:101E50005E46DAB2AA554A461040421E9041421CE4
:101E6000FF3280205646C00506420BD040F2DF0A02
:101E70005646DBB2AB554B46034200D08DE040F2F4
:101E800000231A43634692B26A82002B00D182E09B
:101E90001B891A0529D59022AB52624650899C2293
:101EA000A852624690899E22A8526246126890B259
:101EB000814694204E4640F296092E524E4610011D
:101EC000000DA8539220520F2A546246526890B2D5
:101ED000814698204E4640F29A092E524E461001F5
:101EE000000DA8539320520F2A549A050ED562462E
:101EF0006046927CC07C0243A6202A546246D08968
:101F0000A822A8526246108AAA22A8529022AB5256
:101F100080230A8AEA52019BDB788BB11F222B882F
:101F2000934399464346002B40D0404600F0D4FCF2
:101F30004B461F331B1A9BB22B80A28A1343A382EA
:101F400044F24343C5F24123E360009B236101E077
:101F500052B90127380003B0F0BCBB46B246A946CF
:101F6000A046F0BD0727F5E7009E33431A42F0D1A3
:101F7000C023DB051A42ECD1E7E69C45E9D0144BBF
:101F8000009E1E42E5D1002DE3D143690193DB7829
:101F9000002BDED1E4E60023B8E740F202231A4327
:101FA00070E74B46002B00D1ECE6D2E72020BFE7DC
:101FB0006046857C1F20A8428041404280002D1A47
:101FC0000120A84065462D68054200D1EAE6C0E739
:101FD000FFFFFF9FF8B50400002800D173E044F232
:101FE00043438268C5F241239A4200D069E000274A
:101FF000062543688760C7605D575E69002D51DA2A
:1020000007255D57002D3EDA06257557002D2BDA82
:1020100007257557002D1CDA0022002123681A823B
:102020001A80F4329954EFF31080012383F310885F
:10203000616846F6FC720C881021091B8B40C4F2C3
:102040000402D5682B43D360D36880F31088002046
:10205000F8BD280000F0B6FA42F2A0730022C2F2E6
:102060000003AD00EA50D7E7280000F0ABFA42F2D7
:10207000A0730022AD00C2F20003EA500725755795
:10208000002DC9DBE5E7280000F09CFA42F2A073BE
:102090000022AD00C2F20003EA5006257557002D5C
:1020A000B6DBE1E7280000F08DFA42F2A073AD0044
:1020B000C2F20003EF50072563685D57002DA3DBD4
:1020C000E1E70720C4E70120C2E7C046030010B5DE
:1020D00032B328B344F243409C68C5F241208442A5
:1020E00020D1D868A0422BD1C8B21F281CD801200B
:1020F00040F2FF148840C0F2FF04204210D058681C
:1021000044696479012C0BD01B6810314900CB5A0B
:1021100001799BB2012900D11B040020136000E06B
:10212000012010BD0720FCE7C41CE4B2012CE6D955
:102130000C1DE4D0323804000120012CF1D8DEE778
:102140002120EEE710B50020FFF7B4FB10BDC0461C
:10215000F0B5DE4657464E464546E0B589B0EFF34A
:10216000038442F2A073103C64B2C2F20003A200E6
:10217000D6586D4673685A69927952B2A24228D0F5
:102180000C22AA701B8832682B80A623D35C9B0686
:10219000990E0B001F2917DCAC2101202B72535C18
:1021A00083435354336A6B60B3691BB12900300019
:1021B000FFF762FB200000F0D9F909B0F0BCBB4684
:1021C000B246A946A046F0BD0F230B40033B5BB2CD
:1021D000E2E70B22AA701B882B8000232B72336846
:1021E0009846A0234246D15A8BB29B46A223D05A8E
:1021F00083B29A46A423D25C0004D7B25207801857
:1022000040184208B9461F210127D2B33B004000C5
:102210001340520818430139002AF7D1884048B3C7
:1022200000F05AFB0F280CDDC3B21C2814DC0F226F
:1022300013409F4053464146BB4393328B52287212
:10224000B0E78740FF4340B2BFB25B4642461F4003
:10225000A0232872D752A5E7032249461A4091438A
:102260004746A4222872B9541D2B9BD0203B5BB259
:102270002B7297E7A42342464946D15400232B7280
:1022800090E718B100204FF6FE77DEE74246494658
:10229000D1542023EAE7C0464EF20003262240F242
:1022A000DC11C4F20103985C1B6A8000C2F20001D9
:1022B00041585B015B0F42F62C02D940C2F200028A
:1022C000116070477047C0464EF2000340F2FE3284
:1022D0005C49C4F2010370B599524CF2000240F21D
:1022E00000110020C4F20102505240F2DC1446F604
:1022F0000042C2F20004C0F2DC22226041F200225D
:10230000C0F27A02626048F2000241F60031A26037
:1023100022612622C0F2B701E160995C1A6A890045
:1023200061585201520F42F62C05D140C2F200050D
:10233000296040F2134200219954A22209219954A4
:1023400040F280429A5C32B940F281429B5C9B072A
:10235000002B00D171E04EF2000640F28043C4F23F
:102360000106F25C002A5CD04EF20003002240F22B
:102370008141C4F201035A5401395A544EF2000209
:10238000A023C4F20102D35CCBB13623D35C1BB9CA
:102390003C21535CDB07FCD54EF20002A021C4F2C5
:1023A0000102535CDB06D80F002BFADB50544EF2CF
:1023B0000002A021C4F20102535CDB06FCD44EF201
:1023C000000200213623C4F20102D1543C31535C97
:1023D000DB07FCD501203123D054D033C1F20003F8
:1023E000136200212623D154D15C136A89006158FD
:1023F0005B015B0FD94040F2FE3329601249D15294
:102400004CF2000240F2041340F20411C4F2010243
:10241000D052535A002BFCD101210133FF33D1524A
:1024200070BD0132F2540121C82000F04BF840F297
:102430008042B35C012BFCD196E740F2E830FFF715
:1024400041FF9BE703A5FFFF00A5FFFF70B544F226
:10245000000428230025C4F20404E5540121C82007
:1024600000F030F824232422E554A35C002BFCD197
:102470000221A35C24200B43A35444F20002C4F2C3
:102480000402135C9B07D90F002BFADB2223D154E3
:1024900044F200022221C4F20402535C002BFCD15E
:1024A00070BDC04628B10023C0F202530360002073
:1024B00070470120FCE7C04600BEFEE70138002857
:1024C000FCD1704742F62C024CF600234143C2F285
:1024D000000270B51468C3F69A330D00B3FBF4F430
:1024E000080040F2E8320023002100F013FA31B96D
:1024F000B0FBF4F0800808B1FFF7E0FF70BDA0006A
:10250000B5FBF0F040F2E8320023002100F002FABF
:102510000029F0D001204042FFF7D0FFEEE7C0468F
:10252000F8B546F2000340F2201242F25C75002436
:102530000127C4F200039E5A20329B5AC2F20005C2
:102540001E403300E3401F4203D02B680BB1E0B2C2
:10255000984701340435102CF3D146F2000340F2C1
:102560003012C4F200039E52F8BDC04646F200038A
:10257000C0308000C4F20003C25802490A40C25071
:10258000C3587047FFFFFEFF030046F2000210B57C
:10259000C033C4F200029B009958094C2140995065
:1025A0009B58BFF35F8F1F21012201408A404EF2EA
:1025B000001143096033CEF200019B005A5010BD58
:1025C000FFFFFEFF1F21012201408A404EF2001151
:1025D00043092033CEF200019B005A50BFF34F8FC6
:1025E000BFF36F8F7047C046F0B5C64690464EF2B7
:1025F0000012FF240325CEF200029446220040F28E
:1026000000370540ED008901AA400C40AC4083082A
:102610009B006344DE5900B596432643DE5142F2E7
:10262000A07342468100C2F200035A50030046F2F2
:102630000002C033C4F200029B0099580C4C2140A8
:1026400099509B58BFF35F8F1F2201230240934094
:102650004EF20012CEF20002944640F2801240097F
:10266000800060448350036080BCB846F0BDC04623
:10267000FFFFFEFF46F200000023C4F2000047F215
:10268000C812C0F200029A1812781AB11900C031AB
:1026900089000A500133202BF1D1704730B5EFF398
:1026A0001081012383F3108842F620034000C2F218
:1026B00000031A5A1AB11A5A013A92B21A521B5A04
:1026C00083B94EF2000247F2582340F2FE34C4F2BE
:1026D0000102C0F20003155B185A044B2B438343DD
:1026E0009BB2135381F3108830BDC04600A5FFFF95
:1026F00070B5EFF31081012383F3108842F62002B6
:102700004000C2F20002135A83B94EF2000447F2AD
:10271000582540F2FE36C4F20104C0F20005A35B66
:102720002D5A2B434AF200552B43A353135A01331E
:102730009BB2135281F3108870BDC04642F6280246
:10274000C2F200020300106810B558B10321033330
:102750008B4342F62861C318C2F200018B4207D8AE
:10276000136010BD42F62820C2F200001060EDE7B1
:1027700000F0A0FD0C23036001204042F1E7C046B9
:1027800000BE704710B500F003F8FEF707FCFEE747
:10279000F0B54EF6005340F20005CEF20003C0F251
:1027A000000583B09D600020FEF7E0FBFFF78CFD85
:1027B0006B460027DC1D277001202378FFF798FF68
:1027C000EFF31081012686F3108846F6FC73C4F2FD
:1027D00004039A683C4802409A609A6881F3108822
:1027E00040F60001C4F204010A68D207D20F227039
:1027F0000A68D207D20F22700A68D207D20F22705D
:10280000EFF3108186F31088802298685205024306
:102810009A609B6881F310880120FFF73FFF012039
:10282000FEF7A4FB40F60053284AC4F200039F8041
:1028300027491A802A6841F2000051189960DA602D
:1028400046F2000240F22011C4F20002505242F659
:10285000282240F2F010C2F20002C2F200009E8074
:102860000021121A00F0D4FC40F2000040F2DC1209
:1028700047F2C851C2F20000C2F20002121AC0F2BE
:10288000000100F020FD40F2D41540F2D813C2F24E
:102890000005C2F200035B1B9E10002B05DD002427
:1028A00008CD01349847A642FADCFFF7F5FCFFF7A4
:1028B000CDFD0220FEF75AFBFFF7DCFE002000F002
:1028C00009F803B0F0BDC046FFFFFFEF00A5FFFF12
:1028D00000B0FFFF7047C0461C2101231B04984233
:1028E00001D3000C10391B0A984201D3000A0839A1
:1028F0001B09984201D30009043902A2105C401858
:102900007047C046040302020101010100000000FB
:1029100000000000F0B54FF6FF750400CE462C40D5
:10292000474615400E002900994680B5130C070054
:10293000000C61434543584363430C0C5B19E41896
:102940008C46A54203D980235B0298464044230C61
:1029500061461B184FF6FF700840494656437943BD
:10296000240489192018C918C0BCB946B046F0BD66
:10297000F0B51F00002316008BB09F4204DA8021BF
:1029800009067B181F002D23129A149D1370202313
:1029900003229D43462D07D02B00453B59424B4116
:1029A0001099013ACB18109309AB049308AB039329
:1029B000139B00920293109B320001933B0000F0A6
:1029C00019FD0400472D1AD1119BDB0710D5109B70
:1029D000C3180793002200233000390002F080F86A
:1029E00008B1079B09933022099B07998B421FD39B
:1029F0002000099B159A1B1B13600BB0F0BD109BA8
:102A0000C3180793462DE5D10378302B0BD1002254
:102A100000233000390002F063F820B90123109A36
:102A20009B1A139A1360139B079A1B68D318D0E75D
:102A3000591C09911A70D7E7F7B52B2302700029AA
:102A400001DA494202334370092926DD6B46DA1D5B
:102A500015000A2791FBF7F63B007343CB1A30337E
:102A60001400013A13700B003100632BF2DCA61E38
:102A70003031831C317032001900954208D8002291
:102A8000B54202D309326A44121B9B18181AFEBDC4
:102A9000177801320F700131EFE730233031837046
:102AA000C170031DF2E7FFFFF0B597B00D000A9269
:102AB0001C9C0B93099000F0B3FB036818000D9366
:102AC00000F00AFC00230F9014932B7E07220C9336
:102AD0002B680E930E992368C90542D59B18934322
:102AE0001A000832226001221E685F687B005B08C2
:102AF00011931096AE64EF6410981199A54B524251
:102B000003F0A6FE00282ED1109811990122A14BA6
:102B1000524201F0F5FF30BB0022002330003900A3
:102B200001F0E4FF18B12B002D2243331A700C9BE7
:102B3000472B2AD8984F032300240E9A2B61013388
:102B40009A432A600B9B2900009309980A9B15AAB7
:102B500000F0E2F9013000D09EE00120404217B0C1
:102B6000F0BD0733BBE732003B003000390003F013
:102B70006FFE70B1002F03DA2B002D2243331A7041
:102B80000C9B472B03D8854FD5E7854FD3E7854F5F
:102B9000D1E720220C9C6B6894435A1C46D1073322
:102BA0006B6040F200430E9A0AA9134300222B6087
:102BB000069214AA05920C9A0193049213AA039206
:102BC0002322521802926B683200009309983B004E
:102BD000FFF7CEFE139A0700472C2DD1D31C02DB42
:102BE0006B689A4245DD0C9B023BDBB20C932800DC
:102BF00013990C9A013950301391FFF71DFF149A65
:102C0000040013182B61012A02DC2A68D20701D5BF
:102C100001332B6123230AAA9B181B78002B00D1B8
:102C200090E72B002D2243331A708BE7472CB8D145
:102C3000002BB6D10133B3E70C9B652BD7D90C9B86
:102C4000662B18D16B68002A08DD2A6113B9296840
:102C5000C9070AD501339B182B6106E01BB9012275
:102C60002968114200D09A1C2A61139B0024AB658D
:102C7000D0E767230C931399149B994206DB2B68CA
:102C80002961DB07F1D501312961EEE70122002935
:102C9000E1DC9218521ADEE72A68530508D42B6942
:102CA0003A000A9909980B9CA047013028D154E7B3
:102CB0000C9B652B00D8DAE0A86CE96C002200239D
:102CC00001F00EFF98B30123374A0A9909980B9C2B
:102CD000A047013000D140E7149E139BB34202DBB2
:102CE0002B68DB070CD50B9C0F9B0D9A0A99099852
:102CF000A0470024013000D12FE7731EA3420ADC55
:102D00002B689B0700D505E1159BE868984200DB1E
:102D100025E7180023E72A0001230A9909980B9F49
:102D20001A32B847013000D117E70134E5E7139BA9
:102D3000002B3BDC01231C4A0A9909980B9CA047F5
:102D4000013000D109E7149E139B334313B92B685C
:102D5000DB07D5D50F9B0D9A0A9909980B9CA047C4
:102D60000023013000D1F8E60C93139B0C9A5B42D0
:102D7000934201DC330093E72A0001230A99099862
:102D80000B9C1A32A047013000D1E6E60C9B0133C0
:102D9000EAE7C046FFFFEF7F607200006872000044
:102DA000647200006C72000070720000149BAE6DC3
:102DB0000C939E4200DD1E00002E31DCF343002404
:102DC000DB1733400E93AE6D0E9BF31AA34230DC3B
:102DD000139B0C9A9A4238DC2B68DB0735D4139C82
:102DE0000C9B0C9A9B1B141B9C4200DD1C00002CAE
:102DF00034DCE3430026DB171C40139B0C9AD31AE8
:102E00001B1BB34200DC7BE72A0001230A990998C7
:102E10000B9F1A32B847013000D19EE60136ECE72D
:102E200033003A000A9909980B9CA0470130C5D19C
:102E300093E62A0001230A9909980B9E1A32B0479B
:102E4000013000D189E60134BDE70F9B0D9A0A9944
:102E500009980B9CA0470130C1D17EE6BA19230026
:102E60000A9909980B9EB0470130C2D175E6149BB0
:102E70000C93012B02DC01231A4238D001233A00C3
:102E80000A9909980B9EB047013000D165E60F9B67
:102E90000D9A0A9909980B9EB047013000D15CE663
:102EA000A86CE96C0C9B0022013B0C93002301F001
:102EB00017FED0B90C9B7A1C0A9909980B9EB04753
:102EC00001300ED149E62A0001230A9909980B9F87
:102ED0001A32B847013000D13FE601360C9B9E42C2
:102EE000F1DB2A0023005032DBE60026F6E73A0049
:102EF000E2E72A0001230A9909980B9E1932B0478C
:102F0000013000D129E60134EB68159A9B1AA342DF
:102F1000EFDCF9E60024F7E7F7B5160001938A68BD
:102F20000B690C000090934200DA1300220033601A
:102F3000433212780AB10133336023689B0602D50D
:102F40003368023333602268062315001D401A429D
:102F500027D0230043331B785A1E934122689206E0
:102F600030D4220001990098089D4332A8470130CF
:102F700025D00622236800251340042B05D1336891
:102F8000E568ED1AEB43DB171D40A3682269934205
:102F900001DD9B1AED180026B54220D1002010E07B
:102FA0000135E36832689B1AAB42D2DD220001236F
:102FB00001990098089F1932B8470130F0D10120DB
:102FC0004042FEBD3020E1184331087021005A1CF8
:102FD00045310978A218433202331170C1E722004B
:102FE000012301990098089F1A32B8470130E6D0B2
:102FF0000136D1E7002310B504000360436083600D
:1030000081814366C28103614361836119000822A3
:103010005C3000F0FDF80B4B246263620A4BA36244
:103020000A4BE3620A4B23630A4B9C4205D00A4BCE
:103030009C4202D0094B9C4203D12000583000F042
:103040003FF910BD79310000A1310000D9310000F5
:103050000532000030280020982800200029002098
:1030600010B5034A0349044800F06AF810BDC04691
:1030700004000020AD4900001400002041680B4B03
:1030800010B50400994201D001F090FCA168084BF2
:10309000994202D0200001F089FCE168054B994279
:1030A00002D0200001F082FC10BDC0463028002074
:1030B000982800200029002010B5094B094A042156
:1030C0001A6009480022FFF795FF012209210748ED
:1030D000FFF790FF022212210548FFF78BFF10BD7A
:1030E0006829002061300000302800209828002046
:1030F0000029002010B5024800F0E3F810BDC046DA
:103100007129002010B5024800F0DCF810BDC0465F
:103110007129002010B50400FFF7ECFF236A13B1FA
:10312000FFF7F0FF10BD044B2362044B1B68002B1C
:10313000F6D1FFF7C1FFF3E77D30000068290020DA
:10314000F7B51400002600900191A5686768013F5B
:1031500004D52468002CF8D13000FEBDAB89012BCA
:1031600008D90E22AB5E013304D029000098019BE0
:10317000984706436835EAE770B50C000E25495FAD
:1031800000F074F8002803DB636D1B18636570BDE5
:10319000A389024A1340A381F9E7C046FFEFFFFF6E
:1031A000F8B51F008B8905000C001600DB0505D55E
:1031B0000E23C95E0022022300F046F8A389054AC7
:1031C00028001340A38132000E23E15E3B0000F093
:1031D0005FF8F8BDFFEFFFFF70B50C000E25495FEB
:1031E00000F032F8A389421C03D1054A1340A381A1
:1031F00070BD41F200021343A3816065F8E7C04649
:10320000FFEFFFFF10B50E23C95E00F00DF810BDF3
:1032100003008218934200D1704719700133F9E717
:103220000048704750010020002370B5054D040090
:1032300008002B6003F080FC431C02D12B6803B113
:10324000236070BD6C29002070B5040008001100D7
:103250001A000023044D2B6003F02FFC431C02D105
:103260002B6803B1236070BD6C29002070B5040089
:10327000080011001A000023044D2B6003F0C8FB66
:10328000431C02D12B6803B1236070BD6C29002060
:1032900070B50400080011001A000023044D2B60D3
:1032A00003F01FFC431C02D12B6803B1236070BDE7
:1032B0006C290020014B18687047C04610000020A0
:1032C000704770477047002310B59A4200D110BD77
:1032D000CC5CC4540133F8E70023C25C0133002AFC
:1032E000FBD1581E7047F0B503690C69050089B021
:1032F0000020A3426ADB0B00013C1433A0000493BE
:103300001B1805932B00143318180193059B0268B2
:103310001B680133B2FBF3F602969A422FD3019B4E
:10332000049F9C4600230393079308CF029A9EB202
:103330005643039A1B0CB618029A5343320C9B183F
:103340001A0C039262461268B6B206926A46128B53
:103350009BB2921B079E9219069E360CF31A161406
:103360009E1933140793634692B23604324304C362
:103370009C46059BBB42D8D20368002B2BD028006B
:1033800001F084F9002820DB0027019E04993368AE
:1033900001C903936B469B8982B29A1A039BD21987
:1033A000000C1B0C1B1A10141B181F1492B21B04C8
:1033B0001A43059B04C68B42E9D2019AA300D31895
:1033C0001A688AB1029B01330293029809B0F0BDDA
:1033D000036823B9013C019B04388342F8D32C6174
:1033E000CDE71A6822B9013C019A043B9A42F8D30E
:1033F0002C61E7E7F0B514001D00C6699DB00A9482
:103400000B95259F03907EB9102000F011FE039BC1
:103410000200D86120B9EF21BF4BC048FFF74CF83C
:10342000466086600660C660039BDB69196859B117
:103430005A68012393404A608B60039800F0F4FEC1
:103440000022039BDB691A60002D19DA01233B601F
:103450006B005B080B930B9FB14BB14A3B4093420F
:103460001DD142F20F73249A13603B031B0B2343BD
:10347000002B01D100F069FD269B63B9A94B23E025
:1034800000233B60E7E7A84B0893A84B269A1360FC
:1034900008981DB0F0BDA34B0893A54BF6E70A9A18
:1034A0000B9B12921393129813990022002301F0A0
:1034B00017FB060050B10123249A1360269B13B119
:1034C0009C4B269A13609C4B0893E1E71AAB01933F
:1034D0001BAB00930398129A139B01F089F97A00B1
:1034E000520D0590002A79D0139B18961903934B1F
:1034F000090B0B439249571812981399190000228F
:10350000904B02F0D3FD904A904B02F0F5FA904AAE
:10351000904B01F013FB040038000D0003F0ECF9B0
:103520008D4A8E4B02F0E8FA02000B0020002900C1
:1035300001F004FB04000D0003F0A6F90022049042
:1035400000232000290001F0D1FA58B1049803F0BB
:10355000D3F92B00220001F0C3FA43425841049BE7
:103560001B1A049301231593049B162B0FD8129852
:1035700013997B4ADB009B181A685B6801F0B6FA66
:10358000002849D0049B013B04930023159300229B
:103590001A9B0992DB1B5A1E40D50122D31A0993AC
:1035A00000230E93049B002B3ADB049A0E9B944657
:1035B00063440E93002314920F93229B0124092B42
:1035C00062D8052B02DD0024043B2293229B981E27
:1035D000032863D801F06AFA54563A2D1B9B1A9EB1
:1035E000F61840F23243F218202A10DD40239B1ACD
:1035F0009F4040F21243F318DC403800204303F0B0
:10360000A7F90122574B771ECB18189276E7202393
:1036100020009B1A9840F2E71590B8E70E92C1E798
:10362000099B049A9B1A099353420F930023149306
:10363000C3E70123239A10939446049B63440693A3
:1036400001330C93002B08DC012306E001231093C7
:10365000239B002B26DD06930C93039A0021D0694F
:103660000422150014359D4221D94160039800F0D1
:103670009BFD0890F0B9020040F2AF113A4BCCE646
:103680000023E4E70023D5E7002310942293013BB5
:10369000002206930C9313332392DEE70123109349
:1036A000023BF5E701231A0006930C93F4E701317E
:1036B0005200D6E7039B089ADB691A600C9B0E2B1D
:1036C00000D9D1E0002C00D1CEE0049B002B60DDBE
:1036D0000F2223491340DB005B181E685F68049BC0
:1036E00002241D11DB050AD5129813991F4B1540B2
:1036F0001A6A5B6A01F0A4FD0A900B9101341B4B1E
:103700000D93ADBB0A980B9932003B0001F098FD78
:103710000A900B9157E0C0467F720000967200003D
:103720000000F07F7B720000727200007A7200006D
:103730007E72000071720000707200000000F03FA5
:1037400001FCFFFF0000F83F61436F63A787D23F92
:10375000B3C8608B288AC63FFB799F501344D33F80
:10376000B8730000000010FEEF72000090730000BC
:1037700001231D4209D0E4180D9B30001A685B68D4
:10378000390002F0B9F906000F000D9B6D100833E7
:10379000B6E7049B0224B3B1129813995D420F233C
:1037A000D34A2B40DB009B181A685B6802F0A4F92F
:1037B000012700230A900B91CE4E2D11002D00D031
:1037C00093E0002BA4D10A9E0B9F159B002B00D1E8
:1037D00096E0002230003900C74B01F087F900283D
:1037E00000D18DE00C9B002B00D189E0069B002BC3
:1037F00036DD049B0022013B0D933000BF4B3900A6
:1038000002F07AF90A900B91069B01342000119383
:1038100003F072F80A9A0B9B02F06EF9B84B002283
:1038200001F08CF9B74B0600CF18119B002B6BD120
:103830000A980B990022B44B02F038FC32003B008E
:1038400004000D0001F066F9002800D0A8E28021F4
:1038500009067B1832002000290001F047F940BB1F
:10386000129B139C0A930B941B9B002B00DA71E1B3
:10387000049A0E2A00DD6DE1D3009D4A9B185C6816
:103880001B6806930794239B002B00DBE6E00C9B50
:10389000002B00DDE2E063B90698079900229A4BFD
:1038A00002F02AF90A9A0B9B01F03EF9002800D198
:1038B00079E200263700239B089CDB430D93049795
:1038C00000273100039800F0AFFC049B002B00D1CF
:1038D000BAE02FB19F4203D03900039800F0A4FC56
:1038E0000499039800F0A0FCAEE03D4205D0326898
:1038F000736802F001F93B0001346D1008365DE792
:10390000049B0D930C9B81E7119B794A013BDB00E3
:1039100010999B181A685B6800294CD000207B49DD
:1039200001F08EFC32003B0002F0C0FB089A06005A
:1039300094460F00089B1693119B634411930A98B9
:103940000B9902F0A1FF050002F0D6FF02000B0068
:103950000A980B9902F0AAFB169B30355C1C1D706F
:1039600032003B000A900B9101F0C0F800286BD1A7
:103970000A9A0B9B0020604902F098FB32003B0042
:1039800001F0B4F8002800D0C4E0119BA34200D19C
:1039900066E7002230003900584B02F0ADF80022F3
:1039A00006000F000A980B99544B02F0A5F81694E4
:1039B0000A900B91C3E73000390002F09DF8089D92
:1039C000119A2B00944616901791634419930A9804
:1039D0000B9902F059FF040002F08EFF0B00020069
:1039E0000A980B9902F062FB3034199B2C70013558
:1039F00006000F00AB422AD116981799089B119C1C
:103A00009C460022414B644401F098F802000B00F0
:103A10003000390001F07EF8002800D07AE0169AD4
:103A2000179B0020394902F041FB02000B003000D7
:103A3000390001F05BF8002800D111E72300013CB8
:103A40002278302AFAD01C000D9B049340E000221B
:103A50002A4B02F051F80A900B91B8E70C9B089D95
:103A6000013B5B190C930A9E0B9F069A079B300043
:103A7000390001F0E5FB02F007FF099002F03CFF7E
:103A8000069A079B02F038F802000B00300039005C
:103A900002F00CFB2B00099A013530321A700C9A97
:103AA0002C009A4249D102000B0001F047F8069A17
:103AB000079B06000F0001F02DF848BB069A079BF4
:103AC0003000390001F00CF810B1099BDD071FD45C
:103AD0000599039800F0A8FB00232370049B249A07
:103AE00001331360269B002B00D1D1E41C60CFE48E
:103AF000B8730000907300000000F03F0000244005
:103B000000001C400000C0FC000014400000E03F2A
:103B1000049B0D9323001C00013B1A78392A08D11D
:103B2000089A9A42F7D10D9A089901320D923022E3
:103B30000A701A7801321A7086E70022C04B01F031
:103B4000DBFF0022002306000F0000F0C9FF002861
:103B50008BD0BDE7109F0F9D099CAFB1229A012A1F
:103B600000DDDDE0189A002A00D1D3E040F23342B4
:103B70009B18099A0121D21809920E9A0398D3181A
:103B80000E9300F003FC070074B10E9B002B0BDDBD
:103B90000E9A2300944200DD1300099AE41AD21A07
:103BA00009920E9AD31A0E930F9BF3B1109B002B20
:103BB00000D1CDE085B139002A00039800F0A4FCC3
:103BC000059A01000700039800F0F6FB060005992E
:103BD000039800F029FB05960F9B5A1BAB4204D0BB
:103BE0000599039800F090FC05900121039800F0DE
:103BF000CDFB149B0600002B00D1AEE11A000100A2
:103C0000039800F081FC229B06000025012B13DCA9
:103C10000A9B00256BB90B9B1B0353B9894B0B9A6D
:103C2000134206D0099B0135013309930E9B0133E2
:103C30000E93149B012043B1336903339B00F318A7
:103C4000586800F055FB2023181A0E9B1818020024
:103C50001F231A40184200D180E001339B1A042B25
:103C600078DD1C239B1A099AE418D21809920E9A3F
:103C7000D3180E93099B002B05DD1A0005990398B4
:103C800000F09AFC05900E9B002B05DD31001A0018
:103C9000039800F091FC0600159B002B60D03100CA
:103CA000059800F0F3FC00285ADA049B0A22013B35
:103CB0000D9305990023039800F0D8FA109B059006
:103CC000002B00D150E1002339000A22039800F0B4
:103CD000CDFA069B0700002B4CDC229B022B45DD16
:103CE000069B002B00D0E6E531000522039800F08A
:103CF000BDFA06000100059800F0C8FC002800DCB1
:103D0000D9E5089B089A5C1C312313700D9B013385
:103D10000D93D4E536231A9A0F9D9B1A099C28E728
:103D20000C9B5D1E0F9BAB4208DB5D1B0C9B002BAD
:103D3000F4DA099B0C9A9C1A00231AE70F9B149A39
:103D4000EB1AD31814930F95099C00250C9B10E7D0
:103D50000F9A45E7042B8DD01C3384E71300FBE753
:103D6000049B0D930C9B0693002BB6DD109B002B40
:103D700000D1FDE0002C05DD39002200039800F0A1
:103D80001BFC0700049705B37968039800F00CFA50
:103D9000040060B9020040F2EF212B4BFFF73DFB1E
:103DA000119E3700ADE7049B0C9E0D93F9E7390097
:103DB0003A690C31023292000C30FFF784FA01228A
:103DC0002100039800F0F8FB0490089B069A0993E1
:103DD000013B9B1801220F930A9B13400E93310065
:103DE0000598FFF780FA390005000C90059800F05F
:103DF0004DFC049A0A903100039800F063FC012204
:103E0000C36804003035069223B90100059800F01C
:103E10003DFC06902100039800F006FA099B229AC7
:103E20005C1C069B13430E9A13437BB9392D29D092
:103E30000A9B002B01DD0C9D3135099B1D7040E56F
:103E4000000024400000F07FEF7200000A9B002B6E
:103E500004DB229A13430E9A1343FBB9069B002BF3
:103E6000EBDD05990122039800F0A6FB31000590D7
:103E700000F00CFC002803DC0028DED1EB07DCD5C9
:103E8000392DD8D13923099A137023001C00013B26
:103E90001A78392A50D001321A7012E5069B002B8D
:103EA00003DD392DEED00135C7E7099B099A1D7056
:103EB0000F9B93422BD000230A220599039800F010
:103EC000D5F9049B05909F4209D1390000230A22AD
:103ED000039800F0CBF90700049009947FE73900BC
:103EE00000230A22039800F0C1F9002307000A22E8
:103EF0000499039800F0BAF90490EEE7069B0124B8
:103F0000002B00DD1C0004970027089B1C19059955
:103F10000122039800F050FB3100059000F0B6FB41
:103F20000028B2DC08B9ED07AFD423001C00013B28
:103F30001A78302AFAD0C4E4089A9A42A6D10D9B86
:103F400001330D9331231370BBE4269B002B01D06A
:103F5000FFF799FA114BFFF7B7FA229B012B00DC10
:103F600056E60120149D70E6069B002B00DCB4E6AB
:103F7000002431000598FFF7B6F9089B303018553A
:103F8000069B01340500A342B8DD00230A220599EF
:103F9000039800F06BF90590EBE7C04672720000E1
:103FA00070B505000C0079B1043C2368002B00DAE1
:103FB000E418280000F0E8F81C4A13682BB9636085
:103FC0001460280000F0E8F870BDA34208D920680A
:103FD00021188B42F3D119685B6809182160EEE75C
:103FE0001A005B680BB1A342FAD911685018A042BD
:103FF0000BD120680918501811608342E1D118686C
:104000005B68411811605360DBE7A04202D90C23C2
:104010002B60D6E7206821188B4203D119685B68B2
:104020000918216063605460CBE7C04678290020FE
:1040300010B5034B0100186800F026F810BDC0460B
:104040001000002070B50F4E0D003168040011B94A
:1040500000F0D4FC30602900200000F0CFFC431CAD
:1040600003D101256D42280070BD0323C51C9D436B
:10407000A842F8D0291A200000F0C0FC0130F2D18B
:10408000EFE7C04674290020F7B50322CB1C934309
:10409000083305001F000C2B34D20C27B94233D84B
:1040A000384E280000F070F833681C00002C2FD127
:1040B00039002800FFF7C6FF0400431C5FD13468B5
:1040C0000094009B002B4AD1002C52D0236828007A
:1040D000E3180099019300F091FC019B834248D1C1
:1040E00023682800FF1A3900FFF7ACFF013040D0E9
:1040F0002368DB19236033685A68002A33D1009B98
:10410000336019E0002BC9DA0C232B600020FEBDC0
:104110002168C91B20D40B290AD9E2192760A342C0
:1041200004D1326063681160536005E05A60F9E7BA
:104130006268A3420ED13260280000F02DF8200002
:1041400007220B30231D9043C21A9842DFD01B1A5E
:10415000A350DCE75A60EFE723006468A6E7009C01
:1041600063680093ADE71A005B68A342FBD10023AC
:10417000DAE70C2328002B6000F00EF8C6E7076092
:10418000DAE7C0467829002010B50248FFF799F811
:1041900010BDC0467029002010B50248FFF792F804
:1041A00010BDC0467029002070B5C56906000C001E
:1041B00075B91020FFF73CFF0200F06120B96B21B8
:1041C000174B1848FEF778F9456085600560C560B3
:1041D000F569EB688BB1F369A200DB689B1818687E
:1041E000B8B901210D00A5406A1D3000920000F011
:1041F00015FC60B1446085600DE02122042130008F
:1042000000F00CFCF369E860DB68002BE3D10020D0
:1042100070BD02681A6000230361C360F8E7C046FE
:104220007F7200000073000070B5C66905000C00C5
:1042300076B91020FFF7FCFE0200E86120B98F215B
:10424000084B0948FEF738F9466086600660C6608C
:104250003CB1EB696268DB6892009B181A682260C7
:104260001C6070BD7F72000000730000F7B50F0086
:1042700001900C001E0000200D6914373B680130CE
:1042800099B251431B0C534389190E0C9B191E0CF8
:1042900089B21B045B1808C78542EFDC16B3A3681C
:1042A000AB4219DC616801980131FFF77DFF07001F
:1042B00028B90200BA210C4B0C48FEF7FDF821008A
:1042C00022690C31023292000C30FEF7FCFF210013
:1042D0000198FFF7A9FF3C002B1D9B00E318013557
:1042E0005E6025612000FEBDEF72000000730000DB
:1042F0004FF6FF7203000020934201D81B041030D8
:1043000080225204934201D208301B0280225205BF
:10431000934201D204301B018022D205934201D284
:1043200002309B00002B03DB0130134200D1202020
:1043300070470368010007221800104013420DD097
:10434000063A0020134205D10230034203D0D34085
:1043500010000B6070479B080B60FBE79AB20AB92C
:1043600010201B0CDAB20AB908301B0A1A0701D157
:1043700004301B099A0701D102309B08DA07EBD4FD
:104380005B080130002BE7D12020E3E710B50C00DB
:104390000121FFF709FF30B9020040F24511044B3B
:1043A0000448FEF789F801234461036110BDC0464B
:1043B000EF72000000730000F0B514000A69236971
:1043C0000D0089B09A4202DB23000C001D00276912
:1043D0002E696168BB190093A368BA19934200DA89
:1043E0000131FFF7E1FE844630B9020040F262116C
:1043F000434B4448FEF760F80200BB1914329B009F
:10440000D3180193002113000198834228D323007D
:10441000BF00143304931435DB19B6000293AB19B3
:10442000079304230593230002991533994205D37A
:104430000C1B153CA4080134A3000593079B9D4267
:1044400010D3009B002B05DD019B043B01931B68EF
:10445000002B51D063466046009A1A6109B0F0BD46
:1044600002C3D1E72C68A4B2FCB100231700049E5C
:10447000039308CE396806936B461B8B88B263435F
:104480001B180398090C1B180698000C6043401871
:10449000190C4118080C9BB209041943029B0390A4
:1044A00002C7B342E5D8059BD0502C68240C04B356
:1044B000002110001368049E03913168076889B2D7
:1044C00061433F0CC919039F9BB2C9190F041F43D5
:1044D000076080CE43683F0C67439BB2090CFB1812
:1044E0005B18190C039102990430B142E5D8059983
:1044F000535004350432A1E7009B013B0093A0E731
:10450000EF72000000730000F7B5032315000700E9
:104510000E001A401D4208D02449013A9200525818
:1045200000233100FFF7A2FE0600AD10DDB3FC69E9
:104530007CB91020FFF77CFD0200F86128B940F239
:10454000B3111B4B1B48FDF7B7FF44608460046048
:10455000C460FB699C6801934CB940F2712138003A
:10456000FFF714FF019B0400986000230360012300
:104570001D420AD0310022003800FFF71DFF310034
:1045800001903800FFF750FE019E6D105DB120686C
:1045900038B9220021003800FFF70EFF0023206009
:1045A00003600400E3E73000FEBDC04680730000F6
:1045B0007F72000000730000F0B50C001600236944
:1045C000571185B0FB180193013300934968A36824
:1045D0000290009A93420FDB0298FFF7E5FD00235B
:1045E000010005001A00143160B9020040F2DE112A
:1045F000244B2548FDF760FF01315B00E9E7980097
:104600000A500133BB42FADBFB43DB171F40BF00FC
:1046100023001F20C91937002269143392009A1809
:104620000740064228D00130C01B03908C46002072
:104630001E68BE400643604640C08446039E01CBD0
:10464000F0409A42F4D8260015360423B24204D32F
:10465000131B153B9B0801339B00C85010B1019BF5
:1046600002330093009B0298013B21002B61FFF76E
:10467000DBFD280005B0F0BD01CB01C19A42FBD89B
:10468000F0E7C046EF7200000073000030B50B6920
:1046900004690200E01A9C420FD114329B001431CD
:1046A0001400C918D218043A043915680B689D42E1
:1046B00004D001209D4200D2023830BD9442F2D392
:1046C000FBE7FFFFF0B50C0087B000901100200061
:1046D0001700FFF7DBFF050088B901000098FFF71E
:1046E00063FD020028B940F237213F4B3F48FDF7F8
:1046F000E3FE012345610361100007B0F0BD002611
:10470000B04203DA23003C001F00013661680098C4
:10471000FFF74AFD020018B940F24521324BE5E7A8
:104720002369143400939B00E318210001943C009A
:1047300002933B6914349B00E31803930300C660A3
:104740008C460020143304930593634620CBA9B212
:104750000E009C4608CC2D0C99B2711A09181B0C3E
:104760000814EB1A1B18181489B21B041943059B73
:1047700002C30593039BA342E7D83900039C15317C
:1047800004238C4204D3E31B153B9B0801339B009D
:104790000199CD1804992E00CB181F0002998E4262
:1047A00010D3029CE91E00208C4204D32100033167
:1047B000491B890888001B18043B196881B1009BBC
:1047C000136199E7844602CE88B2604400140C0C51
:1047D00004196144201489B22404214302C7DDE78F
:1047E000009901390091E7E7EF72000000730000C3
:1047F000F7B5012116001F00FFF7D6FC040030B901
:10480000020040F20F31234B2348FDF755FE7D0097
:104810003B036D0D1B0B15B1802252031343019313
:104820001EB368460096FFF784FD019B0099D0B146
:1048300020221E00121A96403200C3400A436261D1
:104840000193019EA661731E9E4101362661A5B1AA
:104850003526124BED18089B2D181D60099B361A42
:104860001E602000FEBD6161EBE701A8FFF761FD5E
:10487000019B012663612030E8E7094BC018089BC3
:104880001860084BF3189B00E3185869FFF730FDD8
:104890007601E3E7EF72000000730000CDFBFFFF3D
:1048A000CEFBFFFFFFFFFF3FF7B50C228B5E05003D
:1048B0000C001A0753D44A68002A02DC0A6C002A4A
:1048C0004BDDE76A002F48D0002241F200002E683D
:1048D0002A601A00216A0240034230D0626DA38927
:1048E0005B0705D56368D21A636B0BB1236CD21AD0
:1048F00000232800E76A216AB847A289431C06D131
:1049000029681D2944D8284BCB40DB0740D500231C
:10491000636023692360D20404D5431C01D12B6852
:1049200003B96065616B2E60B9B1230044339942CD
:1049300002D02800FFF734FB002363630DE001235E
:104940002800B8470200431CC9D12B68002BC6D0F1
:104950001D2B01D0162B1AD12E6000201EE00E69EF
:10496000002EFAD00F680E60BA1B019200229B073E
:1049700000D14A69A260019B002BEEDDA36A3200E0
:104980001F002800019B216AB847002807DCA28984
:104990004023012013431BB2A3814042FEBD019B73
:1049A00036181B1A0193E6E7010040200B6970B529
:1049B00005000C0013B90025280070BD18B1036A6A
:1049C0000BB9FEF7A7FB0C22A35E002BF3D0626E9F
:1049D000D20704D49B0502D4A06DFEF772FC280018
:1049E0002100FFF761FF636E0500DB07E4D4A389B4
:1049F0009B05E1D4A06DFEF765FCDDE7002370B5F3
:104A0000054D040008002B60FDF798FE431C02D101
:104A10002B6803B1236070BD6C2900200B0C70B5AE
:104A2000150CEBB965B989B294B24C432100FFF77C
:104A30002BFB0500D0B122000021FEF7E9FB15E0B9
:104A40002B1C0C1C89B292B24A439BB2A1B25943AF
:104A5000140C0C19230C33B9240492B21443E5E767
:104A60000DB9141CEEE70C2300250360280070BD6F
:104A700082B001B901A910002AB133B113780B60DB
:104A80001078431E984102B0704702204042FAE776
:104A90000300080029B1FF2A04D98A2201201A60E4
:104AA0004042704701200A70FBE7FFFF02B47146E5
:104AB00049084900095C49008E4402BC7047C04661
:104AC0008446100062468C461900634600E0C046EA
:104AD0001FB500F0A3FF002801D40021C8421FBD6C
:104AE00010B500F0E9FE4042013010BD10B500F0F5
:104AF00095FF002801DB002010BD012010BDC0463D
:104B000010B500F08BFF002801DD002010BD012052
:104B100010BDC04610B500F013FF002801DC0020D6
:104B200010BD012010BDC04610B500F009FF0028DF
:104B300001DA002010BD012010BDC046F0B5CE4600
:104B4000474680B50D0383B0009201934E00C30029
:104B5000CC0F690A450F0D439946009A019B190332
:104B60005F00D80F530F009A490A760D7F0D0B4353
:104B7000AC46D200F11B844200D1BBE0002900DC2E
:104B800082E0002F00D1F9E040F2FF70864200D1B0
:104B90009CE10125382914DC8020000403431F29EF
:104BA00000DD06E220201D00401A170082408540EB
:104BB000CF40501E82413D43CB4015436246D31A3D
:104BC0009C464B465D1BA9458041634640421B1AEB
:104BD000984643461B0200D445E143465B025B0A0C
:104BE00098464346002B00D11EE14046FDF774FE77
:104BF0000100083920222F00531A4046DF40884028
:104C00003B008D4003438E4200DDCDE1881B29002F
:104C10000130121AC14095408846691E8D41190025
:104C200091400A004146C34029430D0098460026A2
:104C300015436B0709D00F232B40042B05D02B1DE8
:104C4000AB42AD416D42A8441D0043461B0200D457
:104C5000C4E240F2FF7301369E4200D1DFE04146DC
:104C6000D04A334011400A005707ED0852022F4343
:104C7000120B1B051343E40723433800190003B04C
:104C8000C0BCB946B046F0BD002900D18AE0B91BCE
:104C9000002E00D076E12C004D462C43002C00D194
:104CA000D2E14C1E012900D155E240F2FF75A94224
:104CB00000D108E20125382C13DC21001F2900DD7A
:104CC00008E2202465464E46641AA540CE4035438E
:104CD0004E46A6403400661EB44125436446CC408F
:104CE0001B1B551BAA42924152429B1A9846040034
:104CF0003E006EE7002900DCBAE0002F00D083E020
:104D000018001043002800D1F3E0481E012900D10B
:104D1000ACE140F2FF75A94200D1D7E00125382867
:104D200010DC01001F2900DDBAE120201D00401A1F
:104D3000170082408540CF40501E8241CB403D430A
:104D400015439C444D444D4580414042604480465B
:104D500043461B0200D486E040F2FF7301369E42B8
:104D60005DD042468F4B01211A40130029406A084A
:104D70000A43DD075B08984615435AE718001043BD
:104D8000002800D1B5E0481E012900D17DE140F2A4
:104D9000FF75A94200D199E00125382800DD10E710
:104DA0000100FCE640F2FE75771C3D4200D0D5E0E4
:104DB0004F4665463D431F001743002E00D047E194
:104DC000002D00D1BAE1002F00D178E14D46AD1A97
:104DD000A8466546C145B641ED1A7642AD1B802610
:104DE0003604354200D109E24C46151BAA429241D5
:104DF000644652421B1B9A1A324200D117E2694B99
:104E000004001A4001232FE740F2FF7086425DD074
:104E10000125382996DC80200004034382E740F214
:104E2000FF730022002724E72800FDF755FD01004D
:104E300018311F2900DCDDE62B00083883408E4244
:104E400000DDC5E0891B481C1F2800DCCAE11D00ED
:104E50001F39CD40202805D04022121A93405A1EF7
:104E600093411D4300266B0700D0E4E6310009E1C1
:104E700000294ED0B91B002E00D1B4E040F2FF70E3
:104E8000874200D123E10125382917DC80206546BF
:104E900000040543AC461F2900DD8CE12020654657
:104EA0004E46401A8540CE4035434E46864030003F
:104EB000461EB04105436046C8401B18AD189542D8
:104EC0009241524290463E00984441E74B46DA08F0
:104ED00063465F071743DD082B003B43002B00D1DF
:104EE000A0E1802212032A43120340F2FF73120B47
:104EF000BFE64B46DA0863465F07DD0840F2FF7302
:104F000017439942E8D040F2FF732A03120B0B407B
:104F1000AFE640F2FE70771C384278D128004D464B
:104F20002843002E00D0E8E0002800D13FE118001F
:104F30001043002800D1C2E04A444A4580416344FE
:104F400040421B18D208190200D465E115490B40F4
:104F50005F075B0217431A0B01238AE649468D1A45
:104F6000A945BF4161467F42C91AC91B884609024B
:104F70005FD447462F43002F00D032E600240023A1
:104F8000002276E640F2FF74A74200D19BE00125A3
:104F9000382900DDA5E68024654624042543AC4677
:104FA0008CE6C046FFFF7FFFA44A761A134098465E
:104FB0003FE608001F002038C740202903D04020CA
:104FC000411A8B401A43531E9A4115003D43F8E5A0
:104FD0009A4A711A13409C4663465F0743461F4333
:104FE0006346DD088FE728004D462843002800D19E
:104FF000BCE0481E012900D1F8E040F2FF75A9424B
:1050000065D00125382800DD58E7010043E740F26C
:10501000FF718F4200D102E74A444A458041634410
:1050200040421B18DD0752085B0898463E001543B6
:10503000FFE54946551AAA429241614652425B1A1F
:105040009B1A98460400CCE504009C46D20852E71F
:10505000002D00D08DE0002F00D1D9E0DD08D70869
:105060005B071F432B0004003B4337E74A444A4594
:1050700080416344984615004042804443460121E4
:105080001B0266D4C446EA0835E749468D1AA9458D
:10509000804162464042D31A1B1A9846012698E581
:1050A00008001F002038C740202903D04020411AA3
:1050B0008B401A43531E9A4115003D4342E64B462E
:1050C000DB08984688E704009C46D20800E79C4627
:1050D000D208FDE60C006646203CE640202907D0B9
:1050E0004024611A64468C4021004C460C43A14682
:1050F0004D46691E8D413543F3E50028E7D0190080
:105100001143002900D1E1E66146CD084946C808AF
:10511000614649070843802109030D4206D0DE0895
:105120000E4203D13500D0085B0718432B00470F10
:10513000C0007F07C00807433B43CFE6002F00D1E4
:105140001CE7D2085F075B02174304001A0B002319
:105150008FE5022605E6551B6146AA4292415B1A7D
:1051600052429B1A98460400012632E59C46D2081A
:10517000C1E6002F00D1A9E661466646CD08494642
:105180007607C908314380263603354207D0DF0849
:10519000374204D104003D00D1085B0719432B00BE
:1051A0004F0FC9007F07C9080F433B4396E6D2085B
:1051B00090469C4610E7080066462038C6402029E5
:1051C00007D04020411A6046884001004846084305
:1051D00081464D46691E8D4135436FE63100C44618
:1051E000EA0888E620220025121A18E5AD18954233
:1051F000924163449846524290443FE747462F43CA
:10520000002F00D1BAE64346DB089846AC46E3E6F9
:10521000802500242D0364E65F075B0217431A0B09
:10522000002326E5002740F2FF73002221E5ED0868
:1052300057072F430400D50865E6C046FFFF7FFFF0
:10524000F0B5DE46454657464E46E0B587B000927B
:1052500001930B031B0B9B464B00CA0F5B0D040015
:1052600080460292002B00D192E040F2FF729342FE
:1052700039D05946420FC9000A438021090411431D
:10528000C2009046894A894692469A4400230024E7
:105290000393009E019F3B031B0B9B467B005B0D12
:1052A0003000FD0F002B00D1A6E040F2FF729342C8
:1052B00000D194E05946720FC9000A4380210904C5
:1052C00011437A4A0020944652466344D31A9A46C0
:1052D0008B46F100029B6B400F2C00D9F0E0744A22
:1052E000A400125997465B4603439946002B00D011
:1052F000A4E0023340F20008082440F2FF7A03934E
:10530000C7E72B0040F2FF72002440F200081205AC
:105310002243DB071A434046110007B0F0BCBB46EE
:10532000B246A946A046F0BD0022002440F2000883
:10533000EDE7CB464146029D03980228E1D00328C1
:1053400000D173E22B000128EED040F2FF30504430
:10535000002800DCA7E14A0700D07AE25A46D201D1
:1053600006D55846534A1040834640F20040504408
:1053700040F2FE729042C5DC5A46C90852070A4301
:1053800090465A46540240F2FF72240B0240BEE798
:105390005B4603439946002B62D05B46002B00D14D
:1053A000DBE15846FDF798FA0B235B429C4602006E
:1053B000844466461D239B1B260011005846DE4090
:1053C0000839884033000343994623008B409846B0
:1053D000394B00249B1A9A460023039359E75946F8
:1053E000009B1943354B9C46E244A1BB022340F28B
:1053F000000B02201C436DE75946009B194321B363
:105400005B46002B00D1BAE15846FDF765FA020071
:1054100003000B3A1D27009EBA1A19005846D640C1
:1054200008398840320002439346009A8A401100AE
:10543000534440F2F33A00209A444BE70323D94601
:105440000C2440F2FF7A039323E7012340F2000B80
:1054500001201C433EE70323310003201C4339E7AE
:10546000012340F20008042440F2000A039310E7ED
:105470008024002340F20008240340F2FF7246E734
:1054800080244B462403234208D05B46234205D1A7
:105490001C4324032B008846240BEEE780244B4654
:1054A00024031C432403029B240BE6E701FCFFFFBB
:1054B00084750000FFFFFFFE0DFCFFFF01F8FFFFFA
:1054C000CB4500D23FE100D13AE10122524294465D
:1054D00047464A460025E24458460C0E0002044363
:1054E0000902000CB2FBF0FC00914FF6FF712600A0
:1054F00021400294644603914C4361464143521A51
:105500001204390CA04611438C4207D9B1466246B9
:105510004944013A8E4200D850E194464246891AE5
:10552000B1FBF0FB5A46039C4FF6FF7962435C46A1
:105530004443091B4C4609043C4021438A4208D994
:10554000029E5C46B0464144671E8E4200D82BE165
:10555000BB468A1A61465C464FF6FF7C09040C4341
:105560000099270C090C89466146A34621406446F0
:10557000009E344004944C432600049C7C43A04687
:105580004C4661436743340CA4464144614488451A
:1055900003D980246402A44667440C0CA046090485
:1055A000474488464FF6FF7131404144BA4200D229
:1055B000ADE000D1A8E0691A8D42AD41029ED71B33
:1055C0006D427F1BBE4200D134E1B7FBF0F2040014
:1055D000039D544355433F1B3F040C0C2743BD42DE
:1055E0000BD9B046541E4744A446BE4200D937E109
:1055F000BD4200D834E1023A47447F1BB7FBF0F5C7
:105600006843381A4FF6FF77039C00046C430F4041
:10561000A4460743BC420BD90298691E8046474402
:10562000B84200D91EE1BC4500D81BE1023D474409
:1056300061467F1A1104049C29430D0C20006C4321
:105640004FF6FF72A4464C460A4050436243624400
:105650009046020C42446543944503D98024640279
:10566000A4466544140CA446AC444FF6FF751204DE
:1056700028401218674506D302D00122114364E680
:10568000002A00D161E6029C481EA0464744A7427A
:1056900000D2C2E0674500D2F9E000D103E1010089
:1056A000EBE7012149420122121A382A00DD3BE6CC
:1056B0001F2A00DC8CE01F246442201A5C46C44090
:1056C0002000202A05D040F23E425C4652449440DD
:1056D00021434A1E91410722014310000024084043
:1056E0000A420CD00F220A40042A00D1E0E0081D33
:1056F000884292410100524250075202140BC908DD
:1057000001438846002202E68D4200D353E701247C
:1057100064425C440594009CA4466544A542A441AF
:105720006442A446029CA046C4446244944235D2DA
:10573000974200D99BE000D196E0059CA3463AE74A
:10574000414500D9C1E64846C707404640084A4699
:10575000074340465208C507BEE6FDF7BDF840F2D4
:10576000150C84440200634620321C2B00DC20E62A
:1057700023000838834040F20008994628E6FDF7E8
:10578000ABF802000300153220331C2A00DC41E68E
:10579000009A083882400021934649E69442CCD1D1
:1057A000009CAC42C9D8C3E78A4200D8D0E60224A4
:1057B0006442A046C344B0464144CAE6884500D886
:1057C000ABE6022252429146CC44B1464944A5E69A
:1057D00040F21E400D0050445C4681408440D5405C
:1057E00008002C43411E8841210001435846D04007
:1057F0000200480709D00F200840042805D0081DE2
:1058000088428941494252180100100200D473E7CE
:105810000122002440F2000879E50100674500D02C
:105820002BE70098824200D027E78EE580245B4674
:1058300024032DE640F2FF301E4A5044924500DA20
:105840002FE701225242111D91429241524293444C
:1058500084E50F220A40042A00D17FE50A00F2E71E
:105860006246CAE60D00E3E6A94200D865E70224D5
:105870006442A446009CE344A4466544A542A44176
:105880006442A446029CA046C444624493E6009845
:10589000029C450085428041A04640424044023976
:1058A0003F180095BAE7009C9442F0D30100B8E796
:1058B000002221E702FCFFFFF0B55746DE464E46C8
:1058C0004546E0B50D000400E80F8346D80F824638
:1058D00040F2FF700903090B8C461F0369005E004C
:1058E000490D3F0B760D814217D086420ED0012024
:1058F000B1420CD1BC450AD1944208D1D3451CD049
:1059000029B960462043431E984100E00120F0BCC5
:10591000BB46B246A946A046F0BD01208E42F6D154
:10592000614639430F0017432743002FEFD15B46F1
:105930005246981A431E9841E9E70020E7E7C0461F
:10594000F0B557464E464546DE46E0B50D000E031F
:105950004900490D8A4640F2FF7BE90F83B00400FD
:105960008046019158001903DF0F9146BC46360B63
:10597000090B400DDA451DD058450CD057465FBB8A
:10598000344330BB0A43002A37D0002C42D163464F
:105990005800013816E01143002938D1534613B995
:1059A0002643002EF3D0019B634507D1019B58008D
:1059B000013807E0264356BB504521D00120019B0A
:1059C0005F42384303B0F0BCBB46B246A946A0468E
:1059D000F0BD002CDBD0E6E70028EFD0019B63454B
:1059E000ECD18245EADCE1DB8E42E7D8DED1C84566
:1059F000E4D80020C845E5D2D8E7002CE2D0DDE7A6
:105A0000114321B9019BBB42D8D10020DAE7022023
:105A10004042D7E7019B6345E6D0CFE7F0B5574654
:105A20004E464546DE46E0B50D000E034900490DE1
:105A30008A4640F2FF7BE90F83B004008046019163
:105A400058001903DF0F9146BC46360B090B400D79
:105A5000DA451ED058450DD0574647BB3443002881
:105A600034D10A43002A34D0002C40D16346580078
:105A7000013815E0114391B9534613B92643002E5E
:105A8000F4D0019B63451DD00120019B5F42384348
:105A900006E026431EB95045F6D11143E1B102207C
:105AA00003B0F0BCBB46B246A946A046F0BD0028F4
:105AB000EAD0019B6345E7D18245E5DC02DB8E42FB
:105AC000E2D80ED0019B58000138E9E7002CCDD078
:105AD000D7E7002CE4D0D7E7019B0020BB42DFD002
:105AE000D2E7C845D0D80020C845D9D2EAE7019B03
:105AF0006345E4D0C8E7C046F0B5DE464E4657469B
:105B00004546E0B589B0009201930B031B0B9B4601
:105B10004B00CA0F5B0D04009146002B00D1CDE174
:105B200040F2FF72934200D15FE15946420FC90033
:105B30000A43802109041143C2009046DC4A8B4687
:105B40009C18002300250293009E019F3B031B0B22
:105B50009A467B00FA0F5B0D30000392002B00D1B8
:105B600083E140F2FF72934200D169E15146720F26
:105B7000C9000A43802109041143CD4A8A4694464C
:105B800000216344F0001B195C1C0A2D00DD3CE180
:105B90004E46039A5640F2B20092022D00DCB7E165
:105BA000012240F23057AA4015003A002A402F4205
:105BB00000D028E140F240272F4200D01BE288228B
:105BC0002A4200D0FDE14FF6FF754146424629408A
:105BD000170C0540020C0800684384462800160094
:105BE0007843804608007E43029203963200029E6C
:105BF00070436646360CB14640444844804505D95A
:105C00001600802252029046464403964FF6FF78D3
:105C1000060C42460496664600041640B44602004E
:105C2000624405925246120C9446404652460E007B
:105C3000104046436246B146060051437E435743F7
:105C40004A46B246120C9046514441448E4203D912
:105C500080225202904647440A0C90464E463A0033
:105C60004FF6FF773E40B146424406920904049A3B
:105C7000494490468946C844424604925A46120C0A
:105C800090465A4617403E006E43B14646466E4324
:105C9000B2464E464546360CB346029A07915543E6
:105CA0007A4352445A44924503D9802149028A4694
:105CB0005544160CB24655444FF6FF7A49465646AF
:105CC0000E40B1461204414691443A0046464243D2
:105CD000484361464E434F43110C8C463F18BC4429
:105CE000B046604503D9802149028A46D0440499D0
:105CF00003988A46664650444FF6FF7A3704564664
:105D00001640BA190799069E88428941B24649420F
:105D100052445718BA4648444845BF41B24292419E
:105D20008A458941AB467F4249425242B9460A43BD
:105D30006146D344D944090C5218B945BF41AB451B
:105D400089417F4249420F434946D2194244520297
:105D5000C90D059D11438B46410229434D1EA941A2
:105D6000C00D08434946490208438046D20100D489
:105D700068E101224308024013435A46D207134305
:105D800098465B465B089B46009B994640F2FF3372
:105D9000E118002900DCE4E043465B070AD00F234A
:105DA00042461340042B05D0043242459B419046A5
:105DB0005B429B445B46DB0106D55A463D4B1A408D
:105DC00040F200439346E11840F2FE73994200DD31
:105DD00099E043465A46DB0852071A435B465C0289
:105DE00040F2FF73240B0B401CE05B4603439846D4
:105DF000002B00D0AEE0023340F2000B082540F249
:105E0000FF740293A0E6009B9946029B022B00D1EF
:105E100079E0032B00D1E4E0029B012BB6D10023F3
:105E20000024002210004A461B052343D2071343D7
:105E3000190009B0F0BCBB46B246A946A046F0BD69
:105E40005246009EE3181643002E7CD003224E4695
