S00B00006D6D702E73726563CF
S31500000000400C0020D5130000A9110000D1130000F8
S31500000010D1130000D1130000D1130000D11300004A
S31500000020000000000000000000000000D1130000E6
S31500000030D113000000000000D1130000D11300000E
S31500000040D50E0000000000000000000000000000C7
S31500000050000000000000000000000000000000009A
S31500000060000000000000000000000000000000008A
S31500000070000000000000000000000000000000007A
S31500000080000000000000000000000000000000006A
S31500000400FFFFFFFFDFCEFFFFFCFF0F00FFFF0F0028
S31500000410FCFF0F00FFFF0F00FCFF0F00FFFF0F00A8
S31500000420FCFF0F20FFFF0F20FCFF7F40FFFF7F40F8
S31500000430FCFF0D40FFFF0D40FFFFFFFF40F26C0089
S3150000044040F26C03C2F20000C2F2000310B5834210
S3150000045005D040F20003C0F2000303B1984710BD77
S3150000046040F26C0040F26C03C2F20000C2F20003DC
S315000004701B1A9A10D90F8918491010B529B140F2E4
S315000004800003C0F2000303B1984710BD10B540F257
S315000004908004C2F20004237873B9FFF7CFFF40F25D
S315000004A00003C0F200032BB142F23C60C0F2000030
S315000004B000E000BF0123237010BDC04640F20003D8
S315000004C0C0F2000310B54BB140F2840142F23C6029
S315000004D0C2F20001C0F2000000E000BFFFF7C0FF5B
S315000004E010BDC046F0B5C64600B5C36887689846D5
S315000004F0040040680D00FE1AC0189044964208D9C0
S3150000050001F097FABFF35F8F4346E36080BCB846BD
S31500000510F0BD320001F08DFA4346DB1B1A0060681D
S31500000520A919984601F085FABFF35F8FECE7C0463C
S31500000530F8B54746CE4680B588460700160040F215
S315000005400009C56884681CE0013B5B1B641BB44260
S3150000055000D934009C4200D91C007868220041462C
S31500000560401901F066FA2D19A144A044361BBC6857
S31500000570631B5A1E93415B421D40BFF35F8FFD60B4
S3150000058036B13B699D42DFD3013B1B195B1BDDE79F
S315000005904846C0BCB946B046F8BDC04610B540F2A4
S315000005A0AC44C2F20004A8220021200001F0EAF9BE
S315000005B0032342F254422361636140F2AC03C0F26A
S315000005C00002C2F20003A261E36140F2004323622B
S315000005D00023A3626362E362226640F29C02C2F2D7
S315000005E0000262661022A2662367E3666367BFF3B2
S315000005F05F8F054A00215156013AE1540133102B11
S31500000600F8D1BFF35F8F10BD07250000431C70B5FE
S3150000061004005800C01840F2AC43C2F200039C46E6
S3150000062063001B19DB006344DC6AC00015006044EC
S31500000630012C14D0022C0DD0FCB99A6A5E6AB24223
S3150000064022D9013A961BB54207D82A00FFF74AFF7E
S315000006502C0002E0FFF76CFF0400200070BD9A6AD0
S315000006605C6AA2420BD9013A121B2C00954200D9B2
S3150000067014002200FFF736FFEFE70024EDE71B6AC0
S31500000680D218013A121BF0E71B6AD218013A961BE0
S31500000690D9E7C046F8B540F2AC43C2F200031B7876
S315000006A004000D001600532B01D0FFF777FFEFF380
S315000006B01087012181F31088320029002000FFF7FE
S315000006C0A5FF87F31088F8BDF0B5C6461E0040F2B8
S315000006D0AC4300B5C2F200031B780500884617003C
S315000006E0532B01D0FFF75AFF022D29D8EFF31083C1
S315000006F0012181F3108800248DB940F2AC42C2F288
S31500000700000294466419069AE40064446267BFF3E3
S315000007105F8F83F31088002080BCB846F0BD40F29E
S31500000720AC42C2F20002944642466C006019C00018
S31500000730604402660022476686660267C266DCE798
S3150000074001204042E8E7C04610B5FFF727FF10BD7D
S3150000075010B5040082686368501C984207D8236865
S3150000076099540200E368A0600133E36063689A422B
S3150000077000D010BD21682069FFF78CFFA36898425E
S3150000078003D001235B42E360F3E70023A360F0E7B5
S31500000790F8B54E4645465746DE46E0B51E000A9B6E
S315000007A00F008046150099460B99974200D271E0DA
S315000007B03B000122B3FBF5F301329D42FAD9B24662
S315000007C0964200D2924601231A000A4093460B42F3
S315000007D002D14B46002B42D14346DB680124002B55
S315000007E002DA27E06C43013E012EFBD8B7FBF4F397
S315000007F09D4204D86C43B7FBF4F39D42FAD942F20A
S315000008009056C0F2000606E0B4FBF5F3AC420DD3F9
S315000008101C00B7FBF3F322005A43F1564046BF1AB9
S31500000820FFF796FF4346DB68002BEDDA5B460BB11C
S315000008304B468BB9F0BCBB46B246A946A046F8BDAE
S3150000084001235B429C4620214046E144FFF780FF9E
S315000008504346DB68002BEDDBD145F1D8EAE72024DF
S31500000860890714D57442744124012034D145B3D983
S3150000087001235B429C4621004046E144FFF768FFA6
S315000008804346DB68002BD5DB4A46002AA6D0D14575
S31500000890EED8A1E7012292E7F0B5DE4657464E466E
S315000008A04546E0B59DB00CAB9A46079340230893A6
S315000008B000230C00914640F2010B804609930A93EF
S315000008C0B24B0B900293002161560134002967D088
S315000008D0252907D007A8FFF73BFF0A9B002BF2DA72
S315000008E01F0066E00023E3560027022508200422A5
S315000008F0611C2D2B0CD02D2B0EDC232B11D02B2B7A
S315000009003CD10C0017430023E356611C2D2BF2D17A
S315000009105B460C001F43F6E7302B05D10C002F4336
S31500000920F1E70C000743EEE71A00303AD2B2002690
S31500000930092A0DD8B20096197600F6180023CB5670
S315000009400C001A00303AD2B2303E0131092AF1D9F0
S315000009502E2B00D1B6E000230025E3560C0004221E
S315000009601900914368290BD0252B13D0583BDBB2D5
S31500000970202BB2D8029A9B00D3589F460026EAE75E
S3150000098004210023E35601341A008A43682AF8D06A
S31500000990252BEBD1252107A8FFF7DAFE0A9B9DE759
S315000009A00A9F4546002F04DD099C002C00D0A3E0D9
S315000009B03F1938001DB0F0BCBB46B246A946A0465A
S315000009C0F0BD4B4649461B6807A81A1D0A60196800
S315000009D010222B0001970096FFF7DAFE0A9B7DE7AF
S315000009E04B4649461B6807A81A1D0A6019680A2261
S315000009F02B0001970096FFF7CBFE0A9B6EE74B464E
S31500000A0049461B681A1D0A601D683DB9A6E007A87D
S31500000A10FFF79EFE0A9B002B00DA61E7002169566C
S31500000A2001350029F3D158E74B4649461B6807A80C
S31500000A301A1D0A60196800230193083300931022D7
S31500000A40FFF7A6FE0A9B49E74B4649461B681A1D57
S31500000A500A601B68DA1703939B1853400122092B7F
S31500000A6006DD0A201900013293FBF0F36329F9DC55
S31500000A700495954263D3002E44D100260A9B002B91
S31500000A8000DA2DE7039B002B6DDB7B0776D403236F
S31500000A903B40022B00D17BE02B000A2203990197F1
S31500000AA0009607A8FFF774FE0A9B17E74B464946D0
S31500000AB01B6807A81A1D0A6000215956FFF748FE51
S31500000AC00A9B0BE70123E3561A00303AD2B2092AF1
S31500000AD059D800250C002A009500AD186D00EA18BB
S31500000AE000230134E356303A19003039C9B20929D6
S31500000AF0F2D91500611C31E7220051462800FFF7A4
S31500000B00C9FD55E70223039A3B40002A1BDB7A07FF
S31500000B1019D4002B55D0FDB1FB071DD40597049FB2
S31500000B20BE4218D9202107A8FFF712FE0A9B013EF4
S31500000B30002B00DAD4E6002EF2D1059F9FE704923F
S31500000B40002EDFD199E7013E03B12DB1FB0703D497
S31500000B50002EE3D191E7059F0A9B90E742F260459C
S31500000B60C0F200055AE75B422D2107A80393FFF761
S31500000B70EFFD0A9B002B8ADA1F001AE72B2107A834
S31500000B80FFF7E6FDF5E700250131E7E60C25000055
S31500000B90002D00D080E7002E00D17DE7049BB342F4
S31500000BA017D2302107A8FFF7D3FD0A9B013E002B81
S31500000BB000DA95E6002EF1D1002B00DB6CE71F0072
S31500000BC0F7E6FB07AAD50A9B002B00DB64E71F00AC
S31500000BD0EFE60A9BF0E7C0460EB400B582B003AB61
S31500000BE002CB01AA0193FFF757FE02B008BC03B07F
S31500000BF01847C04642F2A053C0F2000303CB10B51B
S31500000C0000F006F9002308B9180010BD42F2684149
S31500000C100020C0F20001FFF7DFFF01235B42F3E78C
S31500000C2042F2A053C0F20003186810B500F02CF988
S31500000C30002308B9180010BD42F284410020C0F21A
S31500000C400001FFF7C9FF01235B42F3E710B570B15E
S31500000C5042F2A0410020C0F20001FFF7BDFF40F2C2
S31500000C605453C2F200031A6801321A6010BD42F2F0
S31500000C70B4410020C0F20001FFF7AEFFEFE7C04627
S31500000C8010B501F03DFB42F2BC40C0F2000000F09E
S31500000C908DFD00F019F810BD10B538B94CF20003FF
S31500000CA090220121C4F27E03995410BD0228FCD182
S31500000CB042F2C05140F25850C0F20001C2F20000A8
S31500000CC000F096F8F1E7C04610B582B0FFF73CFD9C
S31500000CD0022342F2D0410022C0F20001009300201C
S31500000CE0002340F25454FFF7EFFCFFF783FFFFF7B2
S31500000CF097FFC2F2000442F2DC412268C0F2000112
S31500000D000020FFF769FFF6E710B5FFF7B9FF0020EF
S31500000D1010BDC046F0B5DE4657464E464546E0B5E0
S31500000D20EFF31082012383F3108840F2B05BC2F226
S31500000D30000B5B461B6833B940F60051C4F2040150
S31500000D40CB704033CB705B4659461B6801330B6052
S31500000D5082F31088038800224BB380235B029946F6
S31500000D60224B40F6000440F2FF0C9846C4F20404FD
S31500000D704368D1005B1861469F881E683B0A0F4096
S31500000D8049461B010E420AD0D91989008A464546B2
S31500000D900959294055462951414631402951DB1907
S31500000DA09B001E510132018893B29942E0D8EFF3BD
S31500000DB01082012383F310885B461B6823B15B46D0
S31500000DC059461B68013B0B605B461B6833B940F60E
S31500000DD00051C4F20401CB708033CB7082F31088CB
S31500000DE0F0BCBB46B246A946A046F0BDFFFFFEFFDB
S31500000DF045F2542310B5C5F24F0303600800FFF710
S31500000E0089FF002010BDC0468160C2600020704787
S31500000E10022346F2000270B5C4F20002CB56944695
S31500000E2003710400002540F200309B0063441A5809
S31500000E301D5046F200008B68C4F20000A360CB6828
S31500000E40E3600B786371C5540B79CD781B012B4396
S31500000E504D79DBB2ED012B436579DBB243550423B3
S31500000E60E356C0339B001A5004202056002803DBAB
S31500000E702200497800F0CCF944F25533C0F2490318
S31500000E800020236070BDC04610B5007940B200F066
S31500000E90E5F9002010BDC04610B5007940B200F05B
S31500000EA0FFF9002010BDC04610B5040004202056EE
S31500000EB000280ADB00F0F4F9042240F2B4530021C2
S31500000EC0A256C2F200039200D150002300202360F4
S31500000ED010BDC04630B583B0EFF3038440F2B4537F
S31500000EE0103C64B2C2F20003A200D55846F20003D9
S31500000EF06A79C4F200039B5C9B079B0F032B0BD103
S31500000F00AB6823B10192EA686846009298472000D0
S31500000F1000F070F903B030BD200000F06BF9AB684B
S31500000F20002BF7D06A7968460192EA6800929847E2
S31500000F30F0E7C0464EF20003262240F26C01C4F2EE
S31500000F400103985C1B6A8000C2F2000141585B01F4
S31500000F505B0F40F24062D940C2F200021160704756
S31500000F607047C0464EF2000340F2FE325C49C4F2BE
S31500000F70010370B599524CF2000240F200110020B4
S31500000F80C4F20102505240F26C0446F60042C2F22C
S31500000F900004C0F2DC22226041F20022C0F27A0292
S31500000FA0626048F2000241F60031A2602261262208
S31500000FB0C0F2B701E160995C1A6A89006158520172
S31500000FC0520F40F24065D140C2F20005296040F25E
S31500000FD0134200219954A2220921995440F28042D9
S31500000FE09A5C32B940F281429B5C9B07002B00D190
S31500000FF071E04EF2000640F28043C4F20106F25C54
S31500001000002A5CD04EF20003002240F28141C4F275
S3150000101001035A5401395A544EF20002A023C4F275
S315000010200102D35CCBB13623D35C1BB93C21535CA4
S31500001030DB07FCD54EF20002A021C4F20102535C8C
S31500001040DB06D80F002BFADB50544EF20002A0212B
S31500001050C4F20102535CDB06FCD44EF2000200210E
S315000010603623C4F20102D1543C31535CDB07FCD574
S3150000107001203123D054CF33C1F200031362002183
S315000010802623D154D15C136A890061585B015B0F3A
S31500001090D94040F2FE3329601249D1524CF2000287
S315000010A040F2041340F20411C4F20102D052535A22
S315000010B0002BFCD101210133FF33D15270BD013227
S315000010C0F2540121C82000F041F840F28042B35C9E
S315000010D0012BFCD196E740F2E830FFF741FF9BE792
S315000010E003A5FFFF00A5FFFF70B544F20004282307
S315000010F00025C4F20404E5540121C82000F026F8B6
S3150000110024232422E554A35C002BFCD10221A35CFA
S3150000111024200B43A35444F20002C4F20402135CDD
S315000011209B07D90F002BFADB2223D15444F200028D
S315000011302221C4F20402535C002BFCD170BDC046D0
S315000011407047C04601380028FCD1704740F2406223
S315000011504CF6002370B54143C2F200021468C3F690
S315000011609A330D00B3FBF4F4080040F2E832002392
S31500001170002100F0D7F931B9B0FBF4F0800808B1CE
S31500001180FFF7E0FF70BDA000B5FBF0F040F2E832DB
S315000011900023002100F0C6F90029F0D001204042CA
S315000011A0FFF7D0FFEEE7C046F8B546F2000340F27F
S315000011B0201240F2705500240127C4F200039E5A03
S315000011C020329B5AC2F200051E403300E3401F4204
S315000011D003D02B680BB1E0B2984701340435102CCC
S315000011E0F3D146F2000340F23012C4F200039E52DD
S315000011F0F8BDC04646F20003C0308000C4F20003CA
S31500001200C25802490A40C250C3587047FFFFFEFF4A
S31500001210F0B5C64690464EF20012FF240325CEF2E4
S3150000122000029446220040F200370540ED00890195
S31500001230AA400C40AC4083089B0000B56344DE59CD
S31500001240800096432643DE5140F2B4534246C2F232
S3150000125000031A5080BCB846F0BDC046030046F2F3
S31500001260000210B5C033C4F200029B0099580B4C23
S31500001270214099509B58BFF35F8F1F2201230240E4
S3150000128093404EF20012CEF20002944640F28012D3
S315000012904009800060448350036010BDFFFFFEFFDD
S315000012A01F21012201408A404EF2001143092033DA
S315000012B0CEF200019B005A50BFF34F8FBFF36F8FE2
S315000012C07047C04646F200000023C4F2000042F216
S315000012D0E452C0F200029A1812781AB11900C0310D
S315000012E089000A500133202BF1D1704730B5EFF356
S315000012F01081012383F3108840F234634000C2F268
S3150000130000031A5A1AB11A5A013A92B21A521B5AC1
S3150000131083B94EF2000242F2186340F2FE34C4F280
S315000013200102C0F20003155B185A044B2B4383439A
S315000013309BB2135381F3108830BDC04600A5FFFF52
S3150000134070B5EFF31081012383F3108840F2346205
S315000013504000C2F20002135A83B94EF2000442F270
S31500001360186540F2FE36C4F20104C0F20005A35B24
S315000013702D5A2B434AF200552B43A353135A0133DC
S315000013809BB2135281F3108870BDC04640F23C6296
S3150000139010B5C2F200020300106858B103210333EE
S315000013A08B4340F64001C318C2F200018B4207D8B6
S315000013B0136010BD40F64000C2F200001060EDE779
S315000013C000F02EFB0C23036001204042F1E7C046EB
S315000013D000BE704710B500F003F8FFF795FCFEE776
S315000013E0F0B54EF6005340F20005CEF20003C0F20F
S315000013F0000583B09D600020FFF74EFCFFF7B2FDAD
S315000014006B460027DC1D277001202378FFF798FF25
S31500001410EFF31081012686F3108846F6FC73C4F2BA
S3150000142004039A683C4802409A609A6881F31088DF
S3150000143040F60001C4F204010A68D207D20F2270F6
S315000014400A68D207D20F22700A68D207D20F22701A
S31500001450EFF3108186F310888022986852050243C4
S315000014609A609B6881F310880120FFF73FFF0120F7
S31500001470FFF712FC40F60053284AC4F200039F808F
S315000014801A802A68264941F2000051189960DA60EC
S3150000149046F2000240F22011C4F20002505240F619
S315000014A03C0240F28000C2F20002C2F200009E80BE
S315000014B00021121A00F066FA40F2000040F26C02B7
S315000014C042F24061C2F20000C2F20002121AC0F2F9
S315000014D0000100F0AEFA40F2640540F26803C2F281
S315000014E00005C2F200035B1B9E10002B05DD0024E5
S315000014F008CD01349847A642FADCFFF71BFDFFF73B
S31500001500F3FD0220FFF7C8FBFFF7DCFE0020FFF724
S3150000151017FE03B0F0BDC046FFFFFFEF00A5FFFFBB
S3150000152000FCFFFFF0B54FF6FF750400CE462C40D9
S31500001530474615400E002900994680B5130C070052
S31500001540000C61434543584363430C0C5B19E41894
S315000015508C46A54203D980235B0298464044230C5F
S3150000156061461B184FF6FF700840494656437943BB
S31500001570240489192018C918C0BCB946B046F0BD64
S31500001580002310B5040003604360836081814366D5
S31500001590C281036143618361190008225C3000F057
S315000015A0F1F90B4B246263620A4BA3620A4BE362B6
S315000015B00A4B23630A4B9C4205D00A4B9C4202D03D
S315000015C0094B9C4203D12000583000F02FFA10BD81
S315000015D0C1170000E9170000211800004D1800008F
S315000015E044060020AC0600201407002010B5034A6C
S315000015F00349044800F06AF810BDC0460000002008
S315000016004D1D00001000002041680B4B10B5040072
S31500001610994201D000F09AFBA168084B994202D08A
S31500001620200000F093FBE168054B994202D02000B0
S3150000163000F08CFB10BDC04644060020AC0600201E
S315000016401407002010B5094B094A04211A600948FD
S315000016500022FFF795FF012209210748FFF790FFB7
S31500001660022212210548FFF78BFF10BD7C070020E0
S31500001670ED15000044060020AC06002014070020EB
S3150000168010B5024800F0D3F910BDC046850700200A
S3150000169010B5024800F0CCF910BDC0468507002001
S315000016A010B50400FFF7ECFF236A13B1FFF7F0FF54
S315000016B010BD044B2362044B1B68002BF6D1FFF7C9
S315000016C0C1FFF3E7091600007C070020F7B51400F8
S315000016D0002600900191A5686768013F04D524683B
S315000016E0002CF8D13000FEBDAB89012B08D90E22A3
S315000016F0AB5E013304D029000098019B984706434E
S315000017006835EAE7036A70B505000E0084680BB910
S31500001710FFF7C6FF636EDB0705D4A3899B0502D4DA
S31500001720A06D00F084F9A3891B0701D52369F3B9DD
S315000017302100280000F0CEF8C8B101256D42636E85
S31500001740DB0705D4A3899B0502D4A06D00F070F9D0
S31500001750280070BD0136A360002B04DAA2699A4204
S3150000176016DC0A2914D023685A1C22601970A36853
S315000017703178013B0029EDD1A360002B0FDA22005E
S3150000178028000A3100F068F80130D6D00A25D6E7DD
S315000017902200280000F060F80130E8D1CDE7236888
S315000017A05A1C22600A221A70F0E7FFFF10B5034B9D
S315000017B001001868FFF7A6FF10BDC0460C00002008
S315000017C070B50C000E25495F00F006F9002803DB12
S315000017D0636D1B18636570BDA389024A1340A3811C
S315000017E0F9E7C046FFEFFFFFF8B51F008B8905003C
S315000017F00C001600DB0505D50E23C95E0022022368
S3150000180000F0D8F8A389054A28001340A3813200C6
S315000018100E23E15E3B0000F0F1F8F8BDFFEFFFFF9D
S3150000182070B50C000E25495F00F0C4F8A389421C70
S3150000183003D1054A1340A38170BD41F20002134350
S31500001840A3816065F8E7C046FFEFFFFF10B50E23E2
S31500001850C95E00F09FF810BDF8B506000D00140033
S3150000186018B1036A0BB9FFF71BFFA369A360A3892D
S315000018701B0701D5236943B92100300000F02AF87F
S3150000188018B101256D422800F8BD23692068EFB222
S31500001890C01A6369EDB2834205DC2100300000F016
S315000018A055FA0028EDD1A3680130013BA3602368F7
S315000018B05A1C22601F706369834204D0A389DB0728
S315000018C0E1D50A2DDFD12100300000F03FFA0028D3
S315000018D0D9D0D6E72A4B70B5050018680C0018B1A8
S315000018E0036A0BB9FFF7DCFE0C22A35E1A0722D4AB
S315000018F0DA0607D409222A60402201201343A38175
S31500001900404237E05B0712D5616B41B12300443397
S31500001910994202D0280000F09DF800236363242238
S31500001920A3899343A381002363602369236008236B
S31500001930A2891343A38123695BB940F2802140F257
S315000019400022A3890B40934203D02100280000F017
S315000019504FFA0C22A35E01211A000A400B420AD05C
S315000019600022A26062695242A261226900200AB97D
S315000019701A06C1D470BD990700D46269A260F4E763
S315000019800C00002003008218934200D170471970A2
S315000019900133F9E7002370B5054D040008002B60FC
S315000019A000F066FB431C02D12B6803B1236070BDB7
S315000019B08007002070B50400080011001A000023FB
S315000019C0044D2B6000F015FB431C02D12B6803B1BC
S315000019D0236070BD8007002070B504000800110068
S315000019E01A000023044D2B6000F0AEFA431C02D10E
S315000019F02B6803B1236070BD8007002070B504001A
S31500001A00080011001A000023044D2B6000F005FBAE
S31500001A10431C02D12B6803B1236070BD80070020F0
S31500001A20014B18687047C0460C000020704770478D
S31500001A307047002310B59A4200D110BDCC5CC45447
S31500001A400133F8E70023C25C0133002AFBD1581E9C
S31500001A507047FFFF70B505000C0079B1043C2368A0
S31500001A60002B00DAE418280000F0DEF81C4A1368A0
S31500001A702BB963601460280000F0DEF870BDA34245
S31500001A8008D9206821188B42F3D119685B680918B8
S31500001A902160EEE71A005B680BB1A342FAD9116820
S31500001AA05018A0420BD120680918501811608342C3
S31500001AB0E1D118685B68411811605360DBE7A0420A
S31500001AC002D90C232B60D6E7206821188B4203D15C
S31500001AD019685B680918216063605460CBE7C046EB
S31500001AE08C07002070B50F4E0D003168040011B947
S31500001AF000F0DEF930602900200000F0D9F9431C1F
S31500001B0003D101256D42280070BD0323C51C9D43EA
S31500001B10A842F8D0291A200000F0CAF90130F2D103
S31500001B20EFE7C04688070020F7B50322CB1C934396
S31500001B30083305001F000C2B34D20C27B94233D8CA
S31500001B40384E280000F070F833681C00002C2FD1A6
S31500001B5039002800FFF7C6FF0400431C5FD1346834
S31500001B600094009B002B4AD1002C52D023682800F9
S31500001B70E3180099019300F09BF9019B834248D139
S31500001B8023682800FF1A3900FFF7ACFF013040D068
S31500001B902368DB19236033685A68002A33D1009B17
S31500001BA0336019E0002BC9DA0C232B600020FEBD40
S31500001BB02168C91B20D40B290AD9E2192760A34240
S31500001BC004D1326063681160536005E05A60F9E73A
S31500001BD06268A3420ED13260280000F02DF8200082
S31500001BE007220B30231D9043C21A9842DFD01B1ADE
S31500001BF0A350DCE75A60EFE723006468A6E7009C81
S31500001C0063680093ADE71A005B68A342FBD100232B
S31500001C10DAE70C2328002B6000F00EF8C6E7076011
S31500001C20DAE7C0468C07002010B50248FFF7FFFE32
S31500001C3010BDC0468407002010B50248FFF7F8FE25
S31500001C4010BDC04684070020F7B50C228B5E050048
S31500001C500C001A0753D44A68002A02DC0A6C002AD0
S31500001C604BDDE76A002F48D0002241F200002E68C3
S31500001C702A601A00216A0240034230D0626DA389AD
S31500001C805B0705D56368D21A636B0BB1236CD21A56
S31500001C9000232800E76A216AB847A289431C06D1B7
S31500001CA029681D2944D8284BCB40DB0740D50023A3
S31500001CB0636023692360D20404D5431C01D12B68D9
S31500001CC003B96065616B2E60B9B123004433994254
S31500001CD002D02800FFF7BEFE002363630DE0012358
S31500001CE02800B8470200431CC9D12B68002BC6D078
S31500001CF01D2B01D0162B1AD12E6000201EE00E6976
S31500001D00002EFAD00F680E60BA1B019200229B07C4
S31500001D1000D14A69A260019B002BEEDDA36A320066
S31500001D201F002800019B216AB847002807DCA2890A
S31500001D304023012013431BB2A3814042FEBD019BF9
S31500001D4036181B1A0193E6E7010040200B6970B5AF
S31500001D5005000C0013B90025280070BD18B1036AF0
S31500001D600BB9FFF79DFC0C22A35E002BF3D0626E2D
S31500001D70D20704D49B0502D4A06DFFF758FE2800B5
S31500001D802100FFF761FF636E0500DB07E4D4A3893A
S31500001D909B05E1D4A06DFFF74BFEDDE770B50E00A5
S31500001DA01D000E23C95E140096B000290CDAB28914
S31500001DB08023110019401A4214D140F2004300203A
S31500001DC02960236016B070BD6A4600F04FF80028FF
S31500001DD0EDDB4FF2000301991940044BC9184B4241
S31500001DE05941EAE700214023E9E7C04600E0FFFF4A
S31500001DF0F0B502268B8905000C0085B0334207D06A
S31500001E0023004733236023610123636105B0F0BDDE
S31500001E1003AB02AAFFF7C2FF029F01903900280018
S31500001E20FFF782FE40B90C22A35E9A05EED4032288
S31500001E3093431E43A681E3E78023A28920601343D0
S31500001E40A381039B206167615BB128000E23E15EDD
S31500001E5000F01EF828B10323A2899A43023B1343DC
S31500001E60A381A389019A1343A381CFE7002370B509
S31500001E70064D0400080011002B6000F041F9431CD8
S31500001E8002D12B6803B1236070BDC04680070020D5
S31500001E90002370B5054D040008002B6000F088FA99
S31500001EA0431C02D12B6803B1236070BD800700205C
S31500001EB0002370B5054D040008002B60FFF766FA95
S31500001EC0431C02D12B6803B1236070BD800700203C
S31500001ED0094B10B50400186818B1036A0BB9FFF76F
S31500001EE0DFFB0020132C06D8044BE400E358013333
S31500001EF001D0024BE01810BD0C0000209C0700200A
S31500001F00F8B50400FFF78CFD132605000027301CEA
S31500001F10391CABBE061C2E602000F8BD10B5431C54
S31500001F2001D1FFF7EDFF10BD30B585B001AD0190D1
S31500001F30029103920624201C291CABBE041C20001F
S31500001F40FFF7ECFF05B030BD70B50E001400FFF7CB
S31500001F50BFFF050030B9FFF763FD092303600120C9
S31500001F60404270BD220031000068FFF7DDFF431CD0
S31500001F70F5D06B68201A1B186B60F2E7F7B50C00FA
S31500001F801600FFF7A5FF050038B9FFF749FD09233D
S31500001F900360012464422000FEBD022E03D9FFF730
S31500001FA03FFD1623F4E7012E12D14368E418F6D458
S31500001FB06F462B680A2600937C60301C391CABBE2A
S31500001FC0061C3000FFF7AAFF0028E2DB6C60E2E7A0
S31500001FD00368022EECD16F4600930A36301C391C7A
S31500001FE0ABBE061C3000FFF799FF24180130DFD185
S31500001FF0CFE710B5FFF7C2FF10BD30B585B001AD14
S315000020000190029103920524201C291CABBE041CDE
S315000020102000FFF783FF05B030BD70B50E00150038
S31500002020FFF756FF040030B9FFF7FAFC09230360F7
S315000020300120404270BD2A0031000068FFF7DDFF35
S31500002040031EF5DB6268281A12186260AB42F1D1F2
S315000020500020FFF755FFEDE737B50224019001ADEB
S31500002060201C291CABBE041C2000FFF757FF3EBDF9
S3150000207070B50500FFF72CFF040030B9FFF7D0FC60
S31500002080092303600120404270BD013D012D09D89E
S31500002090094B9A681B699A4204D101235B4203608B
S315000020A00020F1E72068FFF7D7FF0028ECD10123D5
S315000020B05B422360E8E7C0469C07002070B50C0031
S315000020C0FFF706FF050030B9FFF7AAFC09230360F6
S315000020D00120404270BD42F2000362680C261343A1
S315000020E0636040F20043A364301C291CABBE051C90
S315000020F02800FFF713FF431CEAD020610020E9E720
S3150000210070B50C000500582200212000FFF73AFCAC
S3150000211028002100FFF7D2FF70BD70B50D00040046
S31500002120582200212800FFF72DFC2000002100F096
S3150000213013F80400431C0CD048F200136A68290007
S3150000214013436B60FFF7BAFF05002000FFF790FF0F
S315000021502C00200070BDFFFFF0B50E00002599B0E1
S315000021600090294AEB0001939B181B68013335D078
S315000021700135142DF5D1FFF753FC18233EE0022359
S31500002180F403E40F1E4200D01C4340F201631E42DA
S3150000219001D004231C4308231E4202D00422944388
S315000021A01C43009B18000293FFF74CFC7C60B86050
S315000021B00124201C391CABBE041C002C09DB124B6D
S315000021C0EA009C501300104A9446002263445A6069
S315000021D017E02000FFF794FE050012E040F600230A
S315000021E0320002AF1A409A42C9D139000098FFF76F
S315000021F094FF0130C3D0FFF713FC112301250360C0
S315000022006D42280019B0F0BD9C070020F0B585B0DE
S3150000221000900191264800211500FFF79DFF04005C
S315000022202A0000210098FFF7ADFB631C13D02000A5
S31500002230FFF74EFE0C260700301C391CABBE061CF1
S315000022403000FFF76BFE032802DD0338A84206DCE8
S315000022502000FFF70DFF0120404205B0F0BD03AEA0
S31500002260042231002000FFF76FFE0328F0DD3378EB
S31500002270532BEDD17378482BEAD1B378462BE7D1AF
S31500002280F378422BE4D1012220000199FFF776FE74
S315000022900028DDDB2A0000992000FFF755FE050027
S315000022A02000FFF7E5FE2800FFF738FED5E7C04619
S315000022B020260000F7B501240021094E094D01AF83
S315000022C02200380031602C60FFF7A0FF002805DDF2
S315000022D002223B781C40134034602B60F7BDC04699
S315000022E0600000205C00002010B5044C2368002B21
S315000022F001DAFFF7DFFF206810BDC0465C00002052
S31500002300F0B5264B85B001930025032301ACA360ED
S3150000231001266560301C211CABBE061C0122204B29
S3150000232052421E601F49EB005B1801351A60142DDE
S31500002330F8D1FFF7D9FF1C4DB8B1184B0322019312
S315000023400423A26001266360301C211CABBE071C5F
S31500002350164B1F60114B01930323A3600533636083
S31500002360301C211CABBE061C2E602B68013302D12B
S315000023700E4B1B682B600026094B0A4C1B686660D7
S315000023802360FFF7B1FF30B1084BE6601B6866615A
S31500002390A3602B68236105B0F0BDC0463626000059
S315000023A0980700209C070020900700209407002033
S315000023B070B5FFF78DFD0924050020B9FFF730FB46
S315000023C00460002070BD201C291CABBE041C20002C
S315000023D0012CF7D0FFF724FB132504000026281C48
S315000023E0311CABBE051C2560EBE7FFFF4275696C2F
S315000023F07420776974682052656E65736173204135
S315000024006476616E63656420466C657869626C65A6
S3150000241020536F667477617265205061636B6167E4
S31500002420652076657273696F6E20352E322E300008
S31500002430352E322E3000000000000205F8B5C046E9
S31500002440F8BC08BC9E467047F8B5C046F8BC08BC48
S315000024509E4670475465726D696E616C000000009F
S31500002460284E554C4C29000045787465726E616C97
S3150000247020497271204F70656E206661696C6564D3
S315000024800A00000045787465726E616C20497271AD
S3150000249020456E61626C65206661696C65640A0040
S315000024A0705F6172677320697320656D7074790A55
S315000024B0000000007961790A00000000456E74652D
S315000024C07265642068616C5F656E747279000000E5
S315000024D04255464645525F31000000005468697314
S315000024E0206973207468652076616C756520782094
S315000024F03D2025640A00FFFF000000000000545440
S31500002500522052454747455300FFFFFFC2090000CE
S31500002510DA080000DA080000DA080000DA0800002D
S31500002520DA080000DA080000DA080000DA0800001D
S31500002530DA080000DA080000AC0A0000480A0000C9
S31500002540DA080000DA080000DA080000DA080000FD
S31500002550DA080000DA080000DA080000DA080000ED
S31500002560DA080000DA080000DA080000280A00008D
S31500002570DA080000DA080000FE090000DA080000A8
S31500002580E0090000DA080000DA080000C2090000CD
S315000025903031323334353637383941424344454693
S315000025A060050020AC25000004260000060200019C
S315000025B0030000004D0C00000000000000000000B9
S315000025C003000000CC250000000000000000010010
S315000025D008010000004000000602000000000100A3
S315000025E000030000070000000000000000000000DB
S315000025F000000000000000000000000000000000D5
S3150000260000000000110E0000890E0000990E000067
S31500002610090E0000A90E00000100020008001000CB
S315000026203A73656D69686F7374696E672D66656167
S315000026307475726573003A747400FFFF0000000041
S3150000264000000000030000004406002010000020E7
S315000026500000000044060020AC06002014070020FD
S315000026600000000000000000000000000000000064
S315000026700000000000000000000000000000000054
S315000026800000000000000000000000000000000044
S31500002690000000000000000000000000FFFFFFFF38
S311000026A0FFFFFFFFBD0400008D040000DA
S31501010018FFFFFFFFFFFFFFFFFFFFFFFFFFFFFFFFE0
S31101010028FFFFFFFFFFFFFFFFFFFFFFFFD0
S705000013D512
