S00B00006D6D702E73726563CF
S31500000000A85E0020B526000095240000B126000059
S31500000010B1260000B1260000B1260000B12600007E
S31500000020000000000000000000000000B1260000F3
S31500000030B126000000000000B1260000B126000035
S31500000040BD200000C92000007517000075170000CC
S31500000050000000000000000000000000000000009A
S31500000060000000000000000000000000000000008A
S31500000070000000000000000000000000000000007A
S31500000080000000000000000000000000000000006A
S31500000400FFFFFFFFDFCEFFFFFCFF0F00FFFF0F0028
S31500000410FCFF0F00FFFF0F00FCFF0F00FFFF0F00A8
S31500000420FCFF0F20FFFF0F20FCFF7F40FFFF7F40F8
S31500000430FCFF0D40FFFF0D40FFFFFFFF40F26C0089
S3150000044040F26C03C2F20000C2F2000310B5834210
S3150000045005D040F20003C0F2000303B1984710BD77
S3150000046040F26C0040F26C03C2F20000C2F20003DC
S315000004701B1A9A10D90F8918491010B529B140F2E4
S315000004800003C0F2000303B1984710BD10B540F257
S315000004908004C2F20004237873B9FFF7CFFF40F25D
S315000004A00003C0F200032BB143F2B860C0F20000B3
S315000004B000E000BF0123237010BDC04640F20003D8
S315000004C0C0F2000310B54BB140F2840143F2B860AC
S315000004D0C2F20001C0F2000000E000BFFFF7C0FF5B
S315000004E010BDC046C368F0B5C64698468768040086
S315000004F040680D0000B5FE1AC0189044964208D90F
S3150000050002F033FBBFF35F8F4346E36080BCB8461F
S31500000510F0BD320002F029FB4346DB1B1A0060687F
S31500000520A919984602F021FBBFF35F8FECE7C0469E
S31500000530F8B54746CE46884680B51600070040F215
S315000005400009C56884681CE0013B5B1B641BB44260
S3150000055000D934009C4200D91C007868220041462C
S31500000560401902F002FB2D19A144A044361BBC68B9
S31500000570631B5A1E93415B421D40BFF35F8FFD60B4
S3150000058036B13B699D42DFD3013B1B195B1BDDE79F
S315000005904846C0BCB946B046F8BDC04610B540F2A4
S315000005A0AC44C2F20004A8220021200002F086FA20
S315000005B0032343F2BC222361636140F2AC03C0F221
S315000005C00002C2F20003A261E36140F2004323622B
S315000005D00023A3626362E362226640F29C02C2F2D7
S315000005E0000262661022A2662367E3666367BFF3B2
S315000005F05F8F054A00215156013AE1540133102B11
S31500000600F8D1BFF35F8F10BDEB330000431C70B50C
S3150000061004005800C01840F2AC43C2F200039C46E6
S3150000062063001B19DB006344DC6AC00015006044EC
S31500000630012C14D0022C0DD0FCB99A6A5E6AB24223
S3150000064022D9013A961BB54207D82A00FFF74AFF7E
S315000006502C0002E0FFF76CFF0400200070BD9A6AD0
S315000006605C6AA2420BD9013A121B2C00954200D9B2
S3150000067014002200FFF736FFEFE70024EDE71B6AC0
S31500000680D218013A121BF0E71B6AD218013A961BE0
S31500000690D9E7C046F8B540F2AC43C2F200031B7876
S315000006A004000D001600532B01D0FFF777FFEFF380
S315000006B01087012181F31088320029002000FFF7FE
S315000006C0A5FF87F31088F8BD10B5FFF767FF10BDCB
S315000006D010B5040082686368501C984207D82368E6
S315000006E099540200E368A0600133E36063689A42AC
S315000006F000D010BD21682069FFF7CCFFA36898429F
S3150000070003D001235B42E360F3E70023A360F0E735
S31500000710F8B54E4645465746DE46E0B51E000A9BEE
S315000007200F008046150099460B99974200D271E05A
S315000007303B000122B3FBF5F301329D42FAD9B246E2
S31500000740964200D2924601231A000A4093460B4273
S3150000075002D14B46002B42D14346DB680124002BD5
S3150000076002DA27E06C43013E012EFBD8B7FBF4F317
S315000007709D4204D86C43B7FBF4F39D42FAD943F289
S315000007807446C0F2000606E0B4FBF5F3AC420DD3A6
S315000007901C00B7FBF3F322005A43F1564046BF1A3A
S315000007A0FFF796FF4346DB68002BEDDA5B460BB19D
S315000007B04B468BB9F0BCBB46B246A946A046F8BD2F
S315000007C001235B429C4620214046E144FFF780FF1F
S315000007D04346DB68002BEDDBD145F1D8EAE7202460
S315000007E0890714D57442744124012034D145B3D904
S315000007F001235B429C4621004046E144FFF768FF27
S315000008004346DB68002BD5DB4A46002AA6D0D145F5
S31500000810EED8A1E7012292E7F0B5DE4657464E46EE
S315000008204546E0B59DB00CAB9A4607934023089326
S3150000083000230C00914640F2010B804609930A936F
S31500000840B24B0B900293002161560134002967D008
S31500000850252907D007A8FFF73BFF0A9B002BF2DAF2
S315000008601F0066E00023E356002702250820042225
S31500000870611C2D2B0CD02D2B0EDC232B11D02B2BFA
S315000008803CD10C0017430023E356611C2D2BF2D1FB
S315000008905B460C001F43F6E7302B05D10C002F43B7
S315000008A0F1E70C000743EEE71A00303AD2B2002611
S315000008B0092A0DD8B20096197600F6180023CB56F1
S315000008C00C001A00303AD2B2303E0131092AF1D971
S315000008D02E2B00D1B6E000230025E3560C0004229F
S315000008E01900914368290BD0252B13D0583BDBB256
S315000008F0202BB2D8029A9B00D3589F460026EAE7DF
S3150000090004210023E35601341A008A43682AF8D0EA
S31500000910252BEBD1252107A8FFF7DAFE0A9B9DE7D9
S315000009200A9F4546002F04DD099C002C00D0A3E059
S315000009303F1938001DB0F0BCBB46B246A946A046DA
S31500000940F0BD4B4649461B6807A81A1D0A60196880
S3150000095010222B0001970096FFF7DAFE0A9B7DE72F
S315000009604B4649461B6807A81A1D0A6019680A22E1
S315000009702B0001970096FFF7CBFE0A9B6EE74B46CE
S3150000098049461B681A1D0A601D683DB9A6E007A8FE
S31500000990FFF79EFE0A9B002B00DA61E700216956ED
S315000009A001350029F3D158E74B4649461B6807A88D
S315000009B01A1D0A6019680023019308330093102258
S315000009C0FFF7A6FE0A9B49E74B4649461B681A1DD8
S315000009D01B680A60DA1703939B1853400122092B00
S315000009E006DD0A201900013293FBF0F36329F9DCD6
S315000009F00495954263D3002E44D100260A9B002B12
S31500000A0000DA2DE7039B002B6DDB7B0776D40323EF
S31500000A103B40022B00D17BE02B000A220399019771
S31500000A20009607A8FFF774FE0A9B17E74B46494650
S31500000A301B6807A81A1D0A6000215956FFF748FED1
S31500000A400A9B0BE70123E3561A00303AD2B2092A71
S31500000A5059D800250C002A009500AD186D00EA183B
S31500000A6000230134E356303A19003039C9B2092956
S31500000A70F2D91500611C31E7220051462800FFF724
S31500000A8009FE55E70223039A3B40002A1BDB7A073F
S31500000A9019D4002B55D0FDB1FB071DD40597049F33
S31500000AA0BE4218D9202107A8FFF712FE0A9B013E75
S31500000AB0002B00DAD4E6002EF2D1059F9FE70492C0
S31500000AC0002EDFD199E7013E03B12DB1FB0703D418
S31500000AD0002EE3D191E7059F0A9B90E743F2C825D4
S31500000AE0C0F200055AE75B422D2107A80393FFF7E2
S31500000AF0EFFD0A9B002B8ADA1F001AE72B2107A8B5
S31500000B00FFF7E6FDF5E700250131E7E6F0330000E3
S31500000B10002D00D080E7002E00D17DE7049BB34274
S31500000B2017D2302107A8FFF7D3FD0A9B013E002B01
S31500000B3000DA95E6002EF1D1002B00DB6CE71F00F2
S31500000B40F7E6FB07AAD50A9B002B00DB64E71F002C
S31500000B50EFE60A9BF0E7C0460EB400B582B003ABE1
S31500000B6002CB01AA0193FFF757FE02B008BC03B0FF
S31500000B701847C04610B503C800F076FC040008B953
S31500000B80200010BD43F2D0210020C0F20001FFF783
S31500000B90E3FFF5E710B5006800F0D0FA040008B9E5
S31500000BA0200010BD43F2E4210020C0F20001FFF74F
S31500000BB0D3FFF5E710B5006800F04CFA040008B959
S31500000BC0200010BD43F2E4210020C0F20001FFF72F
S31500000BD0C3FFF5E710B5006800F09AFA040008B9FB
S31500000BE0200010BD43F2D0210020C0F20001FFF723
S31500000BF0B3FFF5E710B5006800F050FA040008B935
S31500000C00200010BD43F2D0210020C0F20001FFF702
S31500000C10A3FFF5E710B503C800F020FF040008B9EC
S31500000C20200010BD43F2F8210020C0F20001FFF7BA
S31500000C3093FFF5E710B58168006801F015F8040028
S31500000C4008B9200010BD43F20C310020C0F20001AB
S31500000C50FFF782FFF5E7C04610B5006800F060FEBA
S31500000C60040008B9200010BD43F220310020C0F274
S31500000C700001FFF771FFF5E770B506000D0000688B
S31500000C80002100F085FE01E02B787BB12900306859
S31500000C9000F032FE04000028F6D043F23431002082
S31500000CA0C0F20001FFF758FF200070BD43F2483143
S31500000CB00020C0F20001FFF74FFFF5E740F268534E
S31500000CC040F25C5143F23C50C2F200031A6810B580
S31500000CD00132C2F20001C0F200001A60FFF77AFF8B
S31500000CE040F25853C2F20003186010BD70B540F2CE
S31500000CF0645440F25C5143F23C50C2F20004236853
S31500000D00C2F20001013340F25855C0F200002360E0
S31500000D10FFF760FF40F25453C2F20005286040F628
S31500000D209F70C2F2000321681A688A1A824219D893
S31500000D3040F26C5340F26C74C2F200039C4643F2DC
S31500000D408440C2F200042288012152006244C0F2AB
S31500000D500000FFF781FFFF2322882860013213403D
S31500000D60238070BD196043F26C310020C0F200018F
S31500000D70FFF7F2FEDCE7C04610B583780B2B00D0F8
S31500000D8010BDEFF30380103840B201F0D5FBF7E752
S31500000D9070B543F28445C0F20005280040F258546D
S31500000DA0FFF738FFC2F2000420602800FFF742FF79
S31500000DB0206070BD30B583B0FFF786FC002301A824
S31500000DC0019301F02BFB43F27431019AC0F200014A
S31500000DD00020FFF7C1FE43F28C310020C0F2000173
S31500000DE0FFF7BAFE43F2E04040F25854C0F200006A
S31500000DF0FFF7C0FEC2F20004206043F2E040C0F2FA
S31500000E000000FFF7C7FE40F6BD41206043F2E04018
S31500000E1000230022C0F20001C0F20000FFF7EAFE44
S31500000E20206043F23C50C0F20000FFF7A3FE2060B2
S31500000E3043F23C50C0F20000FFF7ACFE40F6ED4135
S31500000E40206043F23C5000230022C0F20001C0F2B1
S31500000E500000FFF7CFFE43F284452060FFF798FFBE
S31500000E6040F27071C0F20005C2F200012800FFF7DF
S31500000E7003FF2060286800F007FD2060002001F0D5
S31500000E805BFB43F23C50C0F20000FFF793FE20608C
S31500000E9043F2E040C0F20000FFF78CFE43F2A031BF
S31500000EA02060C0F20001002040F26C74FFF754FE8F
S31500000EB0C2F2000440F26C52C2F20002944643F2BF
S31500000EC0B4312388C0F200015B0063441A88002015
S31500000ED0FFF742FEEEE7C04610B502F063F9FFF7F2
S31500000EE069FF10BD10B538B94CF2000390220121FC
S31500000EF0C4F27E03995410BD0228FCD143F29851E6
S31500000F0040F27470C0F20001C2F2000000F076F800
S31500000F10F1E7C04610B5FFF7DFFF002010BDC04661
S31500000F20F0B5DE4657464E464546E0B583B0EFF38C
S31500000F301082012383F3108840F62003C2F20003D7
S31500000F4001931B6833B940F60051C4F20401CB701B
S31500000F504033CB7001990B6801330B6082F3108824
S31500000F60038800934BB380235B029846224B40F6DE
S31500000F700005002140F2FF099C464068C4F20405C2
S31500000F804F4682880468130A3A4047461B013C4292
S31500000F900AD09F18BF00BA4666467F593740564664
S31500000FA077516746274077519B189B005C5101316A
S31500000FB0009B89B208308B42E2D1EFF31082012305
S31500000FC083F31088019B1B681BB101990B68013BD9
S31500000FD00B60019B1B6833B940F60051C4F2040153
S31500000FE0CB708033CB7082F3108803B0F0BCBB4665
S31500000FF0B246A946A046F0BDFFFFFEFF10B590B170
S3150000100089B14B6863B145F254230268C5F24F03B8
S315000010109A420AD003600800FFF782FF002010BD45
S315000010200B88002BEFD00120F9E70E20F7E7C0462A
S3150000103068B145F254030268C0F247039A4204D1EC
S315000010408368C26800209A6070470720FCE7012089
S31500001050FAE7C04668B145F254030268C0F2470396
S315000010609A4204D18368C26800205A6070470720FC
S31500001070FCE70120FAE7C04668B145F2540302686E
S31500001080C0F247039A4204D18368C2680020DA603E
S3150000109070470720FCE70120FAE7C04630B570B17B
S315000010A069B145F254040568C0F24704A54204D16B
S315000010B04161C2618361002030BD0720FCE7012049
S315000010C0FAE7C046F0B5C64600B50500806984B0AB
S315000010D08C46904601AC98B12300060086CE86C3A6
S315000010E06346037143468360EB6903606B69984707
S315000010F0AB690BB123CC23C304B080BCB846F0BDAA
S315000011002000EDE710B5002801DB01F027FA10BD3D
S3150000111090B189B145F254030268C0F247039A427E
S3150000112008D182680020D36ADB07DB0F0B71936C52
S315000011300B6070470720FCE70120FAE730B5E0B105
S3150000114045F254030268C0F247039A4213D143683A
S31500001150DA69802354689568D1681B0619431C43D5
S315000011601D43836800205D619961116952691C61A4
S3150000117059629A6230BD0720FCE70120FAE7C046B3
S3150000118010B5F0B145F254030268C0F247039A4223
S3150000119015D14268836812784C1E9C661AB94908B4
S315000011A0013959659965DA6AD20701D5002010BD63
S315000011B0AA22D2035C661A64C268DA60F6E70720E0
S315000011C0F5E70120F3E7C04698B145F254030268FB
S315000011D0C0F247039A420AD18022836812061A6136
S315000011E05A619A61002200205A629A62704707206B
S315000011F0FCE70120FAE7C046030030B538B331B347
S3150000120045F254020468C0F247020720944200D017
S3150000121030BD9A68536E01338B60D36A4EF200027A
S31500001220C4F20102146A40F6AC02C2F2000212686D
S31500001230250E0540AA400440E2405B015B0F5B00BF
S31500001240DBB2DA40012300204A600B70E0E70120A0
S31500001250DEE7C04670B5554255418C6E013425B95E
S31500001260A24202D2013A1A6070BD049D496BED0795
S315000012700CD50078C902C90E03280CD9012009092A
S31500001280884382B180B903225A60EDE70078C90627
S31500001290C90E0328F2D80C200140043948424141C6
S315000012A0C8B2002AEED110B902225A60DCE7002C3F
S315000012B0FAD0E8E7F0B5CE464746032580B50E00DE
S315000012C0140085B0154000284CD0032D4AD00C23BD
S315000012D01340426890461278062A3FD00BB1032A83
S315000012E03ED145F254030268C0F247039A4252D1F6
S315000012F087687B6E0133B3424FD3012200235242EB
S31500001300029203933900320002AB40460094FFF785
S31500001310A1FF3B6B039A99465AB902202307DB17B4
S31500001320034002990233204239D09B00FB18D9644E
S31500001330196563061CD58023396CDB030B433B64BC
S31500001340012D21D049461F4B19400B0011041943AA
S315000013508946CDB94B4600203B6304E0002BC0D143
S31500001360052000E0012005B0C0BCB946B046F0BD7E
S31500001370012D24D04946134B19400B001104194383
S315000013808946022CE5D182B949460F4B120619400F
S315000013900A439146DEE70720E5E70320E3E75B190A
S315000013A012339B00FB185960C3E7012332000093F8
S315000013B03900404602ABFFF74DFF039AE4E7022CE3
S315000013C0E2D1E0E7FFFFFCFFFFFFFFFC70B5040082
S315000013D0002847D045F254030268C0F247039A42F8
S315000013E03ED1122543685D57DE69002D29DA242394
S315000013F0F556002D16DA2523F556002D07DA0022BC
S315000014000020A368E168226099605A6370BD2800D5
S3150000141001F092F840F624030022C2F20003AD0068
S31500001420EA50ECE7280001F087F840F62403002292
S31500001430C2F20003AD00EA502523F556002DDEDB8F
S31500001440E5E7280001F078F840F624030022C2F20E
S315000014500003AD00EA502423F556002DCBDBE1E76F
S315000014600720D3E70120D1E7F0B55746DE464E46C2
S315000014704546E0B50C00070085B0002900D1CFE055
S31500001480CE69002E00D1CBE0002800D1C8E00123B0
S315000014900A7A134200D0C3E00A2A00D9C0E00978CC
S315000014A0032900D9C4E045F254020068C0F247029D
S315000014B0904200D131E1227C9340FB605B0600D173
S315000014C028E16369002B00D1F1E0A17C7F2900D9D6
S315000014D046E11100481E8141397440F28071C0F224
S315000014E040018C46002162447B61A36912027C6044
S315000014F0BA60FB61B961EFF3108040F2010888F32E
S31500001500108846F6FC72C4F20402D3689C46237C1B
S315000015105D1EAB411F255B42AB436546213B2B401D
S31500001520D360D36880F310884AF20053BD686068C0
S315000015302B60E962E963A964237A421E5B081B06F5
S315000015409C4623789A46032B00D1B4E06346EB62AF
S3150000155080231B062B616B61AB61B3696962A9626B
S31500001560EB61F3692B62F36AAA666A660122994601
S3150000157000235242029203935346002B00D0CEE042
S315000015804008013868650290A86540F2010B032106
S315000015904A46002A4ED13278E2B1727820788446E3
S315000015A0900181464B46100118436346022B00D139
S315000015B0D8E0032B00D1D9E013005A425A4140F239
S315000015C0020C634652429A430932024340F200102B
S315000015D002439146B278002A5BD02378F2789C4683
S315000015E01001930118436346022B00D1BCE0032B84
S315000015F000D1BDE013005A425A4140F2020C634644
S3150000160052429A4309324B460243802012041A433F
S3150000161040041043814600228820AA632A503BE0FA
S31500001620012005B0F0BCBB46B246A946A046F0BDB7
S315000016300520F6E700228820AA632A50AA22D203B0
S315000016402A645246012A02D10022EA642A65FA680F
S315000016505B46EA604A4612206A6329632B633A00B6
S31500001660617C2056FFF74EFD2223F15C0233F056D3
S315000016703A00FFF747FD2323F15C0233F0563A00A8
S31500001680FFF740FD45F25403C0F2470300203B60DC
S31500001690C7E78820AA632A5020222120B25C305C4A
S315000016A0520340070243484610438146C6E70129D4
S315000016B000D00EE709E78020634640020343EB6251
S315000016C080231B062B616B61AB61B3696962A962FA
S315000016D0EB61F36978682B62F36AAA666A6601228F
S315000016E09946002352420292039302ABE2680091AC
S315000016F029009B46FFF7AEFD029B6B65AB655B461B
S315000017005A68032113041206134301221943134393
S315000017109B463DE740F27A5083E70E2081E7012B96
S3150000172003D1023B6B65AB652FE7E26802AB7868D5
S31500001730009129009B46FFF78DFD5246029B6B6583
S31500001740AB65032ADBD9EB652B665B465A6803213A
S315000017501304120613434246194313439B4617E7E5
S315000017600B205EE7092230E709224CE703222CE72B
S31500001770032248E770B5EFF30384103C64B22000FF
S3150000178000F0AEFE40F62403A200C2F20003D558D4
S315000017906B681B78012B07D06B6923B100220021EF
S315000017A02800FFF78FFC70BDEA68AB6820009A60DE
S315000017B000229A64DA641A6500F0A0FEECE7C046DF
S315000017C030B570B169B144F243448568C5F241242D
S315000017D0A54204D181610262C361002030BD0720A9
S315000017E0FCE70120FAE7C04606207047062070474E
S315000017F070B5C56904000E0088B0A5B12022290085
S31500001800684601F0B2F920223100280001F0ADF956
S315000018102800A3699847E06918B12022694601F0BB
S31500001820A4F908B070BD0D00F2E7C04630B504005B
S3150000183089B0EFF3038340F62402103B5BB2C2F299
S3150000184000029B009D58EFF30380103840B200F071
S3150000185047FE6B469C707D232A68D15C21B103212B
S31500001860684681700021D1546A466B681B881380D4
S31500001870002313722B6A0193AB691BB169462800DA
S31500001880FFF7B6FF09B030BDD8B144F243438268D2
S31500001890C5F241239A4210D1C36893420FD18022E8
S315000018A00368995A48F20102914202D01A88D20B73
S315000018B04AB9828A00201A8070470720FCE7212057
S315000018C0FAE70120F8E70820F6E7C04690B144F2AF
S315000018D043438268C5F241239A4207D1C3689342C3
S315000018E006D10022036800201A8070470720FCE713
S315000018F02120FAE70120F8E778B171B144F24343B9
S315000019008268C5F241239A4205D1036800201B88EC
S31500001910DB0B0B7070470720FCE70120FAE7C04697
S31500001920030010B518B312B344F243409C68C5F2E5
S315000019304120844219D1D868A04226D1C8B21F28B6
S3150000194017D8012040F2FF148840C0F2FF0420425D
S315000019500DD0586840694079012808D01B681031BD
S315000019604900CB5A0020138000E0072010BD01205B
S31500001970FCE7C41CE4B2012CEBD90C1DE9D03238CB
S3150000198004000120012CF1D8E3E72120EEE7C04650
S31500001990B8B144F243438268C5F241239A420CD15E
S315000019A00368094A1988114209D17D2203210020C2
S315000019B0995475327D31995470470720FCE71B20F6
S315000019C0FAE70120F8E7C0460082FFFF70B506007F
S315000019D00D0000283DD000293BD044F243438268E5
S315000019E0C5F241239A4232D10069A8B11D230124D0
S315000019F0D841012164420B0022000134A340184261
S31500001A00F9D033680E3252009B182B6000F0FCFEB2
S31500001A101F23181A001B013001232B721B33AB72D4
S31500001A2073684CF200021B8840F2282104335B00E5
S31500001A306B7240F229236860C4F27E02D35C525C6A
S31500001A401B021343EB60044B00202B8200E00720AF
S31500001A5070BD0120FCE7C046BEF1FFFFF0B545466C
S31500001A60DE4657464E46E0B50C00050083B000281A
S31500001A7000D1C5E0002900D1C2E00988002900D0C4
S31500001A80C0E04EF20003C4F201031E6A40F6AC0346
S31500001A900722C2F200031B68300E1040834032401A
S31500001AA0D34044F23F22C0F20F02934200D8BCE07A
S31500001AB066690120337801930023F356002B06DD77
S31500001AC003B0F0BCBB46B246A946A046F0BDA3781B
S31500001AD0012B00D199E0F27812B16279022AEFD196
S31500001AE0E2780120042AEBD144F24342A868C5F209
S31500001AF04122904200D1B5E0E2681AB1A0797F2870
S31500001B0000D994E0AA6122696C602A620022EA6127
S31500001B104CF20002C4F205022A6062795B031002ED
S31500001B200343F078002879D040F2C02C67463B4347
S31500001B309BB2AB82022A05D143F288628000C0F2D2
S31500001B400002115A44F20000727852010243944690
S31500001B50EFF31089012282F3108846F6FC72C4F274
S31500001B600402D76840F2100AB8462788BB46574693
S31500001B7058463F1A380001278740380047468743B2
S31500001B80D760D26889F3108847F6FF502A68034069
S31500001B90138063469BB21182D38180230021019F6B
S31500001BA09F4370331773D1523379002B49D10620E6
S31500001BB02056002803DB2A00617A00F0CFFC0720BC
S31500001BC02056002803DB2A00A17A00F0C7FC062075
S31500001BD03056002803DB2A00317A00F0BFFC0720CC
S31500001BE03056002803DB2A00717A00F0B7FC002388
S31500001BF02B6144F24343C5F241230020AB605FE70B
S31500001C0001205DE740F27A505AE76279022A00D055
S31500001C1056E7B278022A00D052E761E7EAB948F2FD
S31500001C20400213439BB2AB828CE71B2048E7B07996
S31500001C307F2800D866E7F0797F2800D862E70B2076
S31500001C403EE7F42716310B40D3559620153900F0A0
S31500001C50F3FB2B683279DA55A9E740F2400C674668
S31500001C603B4365E70E202BE7F0B5DE4657464E466A
S31500001C704546E0B5040083B0002800D125E10029DF
S31500001C8000D122E144F243438268C5F241239A42DD
S31500001C9000D023E10A680092002A00D115E14FF630
S31500001CA000631700C9F600731F401A4200D00CE10A
S31500001CB040684A688578012D00D105E1002A00D0E8
S31500001CC003E1C023009EDB051E40B446009E1E4273
S31500001CD000D00EE1436901938B689946019B1B78FE
S31500001CE0002B00D119E14846009B13439843002876
S31500001CF000D0EAE04B46002B00D1E6E08B7C002BBF
S31500001D0000D0E2E0CB689C46B3B11B89A3B140F694
S31500001D10002005001D40854200D105E15B040BD57E
S31500001D20634658899B89984200D9CEE06346D88994
S31500001D301B8A984200D9C8E0834B00984D4618404C
S31500001D4080461000464618402B402568B6B2AE8045
S31500001D5086B2AE829EB22E814646000C360C1B0C15
S31500001D60EE80E8826B814EF20003C4F201031B6A27
S31500001D709B465846000E824640F6AC030720564660
S31500001D80C2F200031B680640B3405E463040C340C3
S31500001D9040F2E830B3FBF0F041F28833434344F2BB
S31500001DA04020C0F20F00B3FBF0F30133072B00D243
S31500001DB0072300980243924680205646800502403B
S31500001DC006420AD040F2DE0B5E46DAB2AA554A4611
S31500001DD01040421E9041421CFF3280205646C005EC
S31500001DE006420BD040F2DF0A5646DBB2AB554B46F5
S31500001DF0034200D08DE040F200231A43634692B2BC
S31500001E006A82002B00D182E01B891A0529D590220F
S31500001E10AB52624650899C22A852624690899E2205
S31500001E20A8526246126890B2814694204E4640F20D
S31500001E3096092E524E461001000DA8539220520FBD
S31500001E402A546246526890B2814698204E4640F225
S31500001E509A092E524E461001000DA8539320520F98
S31500001E602A549A050ED562466046927CC07C02438F
S31500001E70A6202A546246D089A822A8526246108A11
S31500001E80AA22A8529022AB5280230A8AEA52019BC8
S31500001E90DB788BB11F222B88934399464346002B50
S31500001EA040D0404600F0B0FC4B461F331B1A9BB295
S31500001EB02B80A28A1343A38244F24343C5F24123F3
S31500001EC0E360009B236101E052B90127380003B0AB
S31500001ED0F0BCBB46B246A946A046F0BD0727F5E7CB
S31500001EE0009E33431A42F0D1C023DB051A42ECD1DF
S31500001EF0E7E69C45E9D0144B009E1E42E5D1002D35
S31500001F00E3D143690193DB78002BDED1E4E60023BD
S31500001F10B8E740F202231A4370E74B46002B00D184
S31500001F20ECE6D2E72020BFE76046857C1F20A8426A
S31500001F308041404280002D1A0120A84065462D6848
S31500001F40054200D1EAE6C0E7FFFFFF9FF8B50400AF
S31500001F50002800D173E044F243438268C5F241236E
S31500001F609A4200D069E00027062543688760C7606B
S31500001F705D575E69002D51DA07255D57002D3EDA63
S31500001F8006257557002D2BDA07257557002D1CDA07
S31500001F900022002123681A821A80F4329954EFF342
S31500001FA01080012383F31088616846F6FC720C8862
S31500001FB01021091B8B40C4F20402D5682B43D36061
S31500001FC0D36880F310880020F8BD280000F0B4FA2A
S31500001FD040F624030022C2F20003AD00EA50D7E720
S31500001FE0280000F0A9FA40F624030022AD00C2F250
S31500001FF00003EA5007257557002DC9DBE5E72800E1
S3150000200000F09AFA40F624030022AD00C2F2000363
S31500002010EA5006257557002DB6DBE1E7280000F0EB
S315000020208BFA40F62403AD00C2F20003EF500725F9
S3150000203063685D57002DA3DBE1E70720C4E70120B5
S31500002040C2E7C046030010B532B328B344F243409A
S315000020509C68C5F24120844220D1D868A0422BD189
S31500002060C8B21F281CD8012040F2FF148840C0F2D5
S31500002070FF04204210D0586844696479012C0BD0C3
S315000020801B6810314900CB5A01799BB2012900D156
S315000020901B040020136000E0012010BD0720FCE7B0
S315000020A0C41CE4B2012CE6D90C1DE4D0323804007D
S315000020B00120012CF1D8DEE72120EEE710B5002043
S315000020C0FFF7B4FB10BDC046F0B5DE4657464E4698
S315000020D04546E0B589B0EFF3038440F62403103C8F
S315000020E064B2C2F20003A200D6586D4673685A69FC
S315000020F0927952B2A24228D00C22AA701B8832686A
S315000021002B80A623D35C9B06990E0B001F2917DC98
S31500002110AC2101202B72535C83435354336A6B60AA
S31500002120B3691BB129003000FFF762FB200000F005
S31500002130D7F909B0F0BCBB46B246A946A046F0BDE9
S315000021400F230B40033B5BB2E2E70B22AA701B880E
S315000021502B8000232B7233689846A0234246D15A1F
S315000021608BB29B46A223D05A83B29A46A423D25C52
S315000021700004D7B25207801840184208B9461F21FA
S315000021800127D2B33B0040001340520818430139DF
S31500002190002AF7D1884048B300F036FB0F280CDD43
S315000021A0C3B21C2814DC0F2213409F4053464146FD
S315000021B0BB4393328B522872B0E78740FF4340B24D
S315000021C0BFB25B4642461F40A0232872D752A5E7FE
S315000021D0032249461A4091434746A4222872B9541D
S315000021E01D2B9BD0203B5BB22B7297E7A423424664
S315000021F04946D15400232B7290E718B100204FF6C0
S31500002200FE77DEE742464946D1542023EAE7C04638
S315000022104EF20003262240F26C01C4F20103985CE0
S315000022201B6A8000C2F2000141585B015B0F40F659
S31500002230AC02D940C2F20002116070477047C04636
S315000022404EF2000340F2FE325C49C4F2010370B55F
S3150000225099524CF2000240F200110020C4F2010231
S31500002260505240F26C0446F60042C2F20004C0F23C
S31500002270DC22226041F20022C0F27A02626048F259
S31500002280000241F60031A26022612622C0F2B701A7
S31500002290E160995C1A6A890061585201520F40F652
S315000022A0AC05D140C2F20005296040F2134200217C
S315000022B09954A2220921995440F280429A5C32B97B
S315000022C040F281429B5C9B07002B00D171E04EF2ED
S315000022D0000640F28043C4F20106F25C002A5CD09C
S315000022E04EF20003002240F28141C4F201035A5427
S315000022F001395A544EF20002A023C4F20102D35C03
S31500002300CBB13623D35C1BB93C21535CDB07FCD530
S315000023104EF20002A021C4F20102535CDB06D80F84
S31500002320002BFADB50544EF20002A021C4F2010247
S31500002330535CDB06FCD44EF2000200213623C4F2C5
S315000023400102D1543C31535CDB07FCD5012031231B
S31500002350D054D033C1F20003136200212623D15496
S31500002360D15C136A890061585B015B0FD94040F26A
S31500002370FE3329601249D1524CF2000240F2041396
S3150000238040F20411C4F20102D052535A002BFCD180
S3150000239001210133FF33D15270BD0132F2540121C4
S315000023A0C82000F049F840F28042B35C012BFCD112
S315000023B096E740F2E830FFF741FF9BE703A5FFFFF2
S315000023C000A5FFFF70B544F2000428230025C4F2DF
S315000023D00404E5540121C82000F02EF82423242209
S315000023E0E554A35C002BFCD10221A35C24200B4303
S315000023F0A35444F20002C4F20402135C9B07D90FF3
S31500002400002BFADB2223D15444F200022221C4F22B
S315000024100402535C002BFCD170BDC04628B10023DA
S31500002420C0F202530360002070470120FCE7C0465B
S3150000243001380028FCD1704740F6AC024CF6002368
S315000024404143C2F2000270B51468C3F69A330D0018
S31500002450B3FBF4F4080040F2E8320023002100F058
S31500002460F1F931B9B0FBF4F0800808B1FFF7E0FFED
S3150000247070BDA000B5FBF0F040F2E8320023002169
S3150000248000F0E0F90029F0D001204042FFF7D0FF2C
S31500002490EEE7C046F8B546F2000340F2201240F2DD
S315000024A0E07500240127C4F200039E5A20329B5A8D
S315000024B0C2F200051E403300E3401F4203D02B68E2
S315000024C00BB1E0B2984701340435102CF3D146F233
S315000024D0000340F23012C4F200039E52F8BDC0461B
S315000024E046F20003C0308000C4F20003C25802491D
S315000024F00A40C250C3587047FFFFFEFF030046F272
S31500002500000210B5C033C4F200029B009958094C72
S31500002510214099509B58BFF35F8F1F210122014034
S315000025208A404EF2001143096033CEF200019B004F
S315000025305A5010BDFFFFFEFF1F21012201408A40B5
S315000025404EF2001143092033CEF200019B005A508F
S31500002550BFF34F8FBFF36F8F7047C046F0B5C646C7
S3150000256090464EF20012FF240325CEF20002944656
S31500002570220040F200370540ED008901AA400C40D8
S31500002580AC4083089B006344DE5900B5964326435E
S31500002590DE5140F6240342468100C2F200035A503F
S315000025A0030046F20002C033C4F200029B009958B1
S315000025B00C4C214099509B58BFF35F8F1F2201237B
S315000025C0024093404EF20012CEF20002944640F2D0
S315000025D080124009800060448350036080BCB84686
S315000025E0F0BDC046FFFFFEFF46F200000023C4F226
S315000025F0000043F20462C0F200029A1812781AB17F
S315000026001900C03189000A500133202BF1D17047DF
S3150000261030B5EFF31081012383F3108840F6A4034D
S315000026204000C2F200031A5A1AB11A5A013A92B27B
S315000026301A521B5A83B94EF2000243F2946340F2D7
S31500002640FE34C4F20102C0F20003155B185A044BB3
S315000026502B4383439BB2135381F3108830BDC0468E
S3150000266000A5FFFF70B5EFF31081012383F31088F7
S3150000267040F6A4024000C2F20002135A83B94EF299
S31500002680000443F2946540F2FE36C4F20104C0F23F
S315000026900005A35B2D5A2B434AF200552B43A35347
S315000026A0135A01339BB2135281F3108870BDC04692
S315000026B000BE704710B500F003F8FEF72BFCFEE7EE
S315000026C0F0B54EF6005340F20005CEF20003C0F21C
S315000026D0000583B09D600020FEF704FCFFF7B0FD07
S315000026E06B460027DC1D277001202378FFF7BAFF11
S315000026F0EFF31081012686F3108846F6FC73C4F2C8
S3150000270004039A683C4802409A609A6881F31088EC
S3150000271040F60001C4F204010A68D207D20F227003
S315000027200A68D207D20F22700A68D207D20F227027
S31500002730EFF3108186F310888022986852050243D1
S315000027409A609B6881F310880120FFF761FF0120E2
S31500002750FEF7C8FB40F60053284AC4F200039F80E8
S3150000276027491A802A6841F2000051189960DA60F8
S3150000277046F2000240F22011C4F20002505240F626
S31500002780A42240F28000C2F20002C2F200009E8043
S315000027900021121A00F092F940F2000040F26C0299
S315000027A043F2BC61C2F20000C2F20002121AC0F289
S315000027B0000100F0DAF940F2640540F26803C2F263
S315000027C00005C2F200035B1B9E10002B05DD0024F2
S315000027D008CD01349847A642FADCFFF719FDFFF74A
S315000027E0F1FD0220FEF77EFBFFF7FEFE002000F063
S315000027F009F803B0F0BDC046FFFFFFEF00A5FFFFDD
S3150000280000B0FFFF7047C0461C2101231B049842FD
S3150000281001D3000C10391B0A984201D3000A08396B
S315000028201B09984201D30009043902A2105C401822
S315000028307047C046040302020101010100000000C6
S3150000284000000000F0B54FF6FF750400CE462C40A0
S31500002850474615400E002900994680B5130C07001F
S31500002860000C61434543584363430C0C5B19E41861
S315000028708C46A54203D980235B0298464044230C2C
S3150000288061461B184FF6FF70084049465643794388
S31500002890240489192018C918C0BCB946B046F0BD31
S315000028A0002310B5040003604360836081814366A2
S315000028B0C281036143618361190008225C3000F024
S315000028C0FDF80B4B246263620A4BA3620A4BE36278
S315000028D00A4B23630A4B9C4205D00A4B9C4202D00A
S315000028E0094B9C4203D12000583000F03BF910BD43
S315000028F0252A00004D2A0000852A0000B12A000082
S31500002900B0080020180900208009002010B5034AED
S315000029100349044800F06AF810BDC04600000020D4
S31500002920412D00001000002041680B4B10B504003B
S31500002930994201D000F004FAA168084B994202D0EE
S31500002940200000F0FDF9E168054B994202D0200015
S3150000295000F0F6F910BDC046B008002018090020A6
S315000029608009002010B5094B094A04211A6009485C
S315000029700022FFF795FF012209210748FFF790FF84
S31500002980022212210548FFF78BFF10BDE80900203F
S315000029900D290000B0080020180900208009002039
S315000029A010B5024800F0DFF810BDC046F10900205E
S315000029B010B5024800F0D8F810BDC046F109002055
S315000029C010B50400FFF7ECFF236A13B1FFF7F0FF21
S315000029D010BD044B2362044B1B68002BF6D1FFF796
S315000029E0C1FFF3E729290000E8090020F7B5140024
S315000029F0002600900191A5686768013F04D5246808
S31500002A00002CF8D13000FEBDAB89012B08D90E226F
S31500002A10AB5E013304D029000098019B984706431A
S31500002A206835EAE770B50C000E25495F00F070F8CE
S31500002A30002803DB636D1B18636570BDA389024A1A
S31500002A401340A381F9E7C046FFEFFFFFF8B51F006B
S31500002A508B8905000C001600DB0505D50E23C95E23
S31500002A600022022300F042F8A389054A28001340F9
S31500002A70A38132000E23E15E3B0000F05BF8F8BD57
S31500002A80FFEFFFFF70B50C000E25495F00F02EF832
S31500002A90A389421C03D1054A1340A38170BD41F2AC
S31500002AA000021343A3816065F8E7C046FFEFFFFF0E
S31500002AB010B50E23C95E00F009F810BD0300821898
S31500002AC0934200D1704719700133F9E7002370B5BE
S31500002AD0054D040008002B6000F02AFA431C02D1C1
S31500002AE02B6803B1236070BDEC09002070B50400AB
S31500002AF0080011001A000023044D2B6000F0D9F9DC
S31500002B00431C02D12B6803B1236070BDEC09002081
S31500002B1070B50400080011001A000023044D2B6054
S31500002B2000F072F9431C02D12B6803B1236070BD1B
S31500002B30EC09002070B50400080011001A000023FB
S31500002B40044D2B6000F0C9F9431C02D12B6803B178
S31500002B50236070BDEC090020014B18687047C04621
S31500002B600C000020704770477047002310B59A424A
S31500002B7000D110BDCC5CC4540133F8E70023C25C1D
S31500002B800133002AFBD1581E7047FFFF70B50500C0
S31500002B900C0079B1043C2368002B00DAE418280005
S31500002BA000F03CF81C4A13682BB9636014602800D7
S31500002BB000F03CF870BDA34208D9206821188B426A
S31500002BC0F3D119685B6809182160EEE71A005B68A3
S31500002BD00BB1A342FAD911685018A0420BD1206854
S31500002BE00918501811608342E1D118685B684118D2
S31500002BF011605360DBE7A04202D90C232B60D6E7B5
S31500002C00206821188B4203D119685B680918216076
S31500002C1063605460CBE7C046F409002010B5024853
S31500002C20FFF7A1FF10BDC046F009002010B502480D
S31500002C30FFF79AFF10BDC046F0090020F7B50C2239
S31500002C408B5E05000C001A0753D44A68002A02DC82
S31500002C500A6C002A4BDDE76A002F48D0002241F2B9
S31500002C6000002E682A601A00216A0240034230D012
S31500002C70626DA3895B0705D56368D21A636B0BB1D6
S31500002C80236CD21A00232800E76A216AB847A28972
S31500002C90431C06D129681D2944D8284BCB40DB07A5
S31500002CA040D50023636023692360D20404D5431C06
S31500002CB001D12B6803B96065616B2E60B9B1230041
S31500002CC04433994202D02800FFF760FF0023636374
S31500002CD00DE001232800B8470200431CC9D12B6828
S31500002CE0002BC6D01D2B01D0162B1AD12E6000202A
S31500002CF01EE00E69002EFAD00F680E60BA1B019214
S31500002D0000229B0700D14A69A260019B002BEEDDE1
S31500002D10A36A32001F002800019B216AB8470028D9
S31500002D2007DCA2894023012013431BB2A381404242
S31500002D30FEBD019B36181B1A0193E6E701004020F1
S31500002D400B6970B505000C0013B90025280070BD8D
S31500002D5018B1036A0BB9FFF733FE0C22A35E002BF2
S31500002D60F3D0626ED20704D49B0502D4A06DFFF7A0
S31500002D70FAFE28002100FFF761FF636E0500DB07FE
S31500002D80E4D4A3899B05E1D4A06DFFF7EDFEDDE752
S31500002D90094B10B50400186818B1036A0BB9FFF7A0
S31500002DA00FFE0020132C06D8044BE400E358013331
S31500002DB001D0024BE01810BD0C000020040A0020D0
S31500002DC0F8B50400FFF7C8FE132605000027301CDF
S31500002DD0391CABBE061C2E602000F8BD10B5431C86
S31500002DE001D1FFF7EDFF10BD30B585B001AD019003
S31500002DF0029103920624201C291CABBE041C200051
S31500002E00FFF7ECFF05B030BD70B50E001400FFF7FC
S31500002E10BFFF050030B9FFF79FFE092303600120BD
S31500002E20404270BD220031000068FFF7DDFF431C01
S31500002E30F5D06B68201A1B186B60F2E7F7B50C002B
S31500002E401600FFF7A5FF050038B9FFF785FE092331
S31500002E500360012464422000FEBD022E03D9FFF761
S31500002E607BFE1623F4E7012E12D14368E418F6D44C
S31500002E706F462B680A2600937C60301C391CABBE5B
S31500002E80061C3000FFF7AAFF0028E2DB6C60E2E7D1
S31500002E900368022EECD16F4600930A36301C391CAB
S31500002EA0ABBE061C3000FFF799FF24180130DFD1B6
S31500002EB0CFE710B5FFF7C2FF10BD30B585B001AD45
S31500002EC00190029103920524201C291CABBE041C10
S31500002ED02000FFF783FF05B030BD70B50E0015006A
S31500002EE0FFF756FF040030B9FFF736FE09230360EB
S31500002EF00120404270BD2A0031000068FFF7DDFF67
S31500002F00031EF5DB6268281A12186260AB42F1D123
S31500002F100020FFF755FFEDE737B50224019001AD1C
S31500002F20201C291CABBE041C2000FFF757FF3EBD2A
S31500002F3070B50500FFF72CFF040030B9FFF70CFE53
S31500002F40092303600120404270BD013D012D09D8CF
S31500002F50094B9A681B699A4204D101235B420360BC
S31500002F600020F1E72068FFF7D7FF0028ECD1012306
S31500002F705B422360E8E7C046040A002070B50C00F7
S31500002F80FFF706FF050030B9FFF7E6FD09230360EA
S31500002F900120404270BD42F2000362680C261343D2
S31500002FA0636040F20043A364301C291CABBE051CC1
S31500002FB02800FFF713FF431CEAD020610020E9E751
S31500002FC070B50D000400582200212800FFF776FD99
S31500002FD02000002100F012F80400431C0CD048F237
S31500002FE000136A68290013436B60FFF7C7FF0500EB
S31500002FF02000FFF79DFF2C00200070BDF0B50E00ED
S31500003000002599B00090294AEB0001939B181B6894
S31500003010013335D00135142DF5D1FFF79DFD182369
S315000030203EE00223F403E40F1E4200D01C4340F2AC
S3150000303001631E4201D004231C4308231E4202D012
S31500003040042294431C43009B18000293FFF796FD4D
S315000030507C60B8600124201C391CABBE041C002C0B
S3150000306009DB124BEA009C501300104A94460022DA
S3150000307063445A6017E02000FFF7A2FE050012E045
S3150000308040F60023320002AF1A409A42C9D13900F5
S315000030900098FFF795FF0130C3D0FFF75DFD1123C0
S315000030A0012503606D42280019B0F0BD040A002016
S315000030B0F0B585B000900191264800211500FFF774
S315000030C09DFF04002A0000210098FFF7F7FC631C0F
S315000030D013D02000FFF75CFE0C260700301C391CBD
S315000030E0ABBE061C3000FFF779FE032802DD03386D
S315000030F0A84206DC2000FFF71BFF0120404205B076
S31500003100F0BD03AE042231002000FFF77DFE032848
S31500003110F0DD3378532BEDD17378482BEAD1B378B1
S31500003120462BE7D1F378422BE4D101222000019906
S31500003130FFF784FE0028DDDB2A0000992000FFF758
S3150000314063FE05002000FFF7F3FE2800FFF746FEAA
S31500003150D5E7C0469C360000F7B501240021094E8C
S31500003160094D01AF2200380031602C60FFF7A0FF47
S31500003170002805DD02223B781C40134034602B609A
S31500003180F7BDC046600000205C00002010B5044C6E
S315000031902368002B01DAFFF7DFFF206810BDC04669
S315000031A05C000020F0B5264B85B001930025032373
S315000031B001ACA36001266560301C211CABBE061C59
S315000031C00122204B52421E601F49EB005B1801355D
S315000031D01A60142DF8D1FFF7D9FF1C4DB8B1184B62
S315000031E0032201930423A26001266360301C211C84
S315000031F0ABBE071C164B1F60114B01930323A36044
S3150000320005336360301C211CABBE061C2E602B6888
S31500003210013302D10E4B1B682B600026094B0A4C6A
S315000032201B6866602360FFF7B1FF30B1084BE660AC
S315000032301B686661A3602B68236105B0F0BDC046BC
S31500003240B2360000000A0020040A0020F809002017
S31500003250FC0900204275696C7420776974682052F5
S31500003260656E6573617320416476616E6365642083
S31500003270466C657869626C6520536F667477617217
S3150000328065205061636B6167652076657273696F4F
S315000032906E20352E322E3000352E322E30000000B4
S315000032A000000205F8B5C046F8BC08BC9E4670474B
S315000032B0F8B5C046F8BC08BC9E4670475465726DAA
S315000032C0696E616C00000000284E554C4C290000C8
S315000032D04750545F4F70656E206661696C65640A7D
S315000032E0000000004750545F456E61626C652066C1
S315000032F061696C65640A0000414443204F70656E45
S31500003300206661696C65640A000000004144432040
S315000033105363616E206661696C65640A0000000093
S315000033205265616420476574206661696C65640A4C
S31500003330000000005374617475732047657420663D
S3150000334061696C65640A00000D0A414443204361CB
S315000033506C6962726174696F6E205375636365731D
S315000033607366756C2E2E0D0A0000000042726561B0
S315000033706B0A00005468652076657273696F6E206B
S315000033806973203D2025640A00000000456E7465BF
S31500003390726564204750545F4D4F44554C450A00B2
S315000033A05363616E20697320737461727465640A75
S315000033B000000000546869732069732074686520F2
S315000033C076616C7565206F6620746865207261771A
S315000033D020616364203D20256C750A000000000012
S315000033E000005454522052454747455300FFFFFF03
S315000033F0420900005A0800005A0800005A08000056
S315000034005A0800005A0800005A0800005A0800002E
S315000034105A0800005A0800005A0800002C0A00004A
S31500003420C80900005A0800005A0800005A0800009F
S315000034305A0800005A0800005A0800005A080000FE
S315000034405A0800005A0800005A0800005A080000EE
S31500003450A80900005A0800005A0800007E0900006A
S315000034605A080000600900005A0800005A080000C7
S31500003470420900003031323334353637383941426B
S31500003480434445467C070020BC34000094340000C9
S31500003490543600000200000000000000000000009A
S315000034A0A834000000000018020000000000000020
S315000034B000881027F86000000000000000000204E9
S315000034C0000000DF0001FF00790D00000000000091
S315000034D0D434000000010200000001DF01FFFFFFFD
S315000034E0A0070020EC340000243600000000000095
S315000034F08D5B00000A000000C62D000001000200DE
S31500003500BD0C0000000000000C35000000000000AB
S3150000351000000000000000000000000000000000A5
S315000035200000000000000000000000000000FFFF97
S31500003530DFDF00000000000000000000C0070020E0
S315000035404835000024360000000000007017000017
S3150000355000000000B80B000002000300ED0C0000A4
S3150000356000000000683500000000000000000000B8
S315000035700000000000000000000000000000000045
S3150000358000000000000000000000FFFFDFDF000079
S3150000359000000000000000000C000000A435000040
S315000035A00000000000000000000000000000010014
S315000035B008010000000000000102000004000000F5
S315000035C005020000004000000602000000000100A5
S315000035D00003000000000113070400000080000043
S315000035E000050000008000000105000000800000CA
S315000035F002050000000001130E090000000001137F
S315000036000F0900001C1E50560000000000000000BC
S3150000361000000000000000000000000000000000A4
S315000036200000000069140000551000003110000071
S31500003630791000003D110000C91100008111000041
S31500003640B5120000F9110000111100009D100000D4
S31500003650CD1300005D1A0000691C000089180000E7
S31500003660E9170000CD180000F91800002119000024
S315000036704520000091190000ED170000C117000059
S315000036804D1F0000CD1900000A0900000A090000BC
S315000036903F0B000001000200080010003A73656D40
S315000036A069686F7374696E672D6665617475726596
S311000036B073003A747400FFFF0000000075
S315000036BC0000000003000000B008002010000020ED
S315000036CC00000000B0080020180900208009002026
S315000036DC00000000000000000000000000000000D8
S315000036EC00000000000000000000000000000000C8
S315000036FC00000000000000000000000000000000B8
S3150000370C000000000000000000000000FFFFFFFFAB
S3110000371CFFFFFFFFBD0400008D0400004D
S31501010018FFFFFFFFFFFFFFFFFFFFFFFFFFFFFFFFE0
S31101010028FFFFFFFFFFFFFFFFFFFFFFFFD0
S705000026B51F
