S00B00006D6D702E73726563CF
S3150000000038310020E922000085200000E5220000AA
S31500000010E5220000E5220000E5220000E5220000BE
S31500000020000000000000000000000000E5220000C3
S31500000030E522000000000000E5220000E5220000A5
S31500000040AD1C0000B91C0000651300000000000094
S31500000050000000000000000000000000000000009A
S31500000060000000000000000000000000000000008A
S31500000070000000000000000000000000000000007A
S31500000080000000000000000000000000000000006A
S31500000400FFFFFFFFDFCEFFFFFCFF0F00FFFF0F0028
S31500000410FCFF0F00FFFF0F00FCFF0F00FFFF0F00A8
S31500000420FCFF0F20FFFF0F20FCFF7F40FFFF7F40F8
S31500000430FCFF0D40FFFF0D40FFFFFFFF40F278007D
S3150000044040F27803C2F20000C2F2000310B5834204
S3150000045005D040F20003C0F2000303B1984710BD77
S3150000046040F2780040F27803C2F20000C2F20003C4
S315000004701B1A9A10D90F8918491010B529B140F2E4
S315000004800003C0F2000303B1984710BD10B540F257
S315000004909004C2F20004237873B9FFF7CFFF40F24D
S315000004A00003C0F200032BB143F6DC30C0F20000BB
S315000004B000E000BF0123237010BDC04640F20003D8
S315000004C0C0F2000310B54BB140F2940143F6DC30A4
S315000004D0C2F20001C0F2000000E000BFFFF7C0FF5B
S315000004E010BDC046C368F0B5C64698468768040086
S315000004F040680D0000B5FE1AC0189044964208D90F
S3150000050002F005FABFF35F8F4346E36080BCB8464E
S31500000510F0BD320002F0FBF94346DB1B1A006068AF
S31500000520A919984602F0F3F9BFF35F8FECE7C046CE
S31500000530F8B54746CE46884680B51600070040F215
S315000005400009C56884681CE0013B5B1B641BB44260
S3150000055000D934009C4200D91C007868220041462C
S31500000560401902F0D4F92D19A144A044361BBC68E9
S31500000570631B5A1E93415B421D40BFF35F8FFD60B4
S3150000058036B13B699D42DFD3013B1B195B1BDDE79F
S315000005904846C0BCB946B046F8BDC04610B540F2A4
S315000005A0BC44C2F20004A8220021200002F058F93F
S315000005B0032343F620022361636140F2BC03C0F2C9
S315000005C00002C2F20003A261E36140F2004323622B
S315000005D00023A3626362E362226640F2AC02C2F2C7
S315000005E0000262661022A2662367E3666367BFF3B2
S315000005F05F8F054A00215156013AE1540133102B11
S31500000600F8D1BFF35F8F10BDE3380000431C70B50F
S3150000061004005800C01840F2BC43C2F200039C46D6
S3150000062063001B19DB006344DC6AC00015006044EC
S31500000630012C14D0022C0DD0FCB99A6A5E6AB24223
S3150000064022D9013A961BB54207D82A00FFF74AFF7E
S315000006502C0002E0FFF76CFF0400200070BD9A6AD0
S315000006605C6AA2420BD9013A121B2C00954200D9B2
S3150000067014002200FFF736FFEFE70024EDE71B6AC0
S31500000680D218013A121BF0E71B6AD218013A961BE0
S31500000690D9E7C046F8B540F2BC43C2F200031B7866
S315000006A004000D001600532B01D0FFF777FFEFF380
S315000006B01087012181F31088320029002000FFF7FE
S315000006C0A5FF87F31088F8BD10B5FFF767FF10BDCB
S315000006D010B5040082686368501C984207D82368E6
S315000006E099540200E368A0600133E36063689A42AC
S315000006F000D010BD21682069FFF7CCFFA36898429F
S3150000070003D001235B42E360F3E70023A360F0E735
S31500000710F8B54E4645465746DE46E0B51E000A9BEE
S315000007200F008046150099460B99974200D271E05A
S315000007303B000122B3FBF5F301329D42FAD9B246E2
S31500000740964200D2924601231A000A4093460B4273
S3150000075002D14B46002B42D14346DB680124002BD5
S3150000076002DA27E06C43013E012EFBD8B7FBF4F317
S315000007709D4204D86C43B7FBF4F39D42FAD943F685
S315000007806C16C0F2000606E0B4FBF5F3AC420DD3DE
S315000007901C00B7FBF3F322005A43F1564046BF1A3A
S315000007A0FFF796FF4346DB68002BEDDA5B460BB19D
S315000007B04B468BB9F0BCBB46B246A946A046F8BD2F
S315000007C001235B429C4620214046E144FFF780FF1F
S315000007D04346DB68002BEDDBD145F1D8EAE7202460
S315000007E0890714D57442744124012034D145B3D904
S315000007F001235B429C4621004046E144FFF768FF27
S315000008004346DB68002BD5DB4A46002AA6D0D145F5
S31500000810EED8A1E7012292E7F0B5DE4657464E46EE
S315000008204546E0B59DB00CAB9A4607934023089326
S3150000083000230C00914640F2010B804609930A936F
S31500000840B24B0B900293002161560134002967D008
S31500000850252907D007A8FFF73BFF0A9B002BF2DAF2
S315000008601F0066E00023E356002702250820042225
S31500000870611C2D2B0CD02D2B0EDC232B11D02B2BFA
S315000008803CD10C0017430023E356611C2D2BF2D1FB
S315000008905B460C001F43F6E7302B05D10C002F43B7
S315000008A0F1E70C000743EEE71A00303AD2B2002611
S315000008B0092A0DD8B20096197600F6180023CB56F1
S315000008C00C001A00303AD2B2303E0131092AF1D971
S315000008D02E2B00D1B6E000230025E3560C0004229F
S315000008E01900914368290BD0252B13D0583BDBB256
S315000008F0202BB2D8029A9B00D3589F460026EAE7DF
S3150000090004210023E35601341A008A43682AF8D0EA
S31500000910252BEBD1252107A8FFF7DAFE0A9B9DE7D9
S315000009200A9F4546002F04DD099C002C00D0A3E059
S315000009303F1938001DB0F0BCBB46B246A946A046DA
S31500000940F0BD4B4649461B6807A81A1D0A60196880
S3150000095010222B0001970096FFF7DAFE0A9B7DE72F
S315000009604B4649461B6807A81A1D0A6019680A22E1
S315000009702B0001970096FFF7CBFE0A9B6EE74B46CE
S3150000098049461B681A1D0A601D683DB9A6E007A8FE
S31500000990FFF79EFE0A9B002B00DA61E700216956ED
S315000009A001350029F3D158E74B4649461B6807A88D
S315000009B01A1D0A6019680023019308330093102258
S315000009C0FFF7A6FE0A9B49E74B4649461B681A1DD8
S315000009D01B680A60DA1703939B1853400122092B00
S315000009E006DD0A201900013293FBF0F36329F9DCD6
S315000009F00495954263D3002E44D100260A9B002B12
S31500000A0000DA2DE7039B002B6DDB7B0776D40323EF
S31500000A103B40022B00D17BE02B000A220399019771
S31500000A20009607A8FFF774FE0A9B17E74B46494650
S31500000A301B6807A81A1D0A6000215956FFF748FED1
S31500000A400A9B0BE70123E3561A00303AD2B2092A71
S31500000A5059D800250C002A009500AD186D00EA183B
S31500000A6000230134E356303A19003039C9B2092956
S31500000A70F2D91500611C31E7220051462800FFF724
S31500000A8009FE55E70223039A3B40002A1BDB7A073F
S31500000A9019D4002B55D0FDB1FB071DD40597049F33
S31500000AA0BE4218D9202107A8FFF712FE0A9B013E75
S31500000AB0002B00DAD4E6002EF2D1059F9FE70492C0
S31500000AC0002EDFD199E7013E03B12DB1FB0703D418
S31500000AD0002EE3D191E7059F0A9B90E743F62C058C
S31500000AE0C0F200055AE75B422D2107A80393FFF7E2
S31500000AF0EFFD0A9B002B8ADA1F001AE72B2107A8B5
S31500000B00FFF7E6FDF5E700250131E7E6E8380000E6
S31500000B10002D00D080E7002E00D17DE7049BB34274
S31500000B2017D2302107A8FFF7D3FD0A9B013E002B01
S31500000B3000DA95E6002EF1D1002B00DB6CE71F00F2
S31500000B40F7E6FB07AAD50A9B002B00DB64E71F002C
S31500000B50EFE60A9BF0E7C0460EB400B582B003ABE1
S31500000B6002CB01AA0193FFF757FE02B008BC03B0FF
S31500000B701847C04640F26853C2F200031A6810B51F
S31500000B8001321A6043F63423C0F20003186800F0FD
S31500000B90F9F940F26453C2F20003186010BDC04672
S31500000BA070B543F67C1342F27A54C0F20003C2F2E7
S31500000BB0000482B018682200012140F2645500F05A
S31500000BC0A7FCC2F200052860208801F083FC01F032
S31500000BD0C1FC43F634020090019142F27C50802120
S31500000BE0C0F20002C2F2000001F0BAFD40F26C54FD
S31500000BF042F27C5243F63C01C2F20004C2F2000209
S31500000C00C0F200010020FFF7A7FF238801332380ED
S31500000C1040F27053C2F200031A6801321A6043F6BA
S31500000C20D813C0F200031E68300000F0ABF940F2A2
S31500000C300003C2F2000322889B6828609A4201D210
S31500000C4002B070BD300000F09DF92860300000F061
S31500000C503BFB40F274530122C2F2000328601A7073
S31500000C60EEE7C04610B583780B2B00D010BDEFF32E
S31500000C700380103840B201F057FAF7E743F67C13C9
S31500000C80C0F2000370B51E680021300040F26454C3
S31500000C9000F076FC42F27855C2F200042060C2F2FF
S31500000CA0000501E02B789BB142F278513000C2F288
S31500000CB0000100F019FC20600028F3D043F6600123
S31500000CC00020C0F20001FFF747FF2B78002BEBD185
S31500000CD043F674010020C0F20001FFF73DFF70BD2E
S31500000CE070B582B0FFF7F0FC002301A8019301F074
S31500000CF08DF943F69801019AC0F200010020FFF732
S31500000D002BFF43F6B0010020C0F20001FFF724FFDD
S31500000D1043F6D813C0F200031D685968280040F254
S31500000D20645400F0E5F9C2F200042060280000F0E7
S31500000D308DF940F6A1310022206000232800C0F280
S31500000D40000100F033F943F63423C0F200031E68B5
S31500000D5059682060300000F0CBF92060300000F0C8
S31500000D6075F940F67531002200232060C0F20001BB
S31500000D70300000F01BF92060300000F0F1F843F677
S31500000D807C13C0F200031E6859682060300000F032
S31500000D905DFC43F68C112060C0F20001300000F0CB
S31500000DA05BFD4CF20003F42120601E20C4F2050313
S31500000DB05A5C02435A54FFF761FF300000F05CFBB7
S31500000DC02060002001F0B0F9280000F0C9F843F6D1
S31500000DD0C4012060C0F200010020FFF7BDFE02B092
S31500000DE070BDC04610B502F08FFCFFF779FF10BD4D
S31500000DF010B538B94CF2000390220121C4F27E03EB
S31500000E00995410BD0228FCD143F6902142F2FC50C1
S31500000E10C0F20001C2F2000000F076F8F1E7C04629
S31500000E2010B5FFF7DFFF002010BDC046F0B5DE4667
S31500000E3057464E464546E0B583B0EFF31082012390
S31500000E4083F3108842F2A863C2F2000301931B6881
S31500000E5033B940F60051C4F20401CB704033CB7075
S31500000E6001990B6801330B6082F3108803880093A5
S31500000E704BB380235B029846224B40F600050021C7
S31500000E8040F2FF099C464068C4F204054F4682883A
S31500000E900468130A3A4047461B013C420AD09F1891
S31500000EA0BF00BA4666467F59374056467751674671
S31500000EB0274077519B189B005C510131009B89B2FA
S31500000EC008308B42E2D1EFF31082012383F31088BE
S31500000ED0019B1B681BB101990B68013B0B60019BD1
S31500000EE01B6833B940F60051C4F20401CB7080335D
S31500000EF0CB7082F3108803B0F0BCBB46B246A9465D
S31500000F00A046F0BDFFFFFEFF10B590B189B14B685A
S31500000F1063B145F254230268C5F24F039A420AD0E0
S31500000F2003600800FFF782FF002010BD0B88002B2E
S31500000F30EFD00120F9E70E20F7E7C04668B145F289
S31500000F4054030268C0F247039A4204D18368C26818
S31500000F5000209A6070470720FCE70120FAE7C046A8
S31500000F6068B145F254030268C0F247039A4204D1BD
S31500000F708368C26800205A6070470720FCE701209A
S31500000F80FAE7C04668B145F254030268C0F2470367
S31500000F909A4204D18368C2680020DA60704707204D
S31500000FA0FCE70120FAE7C0460620704730B570B16D
S31500000FB069B145F254040568C0F24704A54204D15C
S31500000FC04161C2618361002030BD0720FCE701203A
S31500000FD0FAE7C046F0B5C64600B50500806984B09C
S31500000FE08C46904601AC98B12300060086CE86C397
S31500000FF06346037143468360EB6903606B699847F8
S31500001000AB690BB123CC23C304B080BCB846F0BD9A
S315000010102000EDE710B5002801DB01F097F810BDC0
S3150000102090B189B145F254030268C0F247039A426F
S3150000103008D182680020D36ADB07DB0F0B71936C43
S315000010400B6070470720FCE70120FAE730B5E0B1F6
S3150000105045F254030268C0F247039A4213D143682B
S31500001060DA69802354689568D1681B0619431C43C6
S315000010701D43836800205D619961116952691C6195
S3150000108059629A6230BD0720FCE70120FAE7C046A4
S31500001090A0B145F254030268C0F247039A420BD14D
S315000010A0836801399966DA6AD20701D5002070474C
S315000010B0C2685966DA60F9E70720F8E70120F6E723
S315000010C098B145F254030268C0F247039A420AD126
S315000010D08022836812061A615A619A6100220020F2
S315000010E05A629A6270470720FCE70120FAE7C04679
S315000010F0F0B5C646040000B5002900D1A5E0CD69CB
S31500001100002D00D1A1E0002800D19EE001230A7A3B
S31500001110134200D099E00A2A00D996E008780328FD
S3150000112000D996E045F254022668C0F2470296427C
S3150000113000D197E00A7C9340E3605B0600D18EE025
S315000011404B69002B00D186E0887C7F2800D98BE094
S315000011501000461EB041207440F28070C0F240007C
S31500001160844662441202A260002263618B69616058
S31500001170E361A261EFF31088012383F3108840F244
S315000011801F0C0B7C46F6FC705E1EB3416646C4F22D
S3150000119004005B42C768B343213B3B40C360C3685E
S315000011A088F310884AF20050A3684E681860DA6225
S315000011B0DA639A640A7A087852081206013E03280E
S315000011C002D1802040020243DA6280220020120609
S315000011D01A615A619A61AA6958629862DA61EA6983
S315000011E01A629E665E668826EA6A9863985132B9E4
S315000011F020322130AA5C285C520340070243AA2011
S31500001200C0031864E068D8605A63032212201A6388
S31500001210023A1A634B7C085622001900FFF7FAFEC1
S315000012202223E95C0233E8562200FFF7F3FE23236C
S31500001230E95C0233E8562200FFF7ECFE45F2540360
S31500001240C0F247030020236000E0012080BCB846BE
S31500001250F0BD0520FAE7012800D079E774E740F2EF
S315000012607A50F3E70E20F1E70B20EFE7030030B5E5
S3150000127038B331B345F254020468C0F2470207207E
S31500001280944200D030BD9A68536E01338B60D36AA6
S315000012904EF20002C4F20102146A42F23872C2F23D
S315000012A000021268250E0540AA400440E2405B0198
S315000012B05B0F5B00DBB2DA40012300204A600B7053
S315000012C0E0E70120DEE7C04670B50400002847D0FD
S315000012D045F254030268C0F247039A423ED11225F2
S315000012E043685D57DE69002D29DA2423F556002D63
S315000012F016DA2523F556002D07DA00220020A3680A
S31500001300E168226099605A6370BD280000F00CFF06
S3150000131042F2AC630022C2F20003AD00EA50ECE7F1
S31500001320280000F001FF42F2AC630022C2F2000383
S31500001330AD00EA502523F556002DDEDBE5E7280053
S3150000134000F0F2FE42F2AC630022C2F20003AD00EE
S31500001350EA502423F556002DCBDBE1E70720D3E73F
S315000013600120D1E770B5EFF30384103C64B220008E
S3150000137000F0AEFE42F2AC63A200C2F20003D55802
S315000013806B681B78012B07D06B6923B10022002103
S315000013902800FFF71FFE70BDEA68AB6820009A6060
S315000013A000229A64DA641A6500F0A0FEECE7C046F3
S315000013B030B570B169B144F243448568C5F2412441
S315000013C0A54204D181610262C361002030BD0720BD
S315000013D0FCE70120FAE7C046062070470620704762
S315000013E070B5C56904000E0088B0A5B12022290099
S315000013F0684601F08CFA20223100280001F087FAB5
S315000014002800A3699847E06918B12022694601F0CF
S315000014107EFA08B070BD0D00F2E7C04630B5040094
S3150000142089B0EFF3038342F2AC62103B5BB2C2F2C7
S3150000143000029B009D58EFF30380103840B200F085
S3150000144047FE6B469C707D232A68D15C21B103213F
S31500001450684681700021D1546A466B681B881380E8
S31500001460002313722B6A0193AB691BB169462800EE
S31500001470FFF7B6FF09B030BDD8B144F243438268E6
S31500001480C5F241239A4210D1C36893420FD18022FC
S315000014900368995A48F20102914202D01A88D20B87
S315000014A04AB9828A00201A8070470720FCE721206B
S315000014B0FAE70120F8E70820F6E7C04690B144F2C3
S315000014C043438268C5F241239A4207D1C3689342D7
S315000014D006D10022036800201A8070470720FCE727
S315000014E02120FAE70120F8E778B171B144F24343CD
S315000014F08268C5F241239A4205D1036800201B8801
S31500001500DB0B0B7070470720FCE70120FAE7C046AB
S31500001510030010B518B312B344F243409C68C5F2F9
S315000015204120844219D1D868A04226D1C8B21F28CA
S3150000153017D8012040F2FF148840C0F2FF04204271
S315000015400DD0586840694079012808D01B681031D1
S315000015504900CB5A0020138000E0072010BD01206F
S31500001560FCE7C41CE4B2012CEBD90C1DE9D03238DF
S3150000157004000120012CF1D8E3E72120EEE7C04664
S31500001580B8B144F243438268C5F241239A420CD172
S315000015900368094A1988114209D17D2203210020D6
S315000015A0995475327D31995470470720FCE71B200A
S315000015B0FAE70120F8E7C0460082FFFF70B5060093
S315000015C00D0000283DD000293BD044F243438268F9
S315000015D0C5F241239A4232D10069A8B11D230124E4
S315000015E0D841012164420B0022000134A340184275
S315000015F0F9D033680E3252009B182B6000F01EFFA4
S315000016001F23181A001B013001232B721B33AB72E8
S3150000161073684CF200021B8840F2282104335B00F9
S315000016206B7240F229236860C4F27E02D35C525C7E
S315000016301B021343EB60044B00202B8200E00720C3
S3150000164070BD0120FCE7C046BEF1FFFFF0B5454680
S31500001650DE4657464E46E0B50C00050083B000282E
S3150000166000D1C5E0002900D1C2E00988002900D0D8
S31500001670C0E04EF20003C4F201031E6A42F2387360
S315000016800722C2F200031B68300E1040834032402E
S31500001690D34044F23F22C0F20F02934200D8BCE08E
S315000016A066690120337801930023F356002B06DD8B
S315000016B003B0F0BCBB46B246A946A046F0BDA3782F
S315000016C0012B00D199E0F27812B16279022AEFD1AA
S315000016D0E2780120042AEBD144F24342A868C5F21D
S315000016E04122904200D1B5E0E2681AB1A0797F2884
S315000016F000D994E0AA6122696C602A620022EA613C
S315000017004CF20002C4F205022A6062795B03100201
S315000017100343F078002879D040F2C02C67463B435B
S315000017209BB2AB82022A05D143F678328000C0F222
S315000017300002115A44F200007278520102439446A4
S31500001740EFF31089012282F3108846F6FC72C4F288
S315000017500402D76840F2100AB8462788BB465746A7
S3150000176058463F1A380001278740380047468743C6
S31500001770D760D26889F3108847F6FF502A6803407D
S31500001780138063469BB21182D38180230021019F7F
S315000017909F4370331773D1523379002B49D10620FA
S315000017A02056002803DB2A00617A00F0CFFC0720D0
S315000017B02056002803DB2A00A17A00F0C7FC062089
S315000017C03056002803DB2A00317A00F0BFFC0720E0
S315000017D03056002803DB2A00717A00F0B7FC00239C
S315000017E02B6144F24343C5F241230020AB605FE71F
S315000017F001205DE740F27A505AE76279022A00D06A
S3150000180056E7B278022A00D052E761E7EAB948F211
S31500001810400213439BB2AB828CE71B2048E7B079AA
S315000018207F2800D866E7F0797F2800D862E70B208A
S315000018303EE7F42716310B40D3559620153900F0B4
S31500001840F3FB2B683279DA55A9E740F2400C67467C
S315000018503B4365E70E202BE7F0B5DE4657464E467E
S315000018604546E0B5040083B0002800D125E10029F3
S3150000187000D122E144F243438268C5F241239A42F1
S3150000188000D023E10A680092002A00D115E14FF644
S3150000189000631700C9F600731F401A4200D00CE11E
S315000018A040684A688578012D00D105E1002A00D0FC
S315000018B003E1C023009EDB051E40B446009E1E4287
S315000018C000D00EE1436901938B689946019B1B7812
S315000018D0002B00D119E14846009B1343984300288A
S315000018E000D0EAE04B46002B00D1E6E08B7C002BD3
S315000018F000D0E2E0CB689C46B3B11B89A3B140F6A9
S31500001900002005001D40854200D105E15B040BD592
S31500001910634658899B89984200D9CEE06346D889A8
S315000019201B8A984200D9C8E0834B00984D46184060
S3150000193080461000464618402B402568B6B2AE8059
S3150000194086B2AE829EB22E814646000C360C1B0C29
S31500001950EE80E8826B814EF20003C4F201031B6A3B
S315000019609B465846000E824642F23873072056467A
S31500001970C2F200031B680640B3405E463040C340D7
S3150000198040F2E830B3FBF0F041F28833434344F2CF
S315000019904020C0F20F00B3FBF0F30133072B00D257
S315000019A0072300980243924680205646800502404F
S315000019B006420AD040F2DE0B5E46DAB2AA554A4625
S315000019C01040421E9041421CFF3280205646C00500
S315000019D006420BD040F2DF0A5646DBB2AB554B4609
S315000019E0034200D08DE040F200231A43634692B2D0
S315000019F06A82002B00D182E01B891A0529D5902224
S31500001A00AB52624650899C22A852624690899E2219
S31500001A10A8526246126890B2814694204E4640F221
S31500001A2096092E524E461001000DA8539220520FD1
S31500001A302A546246526890B2814698204E4640F239
S31500001A409A092E524E461001000DA8539320520FAC
S31500001A502A549A050ED562466046927CC07C0243A3
S31500001A60A6202A546246D089A822A8526246108A25
S31500001A70AA22A8529022AB5280230A8AEA52019BDC
S31500001A80DB788BB11F222B88934399464346002B64
S31500001A9040D0404600F0D2FC4B461F331B1A9BB287
S31500001AA02B80A28A1343A38244F24343C5F2412307
S31500001AB0E360009B236101E052B90127380003B0BF
S31500001AC0F0BCBB46B246A946A046F0BD0727F5E7DF
S31500001AD0009E33431A42F0D1C023DB051A42ECD1F3
S31500001AE0E7E69C45E9D0144B009E1E42E5D1002D49
S31500001AF0E3D143690193DB78002BDED1E4E60023D2
S31500001B00B8E740F202231A4370E74B46002B00D198
S31500001B10ECE6D2E72020BFE76046857C1F20A8427E
S31500001B208041404280002D1A0120A84065462D685C
S31500001B30054200D1EAE6C0E7FFFFFF9FF8B50400C3
S31500001B40002800D173E044F243438268C5F2412382
S31500001B509A4200D069E00027062543688760C7607F
S31500001B605D575E69002D51DA07255D57002D3EDA77
S31500001B7006257557002D2BDA07257557002D1CDA1B
S31500001B800022002123681A821A80F4329954EFF356
S31500001B901080012383F31088616846F6FC720C8876
S31500001BA01021091B8B40C4F20402D5682B43D36075
S31500001BB0D36880F310880020F8BD280000F0B4FA3E
S31500001BC042F2AC630022C2F20003AD00EA50D7E74E
S31500001BD0280000F0A9FA42F2AC630022AD00C2F27E
S31500001BE00003EA5007257557002DC9DBE5E72800F5
S31500001BF000F09AFA42F2AC630022AD00C2F2000392
S31500001C00EA5006257557002DB6DBE1E7280000F0FF
S31500001C108BFA42F2AC63AD00C2F20003EF50072527
S31500001C2063685D57002DA3DBE1E70720C4E70120C9
S31500001C30C2E7C046030010B532B328B344F24340AE
S31500001C409C68C5F24120844220D1D868A0422BD19D
S31500001C50C8B21F281CD8012040F2FF148840C0F2E9
S31500001C60FF04204210D0586844696479012C0BD0D7
S31500001C701B6810314900CB5A01799BB2012900D16A
S31500001C801B040020136000E0012010BD0720FCE7C4
S31500001C90C41CE4B2012CE6D90C1DE4D03238040091
S31500001CA00120012CF1D8DEE72120EEE710B5002057
S31500001CB0FFF7B4FB10BDC046F0B5DE4657464E46AC
S31500001CC04546E0B589B0EFF3038442F2AC63103CBD
S31500001CD064B2C2F20003A200D6586D4673685A6910
S31500001CE0927952B2A24228D00C22AA701B8832687E
S31500001CF02B80A623D35C9B06990E0B001F2917DCAD
S31500001D00AC2101202B72535C83435354336A6B60BE
S31500001D10B3691BB129003000FFF762FB200000F019
S31500001D20D7F909B0F0BCBB46B246A946A046F0BDFD
S31500001D300F230B40033B5BB2E2E70B22AA701B8822
S31500001D402B8000232B7233689846A0234246D15A33
S31500001D508BB29B46A223D05A83B29A46A423D25C66
S31500001D600004D7B25207801840184208B9461F210E
S31500001D700127D2B33B0040001340520818430139F3
S31500001D80002AF7D1884048B300F058FB0F280CDD35
S31500001D90C3B21C2814DC0F2213409F405346414611
S31500001DA0BB4393328B522872B0E78740FF4340B261
S31500001DB0BFB25B4642461F40A0232872D752A5E712
S31500001DC0032249461A4091434746A4222872B95431
S31500001DD01D2B9BD0203B5BB22B7297E7A423424678
S31500001DE04946D15400232B7290E718B100204FF6D4
S31500001DF0FE77DEE742464946D1542023EAE7C0464D
S31500001E004EF20003262240F27801C4F20103985CE8
S31500001E101B6A8000C2F2000141585B015B0F42F26F
S31500001E203872D940C2F20002116070477047C0464E
S31500001E304EF2000340F2FE325C49C4F2010370B573
S31500001E4099524CF2000240F200110020C4F2010245
S31500001E50505240F2780446F60042C2F20004C0F244
S31500001E60DC22226041F20022C0F27A02626048F26D
S31500001E70000241F60031A26022612622C0F2B701BB
S31500001E80E160995C1A6A890061585201520F42F268
S31500001E903875D140C2F20005296040F21342002194
S31500001EA09954A2220921995440F280429A5C32B98F
S31500001EB040F281429B5C9B07002B00D171E04EF201
S31500001EC0000640F28043C4F20106F25C002A5CD0B0
S31500001ED04EF20003002240F28141C4F201035A543B
S31500001EE001395A544EF20002A023C4F20102D35C17
S31500001EF0CBB13623D35C1BB93C21535CDB07FCD545
S31500001F004EF20002A021C4F20102535CDB06D80F98
S31500001F10002BFADB50544EF20002A021C4F201025B
S31500001F20535CDB06FCD44EF2000200213623C4F2D9
S31500001F300102D1543C31535CDB07FCD5012031232F
S31500001F40D054D033C1F20003136200212623D154AA
S31500001F50D15C136A890061585B015B0FD94040F27E
S31500001F60FE3329601249D1524CF2000240F20413AA
S31500001F7040F20411C4F20102D052535A002BFCD194
S31500001F8001210133FF33D15270BD0132F2540121D8
S31500001F90C82000F049F840F28042B35C012BFCD126
S31500001FA096E740F2E830FFF741FF9BE703A5FFFF06
S31500001FB000A5FFFF70B544F2000428230025C4F2F3
S31500001FC00404E5540121C82000F02EF8242324221D
S31500001FD0E554A35C002BFCD10221A35C24200B4317
S31500001FE0A35444F20002C4F20402135C9B07D90F07
S31500001FF0002BFADB2223D15444F200022221C4F240
S315000020000402535C002BFCD170BDC04628B10023EE
S31500002010C0F202530360002070470120FCE7C0466F
S3150000202001380028FCD1704742F238724CF6002382
S315000020304143C2F2000270B51468C3F69A330D002C
S31500002040B3FBF4F4080040F2E8320023002100F06C
S3150000205013FA31B9B0FBF4F0800808B1FFF7E0FFDE
S3150000206070BDA000B5FBF0F040F2E832002300217D
S3150000207000F002FA0029F0D001204042FFF7D0FF1D
S31500002080EEE7C046F8B546F2000340F2201242F2EF
S31500002090686500240127C4F200039E5A20329B5A29
S315000020A0C2F200051E403300E3401F4203D02B68F6
S315000020B00BB1E0B2984701340435102CF3D146F247
S315000020C0000340F23012C4F200039E52F8BDC0462F
S315000020D046F20003C0308000C4F20003C258024931
S315000020E00A40C250C3587047FFFFFEFF030046F286
S315000020F0000210B5C033C4F200029B009958094C87
S31500002100214099509B58BFF35F8F1F210122014048
S315000021108A404EF2001143096033CEF200019B0063
S315000021205A5010BDFFFFFEFF1F21012201408A40C9
S315000021304EF2001143092033CEF200019B005A50A3
S31500002140BFF34F8FBFF36F8F7047C046F0B5C646DB
S3150000215090464EF20012FF240325CEF2000294466A
S31500002160220040F200370540ED008901AA400C40EC
S31500002170AC4083089B006344DE5900B59643264372
S31500002180DE5142F2AC6342468100C2F200035A506D
S31500002190030046F20002C033C4F200029B009958C5
S315000021A00C4C214099509B58BFF35F8F1F2201238F
S315000021B0024093404EF20012CEF20002944640F2E4
S315000021C080124009800060448350036080BCB8469A
S315000021D0F0BDC046FFFFFEFF46F200000023C4F23A
S315000021E0000043F6F422C0F200029A1812781AB1DF
S315000021F01900C03189000A500133202BF1D17047F4
S3150000220030B5EFF31081012383F3108842F22C736B
S315000022104000C2F200031A5A1AB11A5A013A92B28F
S315000022201A521B5A83B94EF2000243F6843340F227
S31500002230FE34C4F20102C0F20003155B185A044BC7
S315000022402B4383439BB2135381F3108830BDC046A2
S3150000225000A5FFFF70B5EFF31081012383F310880B
S3150000226042F22C724000C2F20002135A83B94EF2B7
S31500002270000443F6843540F2FE36C4F20104C0F28F
S315000022800005A35B2D5A2B434AF200552B43A3535B
S31500002290135A01339BB2135281F3108870BDC046A6
S315000022A042F23472C2F200020300106810B558B14F
S315000022B0032103338B4342F63851C318C2F200019F
S315000022C08B4207D8136010BD42F63810C2F20000E8
S315000022D01060EDE700F012FB0C2303600120404282
S315000022E0F1E7C04600BE704710B500F003F8FEF7F0
S315000022F097FDFEE7F0B54EF6005340F20005CEF22C
S315000023000003C0F2000583B09D600020FEF770FD5B
S31500002310FFF78EFD6B460027DC1D27700120237812
S31500002320FFF798FFEFF31081012686F3108846F633
S31500002330FC73C4F204039A683C4802409A609A68A7
S3150000234081F3108840F60001C4F204010A68D2073E
S31500002350D20F22700A68D207D20F22700A68D207FB
S31500002360D20F2270EFF3108186F3108880229868CE
S31500002370520502439A609B6881F310880120FFF79B
S315000023803FFF0120FEF734FD40F60053284AC4F211
S3150000239000039F8027491A802A6841F200005118DD
S315000023A09960DA6046F2000240F22011C4F200029F
S315000023B0505242F6341240F29000C2F20002C2F2CB
S315000023C000009E800021121A00F04AFA40F2000036
S315000023D040F2780243F6E031C2F20000C2F2000297
S315000023E0121AC0F2000100F092FA40F2700540F2B3
S315000023F07403C2F20005C2F200035B1B9E10002BA1
S3150000240005DD002408CD01349847A642FADCFFF723
S31500002410F7FCFFF7CFFD0220FEF7EAFCFFF7DCFE34
S31500002420002000F009F803B0F0BDC046FFFFFFEF43
S3150000243000A5FFFF00FCFFFF7047C0461C210123DB
S315000024401B04984201D3000C10391B0A984201D391
S31500002450000A08391B09984201D30009043902A26F
S31500002460105C40187047C0460403020201010101D6
S315000024700000000000000000F0B54FF6FF750400F4
S31500002480CE462C40474615400E002900994680B599
S31500002490130C0700000C61434543584363430C0C7F
S315000024A05B19E4188C46A54203D980235B02984643
S315000024B04044230C61461B184FF6FF7008404946FE
S315000024C056437943240489192018C918C0BCB94653
S315000024D0B046F0BD70B5040070B1FFF7AFFF030062
S315000024E09E20C01A96280CDC082B2DD0083B9C4059
S315000024F06402640AC0B201E000200024C005204343
S3150000250070BD992814DC5A1F9440220010490A40D5
S31500002510650709D00F252C40042C05D00432540140
S3150000252002D59F200A40C01A9201540AC0B2E5E7BC
S315000025301A0021001B3291400A00511E8A410521D2
S31500002540C91ACC401443E0E764029620640AD5E732
S31500002550FFFFFFFB70B542024300C40FFE201B0EB7
S31500002560591C550A08420BD040F2803C6D07120BED
S3150000257063441B051343E40723432800190070BD79
S31500002580ABB9EDB12800FFF759FF0A281FDC0B2372
S315000025902A001B1ADA40030015339D4040F28931A8
S315000025A040F2FF731203091A120B0B40E1E755B113
S315000025B0130B802212031A436D0740F2FF73D8E70C
S315000025C000230022D5E740F2FF730022D1E7030083
S315000025D02A000B3B9A400025E0E7C046002310B5D1
S315000025E0040003604360836081814366C2810361A6
S315000025F043618361190008225C3000F031F90B4B0E
S31500002600246263620A4BA3620A4BE3620A4B2363AA
S315000026100A4B9C4205D00A4B9C4202D0094B9C4275
S3150000262003D12000583000F06FF910BDC927000013
S31500002630F127000029280000552800003C2700202B
S31500002640A42700200C28002010B5034A034904489B
S3150000265000F06AF810BDC0460C000020CD31000025
S315000026601C00002041680B4B10B50400994201D0B4
S3150000267000F0ACFDA168084B994202D0200000F0A2
S31500002680A5FDE168054B994202D0200000F09EFDB1
S3150000269010BDC0463C270020A42700200C2800209F
S315000026A010B5094B094A04211A6009480022FFF7B0
S315000026B095FF012209210748FFF790FF0222122108
S315000026C00548FFF78BFF10BD74280020492600003F
S315000026D03C270020A42700200C28002010B5024823
S315000026E000F013F910BDC0467D28002010B5024841
S315000026F000F00CF910BDC0467D28002010B504007E
S31500002700FFF7ECFF236A13B1FFF7F0FF10BD044B90
S315000027102362044B1B68002BF6D1FFF7C1FFF3E7DA
S315000027206526000074280020F7B5140000260090E6
S315000027300191A5686768013F04D52468002CF8D18B
S315000027403000FEBDAB89012B08D90E22AB5E0133EA
S3150000275004D029000098019B984706436835EAE7AC
S315000027600CB430B5174B0C001D689DB0002908DA73
S315000027708B2301202B6040421DB030BC08BC02B048
S31500002780184740F208236A46029093820690002377
S3150000279001B14B1E0493079301236A465B42D38221
S315000027A0280021AB209A02A9019300F01DFA431CD0
S315000027B001DA8B232B60002CDED00022029B1A70DC
S315000027C0DAE7C0461800002070B50C000E25495FF8
S315000027D000F070F8002803DB636D1B18636570BD9D
S315000027E0A389024A1340A381F9E7C046FFEFFFFF22
S315000027F0F8B51F008B8905000C001600DB0505D512
S315000028000E23C95E0022022300F042F8A389054A7E
S3150000281028001340A38132000E23E15E3B0000F046
S315000028205BF8F8BDFFEFFFFF70B50C000E25495FA2
S3150000283000F02EF8A389421C03D1054A1340A38158
S3150000284070BD41F200021343A3816065F8E7C046FC
S31500002850FFEFFFFF10B50E23C95E00F009F810BDAB
S3150000286003008218934200D1704719700133F9E7CB
S31500002870002370B5054D040008002B6000F00AFE29
S31500002880431C02D12B6803B1236070BD7828002059
S3150000289070B50400080011001A000023044D2B60D7
S315000028A000F0B9FD431C02D12B6803B1236070BD53
S315000028B07828002070B50400080011001A000023D3
S315000028C0044D2B6000F052FD431C02D12B6803B16E
S315000028D0236070BD7828002070B504000800110040
S315000028E01A000023044D2B6000F0A9FD431C02D101
S315000028F02B6803B1236070BD78280020014B18684F
S315000029007047C04618000020704770477047002384
S3150000291010B59A4200D110BDCC5CC4540133F8E71F
S315000029200023C25C0133002AFBD1581E7047FFFF0B
S3150000293070B505000C0079B1043C2368002B00DA61
S31500002940E418280000F0DEF81C4A13682BB963600F
S315000029501460280000F0DEF870BDA34208D9206894
S3150000296021188B42F3D119685B6809182160EEE7DC
S315000029701A005B680BB1A342FAD911685018A0423D
S315000029800BD120680918501811608342E1D11868EC
S315000029905B68411811605360DBE7A04202D90C2343
S315000029A02B60D6E7206821188B4203D119685B6833
S315000029B00918216063605460CBE7C0468428002074
S315000029C070B50F4E0D003168040011B900F038FCE7
S315000029D030602900200000F033FC431C03D10125A0
S315000029E06D42280070BD0323C51C9D43A842F8D044
S315000029F0291A200000F024FC0130F2D1EFE7C0468E
S31500002A0080280020F7B50322CB1C9343083305002A
S31500002A101F000C2B34D20C27B94233D8384E28006D
S31500002A2000F070F833681C00002C2FD13900280004
S31500002A30FFF7C6FF0400431C5FD134680094009B77
S31500002A40002B4AD1002C52D023682800E3180099A5
S31500002A50019300F0F5FB019B834248D123682800CF
S31500002A60FF1A3900FFF7ACFF013040D02368DB19AD
S31500002A70236033685A68002A33D1009B336019E01B
S31500002A80002BC9DA0C232B600020FEBD2168C91B70
S31500002A9020D40B290AD9E2192760A34204D1326057
S31500002AA063681160536005E05A60F9E76268A34203
S31500002AB00ED13260280000F02DF8200007220B30DE
S31500002AC0231D9043C21A9842DFD01B1AA350DCE79D
S31500002AD05A60EFE723006468A6E7009C63680093EA
S31500002AE0ADE71A005B68A342FBD10023DAE70C23AB
S31500002AF028002B6000F00EF8C6E70760DAE7C0464C
S31500002B008428002010B50248FFF7FFFE10BDC0461E
S31500002B107C28002010B50248FFF7F8FE10BDC0461D
S31500002B207C280020F0B58E6885B01F000C000B686D
S31500002B3002900392BE4231D80C21625E40F280417F
S31500002B400A4229D0032021695B1A01936369434332
S31500002B500198DD0FED187B1C1B186D10AB4200D9D8
S31500002B601D00520529D529000298FFF74BFF0600E4
S31500002B7000282DD0019A2169FFF7C9FEA289194BB9
S31500002B801A4080231343A381019B2661F618266011
S31500002B903E006561ED1AA560BE4200D93E003200D6
S31500002BA00399206800F03AFB0020A3689B1BA360F2
S31500002BB023689B19236005B0F0BD2A00029800F037
S31500002BC05AFB06000028DFD121690298FFF7B0FE04
S31500002BD00C230120029A40421360A2893433134326
S31500002BE0A381E8E77FFBFFFFF0B5A1B00390049255
S31500002BF01D008B890F001B060FD50B696BB9402191
S31500002C00FFF700FF3860386128B90C23039A136078
S31500002C1001204042CFE040237B61002308AC636182
S31500002C20203363761033A3760795049E33780BB171
S31500002C30252B46D1049BF51A9E420BD02B0039005A
S31500002C40049A0398FFF76EFF013000D1AEE0636986
S31500002C505B1963613378002B00D1A7E001220023C2
S31500002C605242626004A95432521801362360E3606E
S31500002C70A3601370A36505223178544800F0F0FA7A
S31500002C80751C00BB2268D30604D5532304A95B1820
S31500002C9020211970130704D5532304A95B182B218F
S31500002CA0197033782A2B17D03500002140F20A0C10
S31500002CB00126E3682A78681C303A092A4ED989B970
S31500002CC017E00136B2E7414B2268C01A0123834060
S31500002CD013432E002360CEE7079B191D1B6807913F
S31500002CE0002B01DB0B9304E05B42E36002231343FA
S31500002CF023602B782E2B0CD16B782A2B34D1079B93
S31500002D0002351A1D1B680792002B01DA01235B426C
S31500002D1009932F4E03223000297800F0A1FA30B132
S31500002D204023801B834022680135134323602978A2
S31500002D306B1C062227480493217600F091FA00289E
S31500002D403BD0254B33BB0722079B073393430833FE
S31500002D5007936369059A9B18636166E761464B436F
S31500002D60050031009B18A5E7002340F20A0C1A0063
S31500002D700126013563602978681C3039092903D991
S31500002D80002BC6D00992C4E763465A4305003300B8
S31500002D905218F0E707AB00933A0021000F4B039857
S31500002DA000E000BF0590059B0133D2D1BB890D9889
S31500002DB05B0600D52CE721B0F0BD07AB00933A00C7
S31500002DC02100064B039800F079F8EBE78C3B0000F6
S31500002DD0923B0000963B000000000000252B0000FF
S31500002DE0F7B5160001938A680B690C0000909342B0
S31500002DF000DA130022003360433212780AB101333D
S31500002E00336023689B0602D5336802333360226839
S31500002E10062315001D401A4227D0230043331B7892
S31500002E205A1E93412268920630D4220001990098D6
S31500002E30089D4332A847013025D006222368002585
S31500002E401340042B05D13368E568ED1AEB43DB1715
S31500002E501D40A3682269934201DD9B1AED180026E6
S31500002E60B54220D1002010E00135E36832689B1A94
S31500002E70AB42D2DD2200012301990098089F193246
S31500002E80B8470130F0D101204042FEBD3020E118A4
S31500002E904331087021005A1C45310978A218433283
S31500002EA002331170C1E72200012301990098089F9F
S31500002EB01A32B8470130E6D00136D1E7F0B50E0038
S31500002EC089B00492039005930C00097E0E9A43364E
S31500002ED0782907D8622909D8002900D1B7E05829EE
S31500002EE000D1A0E025004235297022E008006338B1
S31500002EF01528F7D800F0F4F916001F00F6FFF6FFC4
S31500002F00F6FFF6FF1F00F6FFF6FFF6FFF6FF9E0040
S31500002F1034004300F6FFF6FFAF00F6FF3400F6FF7D
S31500002F20F6FF4700250013684235191D1B6811601E
S31500002F302B7001239CE013682068191D050609D52E
S31500002F401B681160002B02DA2D225B4232700A22C6
S31500002F505B4832E01B6811604006F3D51BB2F1E70F
S31500002F601068256808C82F0602D46D0600D59BB2E6
S31500002F701060082252486F291BD00A2219E020232C
S31500002F8021680B43236078214E482300453319708E
S31500002F901568216808CD0F0602D44F0600D59BB2EE
S31500002FA01560CA0702D520220A432260002B3CD0B6
S31500002FB010222100002543310D706168A1600029AF
S31500002FC008DB40F2040C674625681943BD432560BB
S31500002FD0350061B13500B3FBF2FC61465143591A25
S31500002FE0415C013D2970190063468A42F3D9082ADB
S31500002FF009D12368DB0706D5626823699A4202DC99
S315000030003023013D2B70761B2661059B2100009322
S315000030100398049B07AAFFF7E3FE01302CD1012099
S31500003020404209B0F0BD2648AFE7202122688A4316
S315000030302260BDE713682568181D616910601B686A
S315000030402F0601D5196002E06D06FBD51980002315
S3150000305035002361D9E71368191D11601D68002129
S315000030602800626800F0FCF808B1401B60606368E5
S31500003070236100233370C8E72A0023690499039863
S31500003080059DA8470130CAD023689B0715D4079B26
S31500003090E0689842C5DA1800C3E7220001230499C4
S315000030A00398059E1932B0470130B8D00135E36860
S315000030B0079A9B1AAB42F0DCE9E70025F7E7C04622
S315000030C09D3B0000AE3B0000F7B50C228B5E050071
S315000030D00C001A0753D44A68002A02DC0A6C002A3C
S315000030E04BDDE76A002F48D0002241F200002E682F
S315000030F02A601A00216A0240034230D0626DA38919
S315000031005B0705D56368D21A636B0BB1236CD21AC1
S3150000311000232800E76A216AB847A289431C06D122
S3150000312029681D2944D8284BCB40DB0740D500230E
S31500003130636023692360D20404D5431C01D12B6844
S3150000314003B96065616B2E60B9B1230044339942BF
S3150000315002D02800FFF7ECFB002363630DE0012398
S315000031602800B8470200431CC9D12B68002BC6D0E3
S315000031701D2B01D0162B1AD12E6000201EE00E69E1
S31500003180002EFAD00F680E60BA1B019200229B0730
S3150000319000D14A69A260019B002BEEDDA36A3200D2
S315000031A01F002800019B216AB847002807DCA28976
S315000031B04023012013431BB2A3814042FEBD019B65
S315000031C036181B1A0193E6E7010040200B6970B51B
S315000031D005000C0013B90025280070BD18B1036A5C
S315000031E00BB9FFF78BFA0C22A35E002BF3D0626EAD
S315000031F0D20704D49B0502D4A06DFFF786FB2800F6
S315000032002100FFF761FF636E0500DB07E4D4A389A5
S315000032109B05E1D4A06DFFF779FBDDE710B5884289
S3150000322002D98B18984208D300239A4207D0CC5C67
S31500003230C4540133F9E78B5C8354013AFBD210BDC9
S31500003240002370B5054D040008002B60FFF728F831
S31500003250431C02D12B6803B1236070BD782800207F
S31500003260C9B28218904201D10020704703788B4280
S31500003270FBD00130F6E7F7B506000C00150029B9BA
S315000032801100FFF7BFFB04002000FEBD1AB9FFF7CF
S315000032904FFB2C00F8E700F01BF80700854202D828
S315000032A04308AB42F0D329003000FFF7ABFB019097
S315000032B008B9019CE8E72A00BD4200D93A0021007E
S315000032C00198FFF724FB21003000FFF731FBF0E700
S315000032D00B1F1B68181F002B01DA0B58C01870470C
S315000032E003B47146490840004900095E49008E440E
S315000032F003BC7047094B10B50400186818B1036A7F
S315000033000BB9FFF7FBF90020132C06D8044BE40099
S31500003310E358013301D0024BE01810BD180000201D
S3150000332094280020F8B50400FFF7E8FA13260500F4
S315000033300027301C391CABBE061C2E602000F8BDD1
S3150000334010B5431C01D1FFF7EDFF10BD30B585B0B8
S3150000335001AD0190029103920624201C291CABBEEC
S31500003360041C2000FFF7ECFF05B030BD70B50E0061
S315000033701400FFF7BFFF050030B9FFF7BFFA0923B6
S3150000338003600120404270BD220031000068FFF753
S31500003390DDFF431CF5D06B68201A1B186B60F2E743
S315000033A0F7B50C001600FFF7A5FF050038B9FFF7C3
S315000033B0A5FA09230360012464422000FEBD022E03
S315000033C003D9FFF79BFA1623F4E7012E12D14368BF
S315000033D0E418F6D46F462B680A2600937C60301CEE
S315000033E0391CABBE061C3000FFF7AAFF0028E2DB43
S315000033F06C60E2E70368022EECD16F4600930A3652
S31500003400301C391CABBE061C3000FFF799FF241890
S315000034100130DFD1CFE710B5FFF7C2FF10BD30B5E1
S3150000342085B001AD0190029103920524201C291C50
S31500003430ABBE041C2000FFF783FF05B030BD70B59E
S315000034400E001500FFF756FF040030B9FFF756FAD5
S31500003450092303600120404270BD2A003100006844
S31500003460FFF7DDFF031EF5DB6268281A121862609B
S31500003470AB42F1D10020FFF755FFEDE737B5022447
S31500003480019001AD201C291CABBE041C2000FFF7D7
S3150000349057FF3EBD70B50500FFF72CFF040030B99D
S315000034A0FFF72CFA092303600120404270BD013D5D
S315000034B0012D09D8094B9A681B699A4204D1012348
S315000034C05B4203600020F1E72068FFF7D7FF002882
S315000034D0ECD101235B422360E8E7C0469428002034
S315000034E070B50C00FFF706FF050030B9FFF706FAC6
S315000034F0092303600120404270BD42F20003626866
S315000035000C261343636040F20043A364301C291C5D
S31500003510ABBE051C2800FFF713FF431CEAD0206151
S315000035200020E9E770B50D000400582200212800AC
S31500003530FFF796F92000002100F012F80400431C62
S315000035400CD048F200136A68290013436B60FFF73A
S31500003550C7FF05002000FFF79DFF2C00200070BD6F
S31500003560F0B50E00002599B00090294AEB000193B2
S315000035709B181B68013335D00135142DF5D1FFF7A3
S31500003580BDF918233EE00223F403E40F1E4200D0E7
S315000035901C4340F201631E4201D004231C4308234E
S315000035A01E4202D0042294431C43009B180002933F
S315000035B0FFF7B6F97C60B8600124201C391CABBE4D
S315000035C0041C002C09DB124BEA009C501300104A25
S315000035D09446002263445A6017E02000FFF7A2FEDB
S315000035E0050012E040F60023320002AF1A409A426C
S315000035F0C9D139000098FFF795FF0130C3D0FFF716
S315000036007DF91123012503606D42280019B0F0BD34
S3150000361094280020F0B585B000900191264800213D
S315000036201500FFF79DFF04002A0000210098FFF710
S3150000363017F9631C13D02000FFF75CFE0C26070069
S31500003640301C391CABBE061C3000FFF779FE032880
S3150000365002DD0338A84206DC2000FFF71BFF01202D
S31500003660404205B0F0BD03AE042231002000FFF752
S315000036707DFE0328F0DD3378532BEDD17378482B8C
S31500003680EAD1B378462BE7D1F378422BE4D1012275
S3150000369020000199FFF784FE0028DDDB2A0000994F
S315000036A02000FFF763FE05002000FFF7F3FE280069
S315000036B0FFF746FED5E7C046BF3B0000F7B501243D
S315000036C00021094E094D01AF2200380031602C60FF
S315000036D0FFF7A0FF002805DD02223B781C401340BF
S315000036E034602B60F7BDC0466C00002068000020E7
S315000036F010B5044C2368002B01DAFFF7DFFF2068C2
S3150000370010BDC04668000020F0B5264B85B0019379
S315000037100025032301ACA36001266560301C211C33
S31500003720ABBE061C0122204B52421E601F49EB0015
S315000037305B1801351A60142DF8D1FFF7D9FF1C4D1F
S31500003740B8B1184B032201930423A26001266360DB
S31500003750301C211CABBE071C164B1F60114B01937E
S315000037600323A36005336360301C211CABBE061C1B
S315000037702E602B68013302D10E4B1B682B6000268E
S31500003780094B0A4C1B6866602360FFF7B1FF30B136
S31500003790084BE6601B686661A3602B68236105B071
S315000037A0F0BDC046D53B000090280020942800209C
S315000037B0882800208C2800204275696C742077695F
S315000037C074682052656E6573617320416476616E1C
S315000037D063656420466C657869626C6520536F6624
S315000037E07477617265205061636B616765207665E9
S315000037F07273696F6E20352E322E3000352E322EC2
S315000038003000000000000205F8B5C046F8BC08BC50
S315000038109E467047F8B5C046F8BC08BC9E46704741
S315000038205465726D696E616C00000000284E554C3F
S315000038304C29000025302E326600000054686520B1
S3150000384076616C7565206F662074686520616463B7
S315000038505F766F6C74206973203D2025730A000023
S3150000386053746174757320476574206661696C656D
S31500003870640A00000D0A4144432043616C69627288
S315000038806174696F6E205375636365737366756CD7
S315000038902E2E0D0A000000005468652076657273AE
S315000038A0696F6E206973203D2025640A00000000C0
S315000038B0456E7465726564204750545F4D4F44559C
S315000038C04C450A0042756666657220697320667506
S315000038D06C6C0A000000000000005454522052454F
S315000038E04747455300FFFFFF420900005A08000002
S315000038F05A0800005A0800005A0800005A0800003A
S315000039005A0800005A0800005A0800005A08000029
S315000039105A0800002C0A0000C80900005A080000D6
S315000039205A0800005A0800005A0800005A08000009
S315000039305A0800005A0800005A0800005A080000F9
S315000039405A0800005A080000A80900005A0800009A
S315000039505A0800007E0900005A08000060090000AD
S315000039605A0800005A08000042090000303132337C
S31500003970343536373839414243444546042600201B
S31500003980B43900008C390000443B000002000000FE
S315000039900000000000000000A03900000000001830
S315000039A0020000000000000000881027F8600000F8
S315000039B00000000000000204000000DF0001FF001C
S315000039C0650C000000000000CC3900000001020078
S315000039D0000001DF01FFFFFF28260020E439000078
S315000039E0143B0000000000007017000000000000FB
S315000039F0B80B000000000200A10B00000000000050
S31500003A00043A000000000000000000000000000072
S31500003A1000000000000000000000000000000000A0
S31500003A20000000000000FFFFDFDF000000000000D4
S31500003A300000000048260020403A0000143B000029
S31500003A4000000000001BB70000000000808D5B0036
S31500003A5000000200750B000000000000603A000044
S31500003A600000000000000000000000000000000050
S31500003A700000000000000000000000000000000040
S31500003A800000FFFFDFDF0000000000000000000074
S31500003A900B0000009C3A000000000000000001003E
S31500003AA00801000000000000010200000400000000
S31500003AB005020000004000000602000000000100B0
S31500003AC0000300000000011307040000008000004E
S31500003AD000050000008000000105000000800000D5
S31500003AE002050000000001130E090000000001138A
S31500003AF00F0900001C1E4A00000000000000000024
S31500003B0000000000000000000000000000000000AF
S31500003B1000000000F1100000610F00003D0F0000E2
S31500003B20850F00004D100000C1100000911000002C
S31500003B30A90F00006D12000021100000AD0F00005B
S31500003B40C91200004D160000591800007914000033
S31500003B50D9130000BD140000E9140000111500007F
S31500003B60351C000081150000DD130000B1130000B4
S31500003B703D1B0000BD1500000A0900000A090000EF
S31500003B803F0B00000100020008001000232D302B1F
S31500003B902000686C4C006566674546470030313248
S31500003BA0333435363738394142434445460030319F
S31500003BB03233343536373839616263646566003AC4
S31500003BC073656D69686F7374696E672D6665617478
S31500003BD075726573003A747400FFFFFF0000000001
S31500003BE07805002000100000A00F00000000000073
S31500003BF0030000003C2700201C00002000000000FD
S31500003C003C270020A42700200C28002000000000EC
S31500003C10000000000000000000000000000000009E
S31500003C20000000000000000000000000000000008E
S31500003C30000000000000000000000000000000007E
S31500003C400000000000000000FFFFFFFFFFFFFFFF76
S30D00003C50BD0400008D04000014
S31501010018FFFFFFFFFFFFFFFFFFFFFFFFFFFFFFFFE0
S31101010028FFFFFFFFFFFFFFFFFFFFFFFFD0
S705000022E9EF
